GAS LISTING C:\Users\Bart\AppData\Local\Temp/ccWngH3b.s 			page 1


   1               		.file	"fpurge.c"
   2               		.arch atmega2561
   3               	__SREG__ = 0x3f
   4               	__SP_H__ = 0x3e
   5               	__SP_L__ = 0x3d
   6               	__tmp_reg__ = 0
   7               	__zero_reg__ = 1
   8               		.global __do_copy_data
   9               		.global __do_clear_bss
  10               		.text
  11               	.global	fpurge
  12               		.type	fpurge, @function
  13               	fpurge:
  14               	/* prologue: frame size=0 */
  15               	/* prologue end (size=0) */
  16 0000 FC01      		movw r30,r24
  17 0002 40E0      		ldi r20,lo8(0)
  18 0004 50E0      		ldi r21,hi8(0)
  19 0006 60E0      		ldi r22,lo8(0)
  20 0008 70E0      		ldi r23,hi8(0)
  21 000a 8081      		ld r24,Z
  22 000c 9181      		ldd r25,Z+1
  23 000e 0E94 0000 		call _read
  24 0012 892B      		or r24,r25
  25 0014 01F0      		breq .L2
  26 0016 8FEF      		ldi r24,lo8(-1)
  27 0018 9FEF      		ldi r25,hi8(-1)
  28 001a 0895      		ret
  29               	.L2:
  30 001c 80E0      		ldi r24,lo8(0)
  31 001e 90E0      		ldi r25,hi8(0)
  32 0020 0895      		ret
  33               	/* epilogue: frame size=0 */
  34               	/* epilogue: noreturn */
  35               	/* epilogue end (size=0) */
  36               	/* function fpurge size 17 (17) */
  37               		.size	fpurge, .-fpurge
  38               	/* File "D:/Git/TI-2A3-InternetMediaCenter/tools/ethernut-4.3.3/nut/crt/fpurge.c": code   17 = 0x00
GAS LISTING C:\Users\Bart\AppData\Local\Temp/ccWngH3b.s 			page 2


DEFINED SYMBOLS
                            *ABS*:00000000 fpurge.c
C:\Users\Bart\AppData\Local\Temp/ccWngH3b.s:3      *ABS*:0000003f __SREG__
C:\Users\Bart\AppData\Local\Temp/ccWngH3b.s:4      *ABS*:0000003e __SP_H__
C:\Users\Bart\AppData\Local\Temp/ccWngH3b.s:5      *ABS*:0000003d __SP_L__
C:\Users\Bart\AppData\Local\Temp/ccWngH3b.s:6      *ABS*:00000000 __tmp_reg__
C:\Users\Bart\AppData\Local\Temp/ccWngH3b.s:7      *ABS*:00000001 __zero_reg__
C:\Users\Bart\AppData\Local\Temp/ccWngH3b.s:13     .text:00000000 fpurge

UNDEFINED SYMBOLS
__do_copy_data
__do_clear_bss
_read
