GAS LISTING C:\Users\Bart\AppData\Local\Temp/ccmjKN5j.s 			page 1


   1               		.file	"freopen.c"
   2               		.arch atmega2561
   3               	__SREG__ = 0x3f
   4               	__SP_H__ = 0x3e
   5               	__SP_L__ = 0x3d
   6               	__tmp_reg__ = 0
   7               	__zero_reg__ = 1
   8               		.global __do_copy_data
   9               		.global __do_clear_bss
  10               		.text
  11               	.global	freopen
  12               		.type	freopen, @function
  13               	freopen:
  14               	/* prologue: frame size=0 */
  15 0000 9F92      		push r9
  16 0002 AF92      		push r10
  17 0004 BF92      		push r11
  18 0006 CF92      		push r12
  19 0008 DF92      		push r13
  20 000a EF92      		push r14
  21 000c FF92      		push r15
  22 000e 0F93      		push r16
  23 0010 1F93      		push r17
  24 0012 CF93      		push r28
  25 0014 DF93      		push r29
  26               	/* prologue end (size=11) */
  27 0016 5C01      		movw r10,r24
  28 0018 CB01      		movw r24,r22
  29 001a EA01      		movw r28,r20
  30 001c 0E94 0000 		call _fmode
  31 0020 6C01      		movw r12,r24
  32 0022 8F5F      		subi r24,lo8(-1)
  33 0024 9F4F      		sbci r25,hi8(-1)
  34 0026 01F4      		brne .L16
  35 0028 00C0      		rjmp .L2
  36               	.L4:
  37 002a 0F5F      		subi r16,lo8(-(1))
  38 002c 1F4F      		sbci r17,hi8(-(1))
  39 002e 3296      		adiw r30,2
  40 0030 0830      		cpi r16,8
  41 0032 1105      		cpc r17,__zero_reg__
  42 0034 01F4      		brne .L5
  43 0036 89E0      		ldi r24,lo8(9)
  44 0038 90E0      		ldi r25,hi8(9)
  45 003a 9093 0000 		sts (errno)+1,r25
  46 003e 8093 0000 		sts errno,r24
  47 0042 00C0      		rjmp .L2
  48               	.L16:
  49 0044 00E0      		ldi r16,lo8(0)
  50 0046 10E0      		ldi r17,hi8(0)
  51 0048 E0E0      		ldi r30,lo8(__iob)
  52 004a F0E0      		ldi r31,hi8(__iob)
  53               	.L5:
  54 004c 8081      		ld r24,Z
  55 004e 9181      		ldd r25,Z+1
  56 0050 8C17      		cp r24,r28
  57 0052 9D07      		cpc r25,r29
GAS LISTING C:\Users\Bart\AppData\Local\Temp/ccmjKN5j.s 			page 2


  58 0054 01F4      		brne .L4
  59 0056 87E0      		ldi r24,lo8(7)
  60 0058 90E0      		ldi r25,hi8(7)
  61 005a 0E94 0000 		call malloc
  62 005e 7C01      		movw r14,r24
  63 0060 E801      		movw r28,r16
  64 0062 CC0F      		lsl r28
  65 0064 DD1F      		rol r29
  66 0066 C050      		subi r28,lo8(-(__iob))
  67 0068 D040      		sbci r29,hi8(-(__iob))
  68 006a F982      		std Y+1,r15
  69 006c E882      		st Y,r14
  70 006e E114      		cp r14,__zero_reg__
  71 0070 F104      		cpc r15,__zero_reg__
  72 0072 01F0      		breq .L2
  73 0074 B601      		movw r22,r12
  74 0076 C501      		movw r24,r10
  75 0078 0E94 0000 		call _open
  76 007c F701      		movw r30,r14
  77 007e 9183      		std Z+1,r25
  78 0080 8083      		st Z,r24
  79 0082 E881      		ld r30,Y
  80 0084 F981      		ldd r31,Y+1
  81 0086 8F5F      		subi r24,lo8(-1)
  82 0088 9F4F      		sbci r25,hi8(-1)
  83 008a 01F4      		brne .L10
  84 008c CF01      		movw r24,r30
  85 008e 0E94 0000 		call free
  86 0092 82E0      		ldi r24,lo8(2)
  87 0094 8017      		cp r24,r16
  88 0096 00F0      		brlo .L12
  89 0098 0F5F      		subi r16,lo8(-(1))
  90 009a 1F4F      		sbci r17,hi8(-(1))
  91 009c 1983      		std Y+1,r17
  92 009e 0883      		st Y,r16
  93 00a0 00C0      		rjmp .L2
  94               	.L12:
  95 00a2 1982      		std Y+1,__zero_reg__
  96 00a4 1882      		st Y,__zero_reg__
  97 00a6 00C0      		rjmp .L2
  98               	.L10:
  99 00a8 D382      		std Z+3,r13
 100 00aa C282      		std Z+2,r12
 101 00ac 1482      		std Z+4,__zero_reg__
 102 00ae E881      		ld r30,Y
 103 00b0 F981      		ldd r31,Y+1
 104 00b2 1682      		std Z+6,__zero_reg__
 105 00b4 1582      		std Z+5,__zero_reg__
 106 00b6 CF01      		movw r24,r30
 107 00b8 00C0      		rjmp .L7
 108               	.L2:
 109 00ba 80E0      		ldi r24,lo8(0)
 110 00bc 90E0      		ldi r25,hi8(0)
 111               	.L7:
 112               	/* epilogue: frame size=0 */
 113 00be DF91      		pop r29
 114 00c0 CF91      		pop r28
GAS LISTING C:\Users\Bart\AppData\Local\Temp/ccmjKN5j.s 			page 3


 115 00c2 1F91      		pop r17
 116 00c4 0F91      		pop r16
 117 00c6 FF90      		pop r15
 118 00c8 EF90      		pop r14
 119 00ca DF90      		pop r13
 120 00cc CF90      		pop r12
 121 00ce BF90      		pop r11
 122 00d0 AF90      		pop r10
 123 00d2 9F90      		pop r9
 124 00d4 0895      		ret
 125               	/* epilogue end (size=12) */
 126               	/* function freopen size 109 (86) */
 127               		.size	freopen, .-freopen
 128               	/* File "D:/Git/TI-2A3-InternetMediaCenter/tools/ethernut-4.3.3/nut/crt/freopen.c": code  109 = 0x0
GAS LISTING C:\Users\Bart\AppData\Local\Temp/ccmjKN5j.s 			page 4


DEFINED SYMBOLS
                            *ABS*:00000000 freopen.c
C:\Users\Bart\AppData\Local\Temp/ccmjKN5j.s:3      *ABS*:0000003f __SREG__
C:\Users\Bart\AppData\Local\Temp/ccmjKN5j.s:4      *ABS*:0000003e __SP_H__
C:\Users\Bart\AppData\Local\Temp/ccmjKN5j.s:5      *ABS*:0000003d __SP_L__
C:\Users\Bart\AppData\Local\Temp/ccmjKN5j.s:6      *ABS*:00000000 __tmp_reg__
C:\Users\Bart\AppData\Local\Temp/ccmjKN5j.s:7      *ABS*:00000001 __zero_reg__
C:\Users\Bart\AppData\Local\Temp/ccmjKN5j.s:13     .text:00000000 freopen

UNDEFINED SYMBOLS
__do_copy_data
__do_clear_bss
_fmode
errno
__iob
malloc
_open
free
