GAS LISTING C:\Users\Bart\AppData\Local\Temp/cca3VMVo.s 			page 1


   1               		.file	"localtim.c"
   2               		.arch atmega2561
   3               	__SREG__ = 0x3f
   4               	__SP_H__ = 0x3e
   5               	__SP_L__ = 0x3d
   6               	__tmp_reg__ = 0
   7               	__zero_reg__ = 1
   8               		.global __do_copy_data
   9               		.global __do_clear_bss
  10               		.text
  11               	.global	localtime_r
  12               		.type	localtime_r, @function
  13               	localtime_r:
  14               	/* prologue: frame size=4 */
  15 0000 CF92      		push r12
  16 0002 DF92      		push r13
  17 0004 EF92      		push r14
  18 0006 FF92      		push r15
  19 0008 0F93      		push r16
  20 000a 1F93      		push r17
  21 000c CF93      		push r28
  22 000e DF93      		push r29
  23 0010 CDB7      		in r28,__SP_L__
  24 0012 DEB7      		in r29,__SP_H__
  25 0014 2497      		sbiw r28,4
  26 0016 0FB6      		in __tmp_reg__,__SREG__
  27 0018 F894      		cli
  28 001a DEBF      		out __SP_H__,r29
  29 001c 0FBE      		out __SREG__,__tmp_reg__
  30 001e CDBF      		out __SP_L__,r28
  31               	/* prologue end (size=16) */
  32 0020 FC01      		movw r30,r24
  33 0022 6B01      		movw r12,r22
  34 0024 2081      		ld r18,Z
  35 0026 3181      		ldd r19,Z+1
  36 0028 4281      		ldd r20,Z+2
  37 002a 5381      		ldd r21,Z+3
  38 002c DA01      		movw r26,r20
  39 002e C901      		movw r24,r18
  40 0030 8158      		subi r24,lo8(-(-259201))
  41 0032 944F      		sbci r25,hi8(-(-259201))
  42 0034 A340      		sbci r26,hlo8(-(-259201))
  43 0036 B040      		sbci r27,hhi8(-(-259201))
  44 0038 8E5F      		subi r24,lo8(2146965246)
  45 003a 9641      		sbci r25,hi8(2146965246)
  46 003c A84F      		sbci r26,hlo8(2146965246)
  47 003e BF47      		sbci r27,hhi8(2146965246)
  48 0040 00F0      		brlo .+2
  49 0042 00C0      		rjmp .L2
  50 0044 8091 0000 		lds r24,_timezone
  51 0048 9091 0000 		lds r25,(_timezone)+1
  52 004c A091 0000 		lds r26,(_timezone)+2
  53 0050 B091 0000 		lds r27,(_timezone)+3
  54 0054 281B      		sub r18,r24
  55 0056 390B      		sbc r19,r25
  56 0058 4A0B      		sbc r20,r26
  57 005a 5B0B      		sbc r21,r27
GAS LISTING C:\Users\Bart\AppData\Local\Temp/cca3VMVo.s 			page 2


  58 005c 2983      		std Y+1,r18
  59 005e 3A83      		std Y+2,r19
  60 0060 4B83      		std Y+3,r20
  61 0062 5C83      		std Y+4,r21
  62 0064 B601      		movw r22,r12
  63 0066 8E01      		movw r16,r28
  64 0068 0F5F      		subi r16,lo8(-(1))
  65 006a 1F4F      		sbci r17,hi8(-(1))
  66 006c C801      		movw r24,r16
  67 006e 0E94 0000 		call gmtime_r
  68 0072 8091 0000 		lds r24,_daylight
  69 0076 8823      		tst r24
  70 0078 01F4      		brne .+2
  71 007a 00C0      		rjmp .L4
  72 007c C601      		movw r24,r12
  73 007e 0E94 0000 		call _isindst
  74 0082 892B      		or r24,r25
  75 0084 01F4      		brne .+2
  76 0086 00C0      		rjmp .L4
  77 0088 8981      		ldd r24,Y+1
  78 008a 9A81      		ldd r25,Y+2
  79 008c AB81      		ldd r26,Y+3
  80 008e BC81      		ldd r27,Y+4
  81 0090 2091 0000 		lds r18,_dstbias
  82 0094 3091 0000 		lds r19,(_dstbias)+1
  83 0098 4091 0000 		lds r20,(_dstbias)+2
  84 009c 5091 0000 		lds r21,(_dstbias)+3
  85 00a0 821B      		sub r24,r18
  86 00a2 930B      		sbc r25,r19
  87 00a4 A40B      		sbc r26,r20
  88 00a6 B50B      		sbc r27,r21
  89 00a8 8983      		std Y+1,r24
  90 00aa 9A83      		std Y+2,r25
  91 00ac AB83      		std Y+3,r26
  92 00ae BC83      		std Y+4,r27
  93 00b0 B601      		movw r22,r12
  94 00b2 C801      		movw r24,r16
  95 00b4 0E94 0000 		call gmtime_r
  96 00b8 81E0      		ldi r24,lo8(1)
  97 00ba 90E0      		ldi r25,hi8(1)
  98 00bc F601      		movw r30,r12
  99 00be 918B      		std Z+17,r25
 100 00c0 808B      		std Z+16,r24
 101 00c2 00C0      		rjmp .L4
 102               	.L2:
 103 00c4 B601      		movw r22,r12
 104 00c6 CF01      		movw r24,r30
 105 00c8 0E94 0000 		call gmtime_r
 106 00cc C601      		movw r24,r12
 107 00ce 0E94 0000 		call _isindst
 108 00d2 E090 0000 		lds r14,_timezone
 109 00d6 F090 0000 		lds r15,(_timezone)+1
 110 00da 0091 0000 		lds r16,(_timezone)+2
 111 00de 1091 0000 		lds r17,(_timezone)+3
 112 00e2 D601      		movw r26,r12
 113 00e4 2D91      		ld r18,X+
 114 00e6 3C91      		ld r19,X
GAS LISTING C:\Users\Bart\AppData\Local\Temp/cca3VMVo.s 			page 3


 115 00e8 892B      		or r24,r25
 116 00ea 01F0      		breq .L7
 117 00ec C901      		movw r24,r18
 118 00ee AA27      		clr r26
 119 00f0 97FD      		sbrc r25,7
 120 00f2 A095      		com r26
 121 00f4 BA2F      		mov r27,r26
 122 00f6 2091 0000 		lds r18,_dstbias
 123 00fa 3091 0000 		lds r19,(_dstbias)+1
 124 00fe 4091 0000 		lds r20,(_dstbias)+2
 125 0102 5091 0000 		lds r21,(_dstbias)+3
 126 0106 E20E      		add r14,r18
 127 0108 F31E      		adc r15,r19
 128 010a 041F      		adc r16,r20
 129 010c 151F      		adc r17,r21
 130 010e 00C0      		rjmp .L22
 131               	.L7:
 132 0110 C901      		movw r24,r18
 133 0112 AA27      		clr r26
 134 0114 97FD      		sbrc r25,7
 135 0116 A095      		com r26
 136 0118 BA2F      		mov r27,r26
 137               	.L22:
 138 011a 8E19      		sub r24,r14
 139 011c 9F09      		sbc r25,r15
 140 011e A00B      		sbc r26,r16
 141 0120 B10B      		sbc r27,r17
 142 0122 8983      		std Y+1,r24
 143 0124 9A83      		std Y+2,r25
 144 0126 AB83      		std Y+3,r26
 145 0128 BC83      		std Y+4,r27
 146 012a E980      		ldd r14,Y+1
 147 012c FA80      		ldd r15,Y+2
 148 012e 0B81      		ldd r16,Y+3
 149 0130 1C81      		ldd r17,Y+4
 150 0132 C801      		movw r24,r16
 151 0134 B701      		movw r22,r14
 152 0136 2CE3      		ldi r18,lo8(60)
 153 0138 30E0      		ldi r19,hi8(60)
 154 013a 40E0      		ldi r20,hlo8(60)
 155 013c 50E0      		ldi r21,hhi8(60)
 156 013e 0E94 0000 		call __divmodsi4
 157 0142 9B01      		movw r18,r22
 158 0144 F601      		movw r30,r12
 159 0146 7183      		std Z+1,r23
 160 0148 6083      		st Z,r22
 161 014a 77FF      		sbrs r23,7
 162 014c 00C0      		rjmp .L10
 163 014e 245C      		subi r18,lo8(-(60))
 164 0150 3F4F      		sbci r19,hi8(-(60))
 165 0152 3183      		std Z+1,r19
 166 0154 2083      		st Z,r18
 167 0156 84EC      		ldi r24,lo8(-60)
 168 0158 9FEF      		ldi r25,hi8(-60)
 169 015a AFEF      		ldi r26,hlo8(-60)
 170 015c BFEF      		ldi r27,hhi8(-60)
 171 015e E80E      		add r14,r24
GAS LISTING C:\Users\Bart\AppData\Local\Temp/cca3VMVo.s 			page 4


 172 0160 F91E      		adc r15,r25
 173 0162 0A1F      		adc r16,r26
 174 0164 1B1F      		adc r17,r27
 175 0166 E982      		std Y+1,r14
 176 0168 FA82      		std Y+2,r15
 177 016a 0B83      		std Y+3,r16
 178 016c 1C83      		std Y+4,r17
 179               	.L10:
 180 016e F601      		movw r30,r12
 181 0170 8281      		ldd r24,Z+2
 182 0172 9381      		ldd r25,Z+3
 183 0174 7C01      		movw r14,r24
 184 0176 0027      		clr r16
 185 0178 F7FC      		sbrc r15,7
 186 017a 0095      		com r16
 187 017c 102F      		mov r17,r16
 188 017e 6981      		ldd r22,Y+1
 189 0180 7A81      		ldd r23,Y+2
 190 0182 8B81      		ldd r24,Y+3
 191 0184 9C81      		ldd r25,Y+4
 192 0186 2CE3      		ldi r18,lo8(60)
 193 0188 30E0      		ldi r19,hi8(60)
 194 018a 40E0      		ldi r20,hlo8(60)
 195 018c 50E0      		ldi r21,hhi8(60)
 196 018e 0E94 0000 		call __divmodsi4
 197 0192 E20E      		add r14,r18
 198 0194 F31E      		adc r15,r19
 199 0196 041F      		adc r16,r20
 200 0198 151F      		adc r17,r21
 201 019a E982      		std Y+1,r14
 202 019c FA82      		std Y+2,r15
 203 019e 0B83      		std Y+3,r16
 204 01a0 1C83      		std Y+4,r17
 205 01a2 C801      		movw r24,r16
 206 01a4 B701      		movw r22,r14
 207 01a6 2CE3      		ldi r18,lo8(60)
 208 01a8 30E0      		ldi r19,hi8(60)
 209 01aa 40E0      		ldi r20,hlo8(60)
 210 01ac 50E0      		ldi r21,hhi8(60)
 211 01ae 0E94 0000 		call __divmodsi4
 212 01b2 9B01      		movw r18,r22
 213 01b4 F601      		movw r30,r12
 214 01b6 7383      		std Z+3,r23
 215 01b8 6283      		std Z+2,r22
 216 01ba 77FF      		sbrs r23,7
 217 01bc 00C0      		rjmp .L12
 218 01be 245C      		subi r18,lo8(-(60))
 219 01c0 3F4F      		sbci r19,hi8(-(60))
 220 01c2 3383      		std Z+3,r19
 221 01c4 2283      		std Z+2,r18
 222 01c6 84EC      		ldi r24,lo8(-60)
 223 01c8 9FEF      		ldi r25,hi8(-60)
 224 01ca AFEF      		ldi r26,hlo8(-60)
 225 01cc BFEF      		ldi r27,hhi8(-60)
 226 01ce E80E      		add r14,r24
 227 01d0 F91E      		adc r15,r25
 228 01d2 0A1F      		adc r16,r26
GAS LISTING C:\Users\Bart\AppData\Local\Temp/cca3VMVo.s 			page 5


 229 01d4 1B1F      		adc r17,r27
 230 01d6 E982      		std Y+1,r14
 231 01d8 FA82      		std Y+2,r15
 232 01da 0B83      		std Y+3,r16
 233 01dc 1C83      		std Y+4,r17
 234               	.L12:
 235 01de F601      		movw r30,r12
 236 01e0 8481      		ldd r24,Z+4
 237 01e2 9581      		ldd r25,Z+5
 238 01e4 7C01      		movw r14,r24
 239 01e6 0027      		clr r16
 240 01e8 F7FC      		sbrc r15,7
 241 01ea 0095      		com r16
 242 01ec 102F      		mov r17,r16
 243 01ee 6981      		ldd r22,Y+1
 244 01f0 7A81      		ldd r23,Y+2
 245 01f2 8B81      		ldd r24,Y+3
 246 01f4 9C81      		ldd r25,Y+4
 247 01f6 2CE3      		ldi r18,lo8(60)
 248 01f8 30E0      		ldi r19,hi8(60)
 249 01fa 40E0      		ldi r20,hlo8(60)
 250 01fc 50E0      		ldi r21,hhi8(60)
 251 01fe 0E94 0000 		call __divmodsi4
 252 0202 E20E      		add r14,r18
 253 0204 F31E      		adc r15,r19
 254 0206 041F      		adc r16,r20
 255 0208 151F      		adc r17,r21
 256 020a E982      		std Y+1,r14
 257 020c FA82      		std Y+2,r15
 258 020e 0B83      		std Y+3,r16
 259 0210 1C83      		std Y+4,r17
 260 0212 C801      		movw r24,r16
 261 0214 B701      		movw r22,r14
 262 0216 28E1      		ldi r18,lo8(24)
 263 0218 30E0      		ldi r19,hi8(24)
 264 021a 40E0      		ldi r20,hlo8(24)
 265 021c 50E0      		ldi r21,hhi8(24)
 266 021e 0E94 0000 		call __divmodsi4
 267 0222 9B01      		movw r18,r22
 268 0224 F601      		movw r30,r12
 269 0226 7583      		std Z+5,r23
 270 0228 6483      		std Z+4,r22
 271 022a 77FF      		sbrs r23,7
 272 022c 00C0      		rjmp .L14
 273 022e 285E      		subi r18,lo8(-(24))
 274 0230 3F4F      		sbci r19,hi8(-(24))
 275 0232 3583      		std Z+5,r19
 276 0234 2483      		std Z+4,r18
 277 0236 88EE      		ldi r24,lo8(-24)
 278 0238 9FEF      		ldi r25,hi8(-24)
 279 023a AFEF      		ldi r26,hlo8(-24)
 280 023c BFEF      		ldi r27,hhi8(-24)
 281 023e E80E      		add r14,r24
 282 0240 F91E      		adc r15,r25
 283 0242 0A1F      		adc r16,r26
 284 0244 1B1F      		adc r17,r27
 285 0246 E982      		std Y+1,r14
GAS LISTING C:\Users\Bart\AppData\Local\Temp/cca3VMVo.s 			page 6


 286 0248 FA82      		std Y+2,r15
 287 024a 0B83      		std Y+3,r16
 288 024c 1C83      		std Y+4,r17
 289               	.L14:
 290 024e 6981      		ldd r22,Y+1
 291 0250 7A81      		ldd r23,Y+2
 292 0252 8B81      		ldd r24,Y+3
 293 0254 9C81      		ldd r25,Y+4
 294 0256 28E1      		ldi r18,lo8(24)
 295 0258 30E0      		ldi r19,hi8(24)
 296 025a 40E0      		ldi r20,hlo8(24)
 297 025c 50E0      		ldi r21,hhi8(24)
 298 025e 0E94 0000 		call __divmodsi4
 299 0262 7901      		movw r14,r18
 300 0264 8A01      		movw r16,r20
 301 0266 1216      		cp __zero_reg__,r18
 302 0268 1306      		cpc __zero_reg__,r19
 303 026a 1406      		cpc __zero_reg__,r20
 304 026c 1506      		cpc __zero_reg__,r21
 305 026e 04F4      		brge .L16
 306 0270 F601      		movw r30,r12
 307 0272 6485      		ldd r22,Z+12
 308 0274 7585      		ldd r23,Z+13
 309 0276 8827      		clr r24
 310 0278 77FD      		sbrc r23,7
 311 027a 8095      		com r24
 312 027c 982F      		mov r25,r24
 313 027e 620F      		add r22,r18
 314 0280 731F      		adc r23,r19
 315 0282 841F      		adc r24,r20
 316 0284 951F      		adc r25,r21
 317 0286 27E0      		ldi r18,lo8(7)
 318 0288 30E0      		ldi r19,hi8(7)
 319 028a 40E0      		ldi r20,hlo8(7)
 320 028c 50E0      		ldi r21,hhi8(7)
 321 028e 0E94 0000 		call __divmodsi4
 322 0292 F601      		movw r30,r12
 323 0294 7587      		std Z+13,r23
 324 0296 6487      		std Z+12,r22
 325 0298 9701      		movw r18,r14
 326 029a 8681      		ldd r24,Z+6
 327 029c 9781      		ldd r25,Z+7
 328 029e 8E0D      		add r24,r14
 329 02a0 9F1D      		adc r25,r15
 330 02a2 9783      		std Z+7,r25
 331 02a4 8683      		std Z+6,r24
 332 02a6 00C0      		rjmp .L23
 333               	.L16:
 334 02a8 2115      		cp r18,__zero_reg__
 335 02aa 3105      		cpc r19,__zero_reg__
 336 02ac 4105      		cpc r20,__zero_reg__
 337 02ae 5105      		cpc r21,__zero_reg__
 338 02b0 01F0      		breq .L4
 339 02b2 F601      		movw r30,r12
 340 02b4 6485      		ldd r22,Z+12
 341 02b6 7585      		ldd r23,Z+13
 342 02b8 695F      		subi r22,lo8(-(7))
GAS LISTING C:\Users\Bart\AppData\Local\Temp/cca3VMVo.s 			page 7


 343 02ba 7F4F      		sbci r23,hi8(-(7))
 344 02bc 8827      		clr r24
 345 02be 77FD      		sbrc r23,7
 346 02c0 8095      		com r24
 347 02c2 982F      		mov r25,r24
 348 02c4 620F      		add r22,r18
 349 02c6 731F      		adc r23,r19
 350 02c8 841F      		adc r24,r20
 351 02ca 951F      		adc r25,r21
 352 02cc 27E0      		ldi r18,lo8(7)
 353 02ce 30E0      		ldi r19,hi8(7)
 354 02d0 40E0      		ldi r20,hlo8(7)
 355 02d2 50E0      		ldi r21,hhi8(7)
 356 02d4 0E94 0000 		call __divmodsi4
 357 02d8 F601      		movw r30,r12
 358 02da 7587      		std Z+13,r23
 359 02dc 6487      		std Z+12,r22
 360 02de 9701      		movw r18,r14
 361 02e0 8681      		ldd r24,Z+6
 362 02e2 9781      		ldd r25,Z+7
 363 02e4 8E0D      		add r24,r14
 364 02e6 9F1D      		adc r25,r15
 365 02e8 9783      		std Z+7,r25
 366 02ea 8683      		std Z+6,r24
 367 02ec 1816      		cp __zero_reg__,r24
 368 02ee 1906      		cpc __zero_reg__,r25
 369 02f0 04F0      		brlt .L19
 370 02f2 4F96      		adiw r24,31
 371 02f4 9783      		std Z+7,r25
 372 02f6 8683      		std Z+6,r24
 373 02f8 8CE6      		ldi r24,lo8(364)
 374 02fa 91E0      		ldi r25,hi8(364)
 375 02fc 9787      		std Z+15,r25
 376 02fe 8687      		std Z+14,r24
 377 0300 8BE0      		ldi r24,lo8(11)
 378 0302 90E0      		ldi r25,hi8(11)
 379 0304 9187      		std Z+9,r25
 380 0306 8087      		std Z+8,r24
 381 0308 8285      		ldd r24,Z+10
 382 030a 9385      		ldd r25,Z+11
 383 030c 0197      		sbiw r24,1
 384 030e 9387      		std Z+11,r25
 385 0310 8287      		std Z+10,r24
 386 0312 00C0      		rjmp .L4
 387               	.L19:
 388 0314 F601      		movw r30,r12
 389               	.L23:
 390 0316 8685      		ldd r24,Z+14
 391 0318 9785      		ldd r25,Z+15
 392 031a 820F      		add r24,r18
 393 031c 931F      		adc r25,r19
 394 031e 9787      		std Z+15,r25
 395 0320 8687      		std Z+14,r24
 396               	.L4:
 397 0322 80E0      		ldi r24,lo8(0)
 398 0324 90E0      		ldi r25,hi8(0)
 399               	/* epilogue: frame size=4 */
GAS LISTING C:\Users\Bart\AppData\Local\Temp/cca3VMVo.s 			page 8


 400 0326 2496      		adiw r28,4
 401 0328 0FB6      		in __tmp_reg__,__SREG__
 402 032a F894      		cli
 403 032c DEBF      		out __SP_H__,r29
 404 032e 0FBE      		out __SREG__,__tmp_reg__
 405 0330 CDBF      		out __SP_L__,r28
 406 0332 DF91      		pop r29
 407 0334 CF91      		pop r28
 408 0336 1F91      		pop r17
 409 0338 0F91      		pop r16
 410 033a FF90      		pop r15
 411 033c EF90      		pop r14
 412 033e DF90      		pop r13
 413 0340 CF90      		pop r12
 414 0342 0895      		ret
 415               	/* epilogue end (size=15) */
 416               	/* function localtime_r size 421 (390) */
 417               		.size	localtime_r, .-localtime_r
 418               	.global	localtime
 419               		.type	localtime, @function
 420               	localtime:
 421               	/* prologue: frame size=0 */
 422               	/* prologue end (size=0) */
 423 0344 60E0      		ldi r22,lo8(_tb)
 424 0346 70E0      		ldi r23,hi8(_tb)
 425 0348 0E94 0000 		call localtime_r
 426 034c 892B      		or r24,r25
 427 034e 01F0      		breq .L25
 428 0350 80E0      		ldi r24,lo8(0)
 429 0352 90E0      		ldi r25,hi8(0)
 430 0354 0895      		ret
 431               	.L25:
 432 0356 80E0      		ldi r24,lo8(_tb)
 433 0358 90E0      		ldi r25,hi8(_tb)
 434 035a 0895      		ret
 435               	/* epilogue: frame size=0 */
 436               	/* epilogue: noreturn */
 437               	/* epilogue end (size=0) */
 438               	/* function localtime size 12 (12) */
 439               		.size	localtime, .-localtime
 440               	/* File "D:/Git/TI-2A3-InternetMediaCenter/tools/ethernut-4.3.3/nut/crt/localtim.c": code  433 = 0x
GAS LISTING C:\Users\Bart\AppData\Local\Temp/cca3VMVo.s 			page 9


DEFINED SYMBOLS
                            *ABS*:00000000 localtim.c
C:\Users\Bart\AppData\Local\Temp/cca3VMVo.s:3      *ABS*:0000003f __SREG__
C:\Users\Bart\AppData\Local\Temp/cca3VMVo.s:4      *ABS*:0000003e __SP_H__
C:\Users\Bart\AppData\Local\Temp/cca3VMVo.s:5      *ABS*:0000003d __SP_L__
C:\Users\Bart\AppData\Local\Temp/cca3VMVo.s:6      *ABS*:00000000 __tmp_reg__
C:\Users\Bart\AppData\Local\Temp/cca3VMVo.s:7      *ABS*:00000001 __zero_reg__
C:\Users\Bart\AppData\Local\Temp/cca3VMVo.s:13     .text:00000000 localtime_r
C:\Users\Bart\AppData\Local\Temp/cca3VMVo.s:420    .text:00000344 localtime

UNDEFINED SYMBOLS
__do_copy_data
__do_clear_bss
_timezone
gmtime_r
_daylight
_isindst
_dstbias
__divmodsi4
_tb
