GAS LISTING C:\Users\Bart\AppData\Local\Temp/ccXaKQED.s 			page 1


   1               		.file	"puts_p.c"
   2               		.arch atmega2561
   3               	__SREG__ = 0x3f
   4               	__SP_H__ = 0x3e
   5               	__SP_L__ = 0x3d
   6               	__tmp_reg__ = 0
   7               	__zero_reg__ = 1
   8               		.global __do_copy_data
   9               		.global __do_clear_bss
  10               		.text
  11               	.global	puts_P
  12               		.type	puts_P, @function
  13               	puts_P:
  14               	/* prologue: frame size=0 */
  15               	/* prologue end (size=0) */
  16 0000 6091 0000 		lds r22,__iob+2
  17 0004 7091 0000 		lds r23,(__iob+2)+1
  18 0008 0E94 0000 		call fputs_P
  19 000c 8F5F      		subi r24,lo8(-1)
  20 000e 9F4F      		sbci r25,hi8(-1)
  21 0010 01F4      		brne .L2
  22 0012 8FEF      		ldi r24,lo8(-1)
  23 0014 9FEF      		ldi r25,hi8(-1)
  24 0016 0895      		ret
  25               	.L2:
  26 0018 6091 0000 		lds r22,__iob+2
  27 001c 7091 0000 		lds r23,(__iob+2)+1
  28 0020 8AE0      		ldi r24,lo8(10)
  29 0022 90E0      		ldi r25,hi8(10)
  30 0024 0E94 0000 		call fputc
  31 0028 80E0      		ldi r24,lo8(0)
  32 002a 90E0      		ldi r25,hi8(0)
  33 002c 0895      		ret
  34               	/* epilogue: frame size=0 */
  35               	/* epilogue: noreturn */
  36               	/* epilogue end (size=0) */
  37               	/* function puts_P size 24 (24) */
  38               		.size	puts_P, .-puts_P
  39               	/* File "D:/Git/TI-2A3-InternetMediaCenter/tools/ethernut-4.3.3/nut/crt/puts_p.c": code   24 = 0x00
GAS LISTING C:\Users\Bart\AppData\Local\Temp/ccXaKQED.s 			page 2


DEFINED SYMBOLS
                            *ABS*:00000000 puts_p.c
C:\Users\Bart\AppData\Local\Temp/ccXaKQED.s:3      *ABS*:0000003f __SREG__
C:\Users\Bart\AppData\Local\Temp/ccXaKQED.s:4      *ABS*:0000003e __SP_H__
C:\Users\Bart\AppData\Local\Temp/ccXaKQED.s:5      *ABS*:0000003d __SP_L__
C:\Users\Bart\AppData\Local\Temp/ccXaKQED.s:6      *ABS*:00000000 __tmp_reg__
C:\Users\Bart\AppData\Local\Temp/ccXaKQED.s:7      *ABS*:00000001 __zero_reg__
C:\Users\Bart\AppData\Local\Temp/ccXaKQED.s:13     .text:00000000 puts_P

UNDEFINED SYMBOLS
__do_copy_data
__do_clear_bss
__iob
fputs_P
fputc
