GAS LISTING C:\Users\Bart\AppData\Local\Temp/ccsoXXzE.s 			page 1


   1               		.file	"time.c"
   2               		.arch atmega2561
   3               	__SREG__ = 0x3f
   4               	__SP_H__ = 0x3e
   5               	__SP_L__ = 0x3d
   6               	__tmp_reg__ = 0
   7               	__zero_reg__ = 1
   8               		.global __do_copy_data
   9               		.global __do_clear_bss
  10               		.text
  11               	.global	stime
  12               		.type	stime, @function
  13               	stime:
  14               	/* prologue: frame size=0 */
  15 0000 EF92      		push r14
  16 0002 FF92      		push r15
  17 0004 0F93      		push r16
  18 0006 1F93      		push r17
  19               	/* prologue end (size=4) */
  20 0008 FC01      		movw r30,r24
  21 000a E080      		ld r14,Z
  22 000c F180      		ldd r15,Z+1
  23 000e 0281      		ldd r16,Z+2
  24 0010 1381      		ldd r17,Z+3
  25 0012 0E94 0000 		call NutGetSeconds
  26 0016 E61A      		sub r14,r22
  27 0018 F70A      		sbc r15,r23
  28 001a 080B      		sbc r16,r24
  29 001c 190B      		sbc r17,r25
  30 001e E092 0000 		sts epo_offs,r14
  31 0022 F092 0000 		sts (epo_offs)+1,r15
  32 0026 0093 0000 		sts (epo_offs)+2,r16
  33 002a 1093 0000 		sts (epo_offs)+3,r17
  34 002e 80E0      		ldi r24,lo8(0)
  35 0030 90E0      		ldi r25,hi8(0)
  36               	/* epilogue: frame size=0 */
  37 0032 1F91      		pop r17
  38 0034 0F91      		pop r16
  39 0036 FF90      		pop r15
  40 0038 EF90      		pop r14
  41 003a 0895      		ret
  42               	/* epilogue end (size=5) */
  43               	/* function stime size 30 (21) */
  44               		.size	stime, .-stime
  45               	.global	time
  46               		.type	time, @function
  47               	time:
  48               	/* prologue: frame size=0 */
  49 003c EF92      		push r14
  50 003e FF92      		push r15
  51 0040 0F93      		push r16
  52 0042 1F93      		push r17
  53 0044 CF93      		push r28
  54 0046 DF93      		push r29
  55               	/* prologue end (size=6) */
  56 0048 EC01      		movw r28,r24
  57 004a E090 0000 		lds r14,epo_offs
GAS LISTING C:\Users\Bart\AppData\Local\Temp/ccsoXXzE.s 			page 2


  58 004e F090 0000 		lds r15,(epo_offs)+1
  59 0052 0091 0000 		lds r16,(epo_offs)+2
  60 0056 1091 0000 		lds r17,(epo_offs)+3
  61 005a 0E94 0000 		call NutGetSeconds
  62 005e 6E0D      		add r22,r14
  63 0060 7F1D      		adc r23,r15
  64 0062 801F      		adc r24,r16
  65 0064 911F      		adc r25,r17
  66 0066 2097      		sbiw r28,0
  67 0068 01F0      		breq .L4
  68 006a 6883      		st Y,r22
  69 006c 7983      		std Y+1,r23
  70 006e 8A83      		std Y+2,r24
  71 0070 9B83      		std Y+3,r25
  72               	.L4:
  73               	/* epilogue: frame size=0 */
  74 0072 DF91      		pop r29
  75 0074 CF91      		pop r28
  76 0076 1F91      		pop r17
  77 0078 0F91      		pop r16
  78 007a FF90      		pop r15
  79 007c EF90      		pop r14
  80 007e 0895      		ret
  81               	/* epilogue end (size=7) */
  82               	/* function time size 34 (21) */
  83               		.size	time, .-time
  84               		.lcomm epo_offs,4
  85               	/* File "D:/Git/TI-2A3-InternetMediaCenter/tools/ethernut-4.3.3/nut/crt/time.c": code   64 = 0x0040
GAS LISTING C:\Users\Bart\AppData\Local\Temp/ccsoXXzE.s 			page 3


DEFINED SYMBOLS
                            *ABS*:00000000 time.c
C:\Users\Bart\AppData\Local\Temp/ccsoXXzE.s:3      *ABS*:0000003f __SREG__
C:\Users\Bart\AppData\Local\Temp/ccsoXXzE.s:4      *ABS*:0000003e __SP_H__
C:\Users\Bart\AppData\Local\Temp/ccsoXXzE.s:5      *ABS*:0000003d __SP_L__
C:\Users\Bart\AppData\Local\Temp/ccsoXXzE.s:6      *ABS*:00000000 __tmp_reg__
C:\Users\Bart\AppData\Local\Temp/ccsoXXzE.s:7      *ABS*:00000001 __zero_reg__
C:\Users\Bart\AppData\Local\Temp/ccsoXXzE.s:13     .text:00000000 stime
                             .bss:00000000 epo_offs
C:\Users\Bart\AppData\Local\Temp/ccsoXXzE.s:47     .text:0000003c time

UNDEFINED SYMBOLS
__do_copy_data
__do_clear_bss
NutGetSeconds
