GAS LISTING C:\DOCUME~1\Arlind\LOCALS~1\Temp/ccsEmWg5.s 			page 1


   1               		.file	"ppp.c"
   2               		.arch atmega2561
   3               	__SREG__ = 0x3f
   4               	__SP_H__ = 0x3e
   5               	__SP_L__ = 0x3d
   6               	__tmp_reg__ = 0
   7               	__zero_reg__ = 1
   8               		.global __do_copy_data
   9               		.global __do_clear_bss
  10               		.text
  11               		.type	PPP_Calc_CRC, @function
  12               	PPP_Calc_CRC:
  13               	/* prologue: frame size=0 */
  14               	/* prologue end (size=0) */
  15 0000 9927      		clr r25
  16 0002 40E0      		ldi r20,lo8(0)
  17 0004 68E0      		ldi r22,lo8(-31736)
  18 0006 74E8      		ldi r23,hi8(-31736)
  19               	.L2:
  20 0008 9C01      		movw r18,r24
  21 000a 3695      		lsr r19
  22 000c 2795      		ror r18
  23 000e 80FF      		sbrs r24,0
  24 0010 00C0      		rjmp .L3
  25 0012 C901      		movw r24,r18
  26 0014 8627      		eor r24,r22
  27 0016 9727      		eor r25,r23
  28 0018 00C0      		rjmp .L5
  29               	.L3:
  30 001a C901      		movw r24,r18
  31               	.L5:
  32 001c 4F5F      		subi r20,lo8(-(1))
  33 001e 4830      		cpi r20,lo8(8)
  34 0020 01F4      		brne .L2
  35               	/* epilogue: frame size=0 */
  36 0022 0895      		ret
  37               	/* epilogue end (size=1) */
  38               	/* function PPP_Calc_CRC size 18 (17) */
  39               		.size	PPP_Calc_CRC, .-PPP_Calc_CRC
  40               		.type	NutPppWrite_P, @function
  41               	NutPppWrite_P:
  42               	/* prologue: frame size=0 */
  43 0024 CF93      		push r28
  44 0026 DF93      		push r29
  45               	/* prologue end (size=2) */
  46 0028 EC01      		movw r28,r24
  47 002a EA81      		ldd r30,Y+2
  48 002c FB81      		ldd r31,Y+3
  49 002e 0188      		ldd __tmp_reg__,Z+17
  50 0030 F289      		ldd r31,Z+18
  51 0032 E02D      		mov r30,__tmp_reg__
  52 0034 FF96      		adiw r30,63
  53 0036 8081      		ld r24,Z
  54 0038 9181      		ldd r25,Z+1
  55 003a 0E94 0000 		call _write_P
  56               	/* epilogue: frame size=0 */
  57 003e DF91      		pop r29
GAS LISTING C:\DOCUME~1\Arlind\LOCALS~1\Temp/ccsEmWg5.s 			page 2


  58 0040 CF91      		pop r28
  59 0042 0895      		ret
  60               	/* epilogue end (size=3) */
  61               	/* function NutPppWrite_P size 16 (11) */
  62               		.size	NutPppWrite_P, .-NutPppWrite_P
  63               		.type	NutPppWrite, @function
  64               	NutPppWrite:
  65               	/* prologue: frame size=0 */
  66 0044 CF93      		push r28
  67 0046 DF93      		push r29
  68               	/* prologue end (size=2) */
  69 0048 EC01      		movw r28,r24
  70 004a EA81      		ldd r30,Y+2
  71 004c FB81      		ldd r31,Y+3
  72 004e 0188      		ldd __tmp_reg__,Z+17
  73 0050 F289      		ldd r31,Z+18
  74 0052 E02D      		mov r30,__tmp_reg__
  75 0054 FF96      		adiw r30,63
  76 0056 8081      		ld r24,Z
  77 0058 9181      		ldd r25,Z+1
  78 005a 0E94 0000 		call _write
  79               	/* epilogue: frame size=0 */
  80 005e DF91      		pop r29
  81 0060 CF91      		pop r28
  82 0062 0895      		ret
  83               	/* epilogue end (size=3) */
  84               	/* function NutPppWrite size 16 (11) */
  85               		.size	NutPppWrite, .-NutPppWrite
  86               		.type	PPP_AsyncMapOut, @function
  87               	PPP_AsyncMapOut:
  88               	/* prologue: frame size=130 */
  89 0064 AF92      		push r10
  90 0066 BF92      		push r11
  91 0068 CF92      		push r12
  92 006a DF92      		push r13
  93 006c EF92      		push r14
  94 006e FF92      		push r15
  95 0070 0F93      		push r16
  96 0072 1F93      		push r17
  97 0074 CF93      		push r28
  98 0076 DF93      		push r29
  99 0078 CDB7      		in r28,__SP_L__
 100 007a DEB7      		in r29,__SP_H__
 101 007c C258      		subi r28,lo8(130)
 102 007e D040      		sbci r29,hi8(130)
 103 0080 0FB6      		in __tmp_reg__,__SREG__
 104 0082 F894      		cli
 105 0084 DEBF      		out __SP_H__,r29
 106 0086 0FBE      		out __SREG__,__tmp_reg__
 107 0088 CDBF      		out __SP_L__,r28
 108               	/* prologue end (size=19) */
 109 008a 5C01      		movw r10,r24
 110 008c 6A01      		movw r12,r20
 111 008e 20E0      		ldi r18,lo8(0)
 112 0090 30E0      		ldi r19,hi8(0)
 113 0092 00C0      		rjmp .L15
 114               	.L30:
GAS LISTING C:\DOCUME~1\Arlind\LOCALS~1\Temp/ccsEmWg5.s 			page 3


 115 0094 7601      		movw r14,r12
 116 0096 00C0      		rjmp .L27
 117               	.L16:
 118 0098 8B01      		movw r16,r22
 119 009a 7901      		movw r14,r18
 120 009c 40E0      		ldi r20,lo8(0)
 121 009e BE01      		movw r22,r28
 122 00a0 6F5F      		subi r22,lo8(-(1))
 123 00a2 7F4F      		sbci r23,hi8(-(1))
 124 00a4 5DE7      		ldi r21,lo8(125)
 125 00a6 90E2      		ldi r25,lo8(32)
 126 00a8 9601      		movw r18,r12
 127 00aa 2E19      		sub r18,r14
 128 00ac 3F09      		sbc r19,r15
 129 00ae 200F      		add r18,r16
 130 00b0 311F      		adc r19,r17
 131               	.L17:
 132 00b2 D801      		movw r26,r16
 133 00b4 8C91      		ld r24,X
 134 00b6 8032      		cpi r24,lo8(32)
 135 00b8 00F4      		brsh .L18
 136 00ba FB01      		movw r30,r22
 137 00bc E40F      		add r30,r20
 138 00be F11D      		adc r31,__zero_reg__
 139 00c0 5083      		st Z,r21
 140 00c2 4F5F      		subi r20,lo8(-(1))
 141 00c4 FB01      		movw r30,r22
 142 00c6 E40F      		add r30,r20
 143 00c8 F11D      		adc r31,__zero_reg__
 144 00ca 00C0      		rjmp .L32
 145               	.L18:
 146 00cc 8E37      		cpi r24,lo8(126)
 147 00ce 01F4      		brne .L21
 148 00d0 FB01      		movw r30,r22
 149 00d2 E40F      		add r30,r20
 150 00d4 F11D      		adc r31,__zero_reg__
 151 00d6 5083      		st Z,r21
 152 00d8 4F5F      		subi r20,lo8(-(1))
 153 00da FB01      		movw r30,r22
 154 00dc E40F      		add r30,r20
 155 00de F11D      		adc r31,__zero_reg__
 156 00e0 D801      		movw r26,r16
 157               	.L32:
 158 00e2 8C91      		ld r24,X
 159 00e4 8927      		eor r24,r25
 160 00e6 8083      		st Z,r24
 161 00e8 00C0      		rjmp .L20
 162               	.L21:
 163 00ea E42F      		mov r30,r20
 164 00ec FF27      		clr r31
 165 00ee DE01      		movw r26,r28
 166 00f0 1196      		adiw r26,1
 167 00f2 8D37      		cpi r24,lo8(125)
 168 00f4 01F4      		brne .L23
 169 00f6 EA0F      		add r30,r26
 170 00f8 FB1F      		adc r31,r27
 171 00fa 8083      		st Z,r24
GAS LISTING C:\DOCUME~1\Arlind\LOCALS~1\Temp/ccsEmWg5.s 			page 4


 172 00fc 4F5F      		subi r20,lo8(-(1))
 173 00fe A40F      		add r26,r20
 174 0100 B11D      		adc r27,__zero_reg__
 175 0102 F801      		movw r30,r16
 176 0104 8081      		ld r24,Z
 177 0106 8927      		eor r24,r25
 178 0108 00C0      		rjmp .L33
 179               	.L23:
 180 010a AE0F      		add r26,r30
 181 010c BF1F      		adc r27,r31
 182               	.L33:
 183 010e 8C93      		st X,r24
 184               	.L20:
 185 0110 0F5F      		subi r16,lo8(-(1))
 186 0112 1F4F      		sbci r17,hi8(-(1))
 187 0114 0894      		sec
 188 0116 E11C      		adc r14,__zero_reg__
 189 0118 F11C      		adc r15,__zero_reg__
 190 011a 4F5F      		subi r20,lo8(-(1))
 191 011c 0217      		cp r16,r18
 192 011e 1307      		cpc r17,r19
 193 0120 01F4      		brne .+2
 194 0122 00C0      		rjmp .L30
 195 0124 47FF      		sbrs r20,7
 196 0126 00C0      		rjmp .L17
 197               	.L27:
 198 0128 5527      		clr r21
 199 012a BE01      		movw r22,r28
 200 012c 6F5F      		subi r22,lo8(-(1))
 201 012e 7F4F      		sbci r23,hi8(-(1))
 202 0130 C501      		movw r24,r10
 203 0132 0E94 0000 		call _write
 204 0136 B801      		movw r22,r16
 205 0138 9701      		movw r18,r14
 206               	.L15:
 207 013a 2C15      		cp r18,r12
 208 013c 3D05      		cpc r19,r13
 209 013e 00F4      		brsh .+2
 210 0140 00C0      		rjmp .L16
 211               	/* epilogue: frame size=130 */
 212 0142 CE57      		subi r28,lo8(-130)
 213 0144 DF4F      		sbci r29,hi8(-130)
 214 0146 0FB6      		in __tmp_reg__,__SREG__
 215 0148 F894      		cli
 216 014a DEBF      		out __SP_H__,r29
 217 014c 0FBE      		out __SREG__,__tmp_reg__
 218 014e CDBF      		out __SP_L__,r28
 219 0150 DF91      		pop r29
 220 0152 CF91      		pop r28
 221 0154 1F91      		pop r17
 222 0156 0F91      		pop r16
 223 0158 FF90      		pop r15
 224 015a EF90      		pop r14
 225 015c DF90      		pop r13
 226 015e CF90      		pop r12
 227 0160 BF90      		pop r11
 228 0162 AF90      		pop r10
GAS LISTING C:\DOCUME~1\Arlind\LOCALS~1\Temp/ccsEmWg5.s 			page 5


 229 0164 0895      		ret
 230               	/* epilogue end (size=18) */
 231               	/* function PPP_AsyncMapOut size 129 (92) */
 232               		.size	PPP_AsyncMapOut, .-PPP_AsyncMapOut
 233               	.global	NutPppRead
 234               		.type	NutPppRead, @function
 235               	NutPppRead:
 236               	/* prologue: frame size=0 */
 237 0166 CF93      		push r28
 238 0168 DF93      		push r29
 239               	/* prologue end (size=2) */
 240 016a EC01      		movw r28,r24
 241 016c EA81      		ldd r30,Y+2
 242 016e FB81      		ldd r31,Y+3
 243 0170 0188      		ldd __tmp_reg__,Z+17
 244 0172 F289      		ldd r31,Z+18
 245 0174 E02D      		mov r30,__tmp_reg__
 246 0176 FF96      		adiw r30,63
 247 0178 8081      		ld r24,Z
 248 017a 9181      		ldd r25,Z+1
 249 017c 0E94 0000 		call _read
 250               	/* epilogue: frame size=0 */
 251 0180 DF91      		pop r29
 252 0182 CF91      		pop r28
 253 0184 0895      		ret
 254               	/* epilogue end (size=3) */
 255               	/* function NutPppRead size 16 (11) */
 256               		.size	NutPppRead, .-NutPppRead
 257               		.data
 258               	.LC0:
 259 0000 6168 646C 		.string	"ahdlcrx"
 259      6372 7800 
 260               		.text
 261               	.global	NutPppEnable
 262               		.type	NutPppEnable, @function
 263               	NutPppEnable:
 264               	/* prologue: frame size=0 */
 265 0186 CF93      		push r28
 266 0188 DF93      		push r29
 267               	/* prologue end (size=2) */
 268 018a EC01      		movw r28,r24
 269 018c 1092 0000 		sts ppp_hackup,__zero_reg__
 270 0190 80E0      		ldi r24,lo8(.LC0)
 271 0192 90E0      		ldi r25,hi8(.LC0)
 272 0194 0E94 0000 		call GetThreadByName
 273 0198 892B      		or r24,r25
 274 019a 01F4      		brne .L39
 275 019c 20E0      		ldi r18,lo8(512)
 276 019e 32E0      		ldi r19,hi8(512)
 277 01a0 AE01      		movw r20,r28
 278 01a2 60E0      		ldi r22,lo8(gs(PPPRx))
 279 01a4 70E0      		ldi r23,hi8(gs(PPPRx))
 280 01a6 80E0      		ldi r24,lo8(.LC0)
 281 01a8 90E0      		ldi r25,hi8(.LC0)
 282 01aa 0E94 0000 		call NutThreadCreate
 283               	.L39:
 284               	/* epilogue: frame size=0 */
GAS LISTING C:\DOCUME~1\Arlind\LOCALS~1\Temp/ccsEmWg5.s 			page 6


 285 01ae DF91      		pop r29
 286 01b0 CF91      		pop r28
 287 01b2 0895      		ret
 288               	/* epilogue end (size=3) */
 289               	/* function NutPppEnable size 23 (18) */
 290               		.size	NutPppEnable, .-NutPppEnable
 291               	.global	PPPRx
 292               		.type	PPPRx, @function
 293               	PPPRx:
 294               	/* prologue: frame size=1 */
 295 01b4 CF93      		push r28
 296 01b6 DF93      		push r29
 297 01b8 CDB7      		in r28,__SP_L__
 298 01ba DEB7      		in r29,__SP_H__
 299 01bc 2197      		sbiw r28,1
 300 01be 0FB6      		in __tmp_reg__,__SREG__
 301 01c0 F894      		cli
 302 01c2 DEBF      		out __SP_H__,r29
 303 01c4 0FBE      		out __SREG__,__tmp_reg__
 304 01c6 CDBF      		out __SP_L__,r28
 305               	/* prologue end (size=10) */
 306 01c8 6C01      		movw r12,r24
 307 01ca FC01      		movw r30,r24
 308 01cc 6188      		ldd r6,Z+17
 309 01ce 7288      		ldd r7,Z+18
 310 01d0 4784      		ldd r4,Z+15
 311 01d2 5088      		ldd r5,Z+16
 312 01d4 00C0      		rjmp .L41
 313               	.L42:
 314 01d6 68EE      		ldi r22,lo8(1000)
 315 01d8 73E0      		ldi r23,hi8(1000)
 316 01da 80E0      		ldi r24,hlo8(1000)
 317 01dc 90E0      		ldi r25,hhi8(1000)
 318 01de 0E94 0000 		call NutSleep
 319               	.L41:
 320 01e2 8CED      		ldi r24,lo8(1500)
 321 01e4 95E0      		ldi r25,hi8(1500)
 322 01e6 0E94 0000 		call NutHeapAlloc
 323 01ea 4C01      		movw r8,r24
 324 01ec 892B      		or r24,r25
 325 01ee 01F0      		breq .L42
 326 01f0 82E1      		ldi r24,lo8(18)
 327 01f2 0E94 0000 		call NutThreadSetPriority
 328 01f6 00C0      		rjmp .L81
 329               	.L45:
 330 01f8 6AEF      		ldi r22,lo8(250)
 331 01fa 70E0      		ldi r23,hi8(250)
 332 01fc 80E0      		ldi r24,hlo8(250)
 333 01fe 90E0      		ldi r25,hhi8(250)
 334 0200 0E94 0000 		call NutSleep
 335               	.L83:
 336 0204 8091 0000 		lds r24,ppp_hackup
 337 0208 8823      		tst r24
 338 020a 01F0      		breq .L45
 339 020c F601      		movw r30,r12
 340 020e 2589      		ldd r18,Z+21
 341 0210 3689      		ldd r19,Z+22
GAS LISTING C:\DOCUME~1\Arlind\LOCALS~1\Temp/ccsEmWg5.s 			page 7


 342 0212 40E0      		ldi r20,lo8(0)
 343 0214 50E0      		ldi r21,hi8(0)
 344 0216 63E0      		ldi r22,lo8(3)
 345 0218 70E0      		ldi r23,hi8(3)
 346 021a C601      		movw r24,r12
 347 021c F901      		movw r30,r18
 348 021e 1995      		eicall
 349 0220 F301      		movw r30,r6
 350 0222 FF96      		adiw r30,63
 351 0224 41E0      		ldi r20,lo8(1)
 352 0226 50E0      		ldi r21,hi8(1)
 353 0228 BE01      		movw r22,r28
 354 022a 6F5F      		subi r22,lo8(-(1))
 355 022c 7F4F      		sbci r23,hi8(-(1))
 356 022e 8081      		ld r24,Z
 357 0230 9181      		ldd r25,Z+1
 358 0232 0E94 0000 		call _read
 359 0236 892B      		or r24,r25
 360 0238 01F4      		brne .L47
 361               	.L81:
 362 023a 10E0      		ldi r17,lo8(0)
 363 023c 00C0      		rjmp .L83
 364               	.L47:
 365 023e 1123      		tst r17
 366 0240 01F4      		brne .L77
 367 0242 8981      		ldd r24,Y+1
 368 0244 8E37      		cpi r24,lo8(126)
 369 0246 01F4      		brne .L83
 370 0248 00C0      		rjmp .L77
 371               	.L51:
 372 024a F301      		movw r30,r6
 373 024c FF96      		adiw r30,63
 374 024e 41E0      		ldi r20,lo8(1)
 375 0250 50E0      		ldi r21,hi8(1)
 376 0252 BE01      		movw r22,r28
 377 0254 6F5F      		subi r22,lo8(-(1))
 378 0256 7F4F      		sbci r23,hi8(-(1))
 379 0258 8081      		ld r24,Z
 380 025a 9181      		ldd r25,Z+1
 381 025c 0E94 0000 		call _read
 382               	.L77:
 383 0260 9981      		ldd r25,Y+1
 384 0262 9E37      		cpi r25,lo8(126)
 385 0264 01F0      		breq .L51
 386 0266 00C0      		rjmp .L78
 387               	.L53:
 388 0268 9981      		ldd r25,Y+1
 389 026a 9E37      		cpi r25,lo8(126)
 390 026c 01F4      		brne .L54
 391 026e F8EB      		ldi r31,lo8(-3912)
 392 0270 EF16      		cp r14,r31
 393 0272 F0EF      		ldi r31,hi8(-3912)
 394 0274 FF06      		cpc r15,r31
 395 0276 01F0      		breq .+2
 396 0278 00C0      		rjmp .L56
 397 027a 5EEF      		ldi r21,lo8(-2)
 398 027c E52E      		mov r14,r21
GAS LISTING C:\DOCUME~1\Arlind\LOCALS~1\Temp/ccsEmWg5.s 			page 8


 399 027e 5FEF      		ldi r21,hi8(-2)
 400 0280 F52E      		mov r15,r21
 401 0282 E00E      		add r14,r16
 402 0284 F11E      		adc r15,r17
 403 0286 A701      		movw r20,r14
 404 0288 60E1      		ldi r22,lo8(16)
 405 028a 80E0      		ldi r24,lo8(0)
 406 028c 90E0      		ldi r25,hi8(0)
 407 028e 0E94 0000 		call NutNetBufAlloc
 408 0292 8C01      		movw r16,r24
 409 0294 0097      		sbiw r24,0
 410 0296 01F4      		brne .+2
 411 0298 00C0      		rjmp .L56
 412 029a A701      		movw r20,r14
 413 029c B401      		movw r22,r8
 414 029e FC01      		movw r30,r24
 415 02a0 8381      		ldd r24,Z+3
 416 02a2 9481      		ldd r25,Z+4
 417 02a4 0E94 0000 		call memcpy
 418 02a8 F201      		movw r30,r4
 419 02aa 238D      		ldd r18,Z+27
 420 02ac 348D      		ldd r19,Z+28
 421 02ae B801      		movw r22,r16
 422 02b0 C601      		movw r24,r12
 423 02b2 F901      		movw r30,r18
 424 02b4 1995      		eicall
 425 02b6 00C0      		rjmp .L56
 426               	.L78:
 427 02b8 00E0      		ldi r16,lo8(0)
 428 02ba 10E0      		ldi r17,hi8(0)
 429 02bc 4FEF      		ldi r20,lo8(-1)
 430 02be E42E      		mov r14,r20
 431 02c0 F42E      		mov r15,r20
 432 02c2 BB24      		clr r11
 433               	.L54:
 434 02c4 9D37      		cpi r25,lo8(125)
 435 02c6 01F4      		brne .L60
 436 02c8 0150      		subi r16,lo8(-(-1))
 437 02ca 1040      		sbci r17,hi8(-(-1))
 438 02cc 31E0      		ldi r19,lo8(1)
 439 02ce B32E      		mov r11,r19
 440 02d0 00C0      		rjmp .L73
 441               	.L60:
 442 02d2 F401      		movw r30,r8
 443 02d4 E00F      		add r30,r16
 444 02d6 F11F      		adc r31,r17
 445 02d8 9083      		st Z,r25
 446 02da BB20      		tst r11
 447 02dc 01F0      		breq .L63
 448 02de 80E2      		ldi r24,lo8(32)
 449 02e0 9827      		eor r25,r24
 450 02e2 9083      		st Z,r25
 451               	.L63:
 452 02e4 8081      		ld r24,Z
 453 02e6 9927      		clr r25
 454 02e8 8E25      		eor r24,r14
 455 02ea 9F25      		eor r25,r15
GAS LISTING C:\DOCUME~1\Arlind\LOCALS~1\Temp/ccsEmWg5.s 			page 9


 456 02ec 0E94 0000 		call PPP_Calc_CRC
 457 02f0 EF2C      		mov r14,r15
 458 02f2 FF24      		clr r15
 459 02f4 E826      		eor r14,r24
 460 02f6 F926      		eor r15,r25
 461 02f8 BB24      		clr r11
 462               	.L73:
 463 02fa 8091 0000 		lds r24,ppp_hackup
 464 02fe 8823      		tst r24
 465 0300 01F0      		breq .L65
 466 0302 F301      		movw r30,r6
 467 0304 FF96      		adiw r30,63
 468 0306 41E0      		ldi r20,lo8(1)
 469 0308 50E0      		ldi r21,hi8(1)
 470 030a BE01      		movw r22,r28
 471 030c 6F5F      		subi r22,lo8(-(1))
 472 030e 7F4F      		sbci r23,hi8(-(1))
 473 0310 8081      		ld r24,Z
 474 0312 9181      		ldd r25,Z+1
 475 0314 0E94 0000 		call _read
 476 0318 892B      		or r24,r25
 477 031a 01F0      		breq .L73
 478               	.L65:
 479 031c 0F5F      		subi r16,lo8(-(1))
 480 031e 1F4F      		sbci r17,hi8(-(1))
 481 0320 F5E0      		ldi r31,hi8(1500)
 482 0322 0C3D      		cpi r16,lo8(1500)
 483 0324 1F07      		cpc r17,r31
 484 0326 04F4      		brge .+2
 485 0328 00C0      		rjmp .L53
 486               	.L56:
 487 032a 8091 0000 		lds r24,ppp_hackup
 488 032e 8823      		tst r24
 489 0330 01F4      		brne .L82
 490 0332 F601      		movw r30,r12
 491 0334 2589      		ldd r18,Z+21
 492 0336 3689      		ldd r19,Z+22
 493 0338 40E0      		ldi r20,lo8(0)
 494 033a 50E0      		ldi r21,hi8(0)
 495 033c 64E0      		ldi r22,lo8(4)
 496 033e 70E0      		ldi r23,hi8(4)
 497 0340 C601      		movw r24,r12
 498 0342 F901      		movw r30,r18
 499 0344 1995      		eicall
 500               	.L82:
 501 0346 11E0      		ldi r17,lo8(1)
 502 0348 00C0      		rjmp .L83
 503               	/* epilogue: frame size=1 */
 504               	/* epilogue: noreturn */
 505               	/* epilogue end (size=0) */
 506               	/* function PPPRx size 203 (193) */
 507               		.size	PPPRx, .-PPPRx
 508               	.global	PPPPutPacket
 509               		.type	PPPPutPacket, @function
 510               	PPPPutPacket:
 511               	/* prologue: frame size=3 */
 512 034a AF92      		push r10
GAS LISTING C:\DOCUME~1\Arlind\LOCALS~1\Temp/ccsEmWg5.s 			page 10


 513 034c BF92      		push r11
 514 034e CF92      		push r12
 515 0350 DF92      		push r13
 516 0352 EF92      		push r14
 517 0354 FF92      		push r15
 518 0356 0F93      		push r16
 519 0358 1F93      		push r17
 520 035a CF93      		push r28
 521 035c DF93      		push r29
 522 035e CDB7      		in r28,__SP_L__
 523 0360 DEB7      		in r29,__SP_H__
 524 0362 2397      		sbiw r28,3
 525 0364 0FB6      		in __tmp_reg__,__SREG__
 526 0366 F894      		cli
 527 0368 DEBF      		out __SP_H__,r29
 528 036a 0FBE      		out __SREG__,__tmp_reg__
 529 036c CDBF      		out __SP_L__,r28
 530               	/* prologue end (size=18) */
 531 036e 6B01      		movw r12,r22
 532 0370 2EE7      		ldi r18,lo8(126)
 533 0372 2983      		std Y+1,r18
 534 0374 FC01      		movw r30,r24
 535 0376 A188      		ldd r10,Z+17
 536 0378 B288      		ldd r11,Z+18
 537 037a 8091 0000 		lds r24,ppp_tx_bsy
 538 037e 8130      		cpi r24,lo8(1)
 539 0380 01F4      		brne .L85
 540 0382 40E0      		ldi r20,lo8(0)
 541 0384 50E0      		ldi r21,hi8(0)
 542 0386 60E0      		ldi r22,hlo8(0)
 543 0388 70E0      		ldi r23,hhi8(0)
 544 038a 80E0      		ldi r24,lo8(ppp_tx_rdy)
 545 038c 90E0      		ldi r25,hi8(ppp_tx_rdy)
 546 038e 0E94 0000 		call NutEventWait
 547               	.L85:
 548 0392 81E0      		ldi r24,lo8(1)
 549 0394 8093 0000 		sts ppp_tx_bsy,r24
 550 0398 F601      		movw r30,r12
 551 039a 4581      		ldd r20,Z+5
 552 039c 5681      		ldd r21,Z+6
 553 039e 8185      		ldd r24,Z+9
 554 03a0 9285      		ldd r25,Z+10
 555 03a2 480F      		add r20,r24
 556 03a4 591F      		adc r21,r25
 557 03a6 8189      		ldd r24,Z+17
 558 03a8 9289      		ldd r25,Z+18
 559 03aa 2585      		ldd r18,Z+13
 560 03ac 3685      		ldd r19,Z+14
 561 03ae 820F      		add r24,r18
 562 03b0 931F      		adc r25,r19
 563 03b2 480F      		add r20,r24
 564 03b4 591F      		adc r21,r25
 565 03b6 F501      		movw r30,r10
 566 03b8 8681      		ldd r24,Z+6
 567 03ba 9781      		ldd r25,Z+7
 568 03bc 4817      		cp r20,r24
 569 03be 5907      		cpc r21,r25
GAS LISTING C:\DOCUME~1\Arlind\LOCALS~1\Temp/ccsEmWg5.s 			page 11


 570 03c0 00F0      		brlo .L87
 571 03c2 C601      		movw r24,r12
 572 03c4 0E94 0000 		call NutNetBufFree
 573 03c8 8FEF      		ldi r24,lo8(-1)
 574 03ca 9FEF      		ldi r25,hi8(-1)
 575 03cc 00C0      		rjmp .L89
 576               	.L87:
 577 03ce 8FEF      		ldi r24,lo8(-1)
 578 03d0 9FEF      		ldi r25,hi8(-1)
 579 03d2 9B83      		std Y+3,r25
 580 03d4 8A83      		std Y+2,r24
 581 03d6 00E0      		ldi r16,lo8(0)
 582 03d8 10E0      		ldi r17,hi8(0)
 583 03da F601      		movw r30,r12
 584 03dc E380      		ldd r14,Z+3
 585 03de F480      		ldd r15,Z+4
 586 03e0 00C0      		rjmp .L90
 587               	.L91:
 588 03e2 F701      		movw r30,r14
 589 03e4 8191      		ld r24,Z+
 590 03e6 7F01      		movw r14,r30
 591 03e8 9927      		clr r25
 592 03ea 2A81      		ldd r18,Y+2
 593 03ec 3B81      		ldd r19,Y+3
 594 03ee 8227      		eor r24,r18
 595 03f0 9327      		eor r25,r19
 596 03f2 0E94 0000 		call PPP_Calc_CRC
 597 03f6 2A81      		ldd r18,Y+2
 598 03f8 3B81      		ldd r19,Y+3
 599 03fa 232F      		mov r18,r19
 600 03fc 3327      		clr r19
 601 03fe 2827      		eor r18,r24
 602 0400 3927      		eor r19,r25
 603 0402 3B83      		std Y+3,r19
 604 0404 2A83      		std Y+2,r18
 605 0406 0F5F      		subi r16,lo8(-(1))
 606 0408 1F4F      		sbci r17,hi8(-(1))
 607               	.L90:
 608 040a F601      		movw r30,r12
 609 040c 8581      		ldd r24,Z+5
 610 040e 9681      		ldd r25,Z+6
 611 0410 0817      		cp r16,r24
 612 0412 1907      		cpc r17,r25
 613 0414 00F0      		brlo .L91
 614 0416 00E0      		ldi r16,lo8(0)
 615 0418 10E0      		ldi r17,hi8(0)
 616 041a E780      		ldd r14,Z+7
 617 041c F084      		ldd r15,Z+8
 618 041e 00C0      		rjmp .L93
 619               	.L94:
 620 0420 F701      		movw r30,r14
 621 0422 8191      		ld r24,Z+
 622 0424 7F01      		movw r14,r30
 623 0426 9927      		clr r25
 624 0428 2A81      		ldd r18,Y+2
 625 042a 3B81      		ldd r19,Y+3
 626 042c 8227      		eor r24,r18
GAS LISTING C:\DOCUME~1\Arlind\LOCALS~1\Temp/ccsEmWg5.s 			page 12


 627 042e 9327      		eor r25,r19
 628 0430 0E94 0000 		call PPP_Calc_CRC
 629 0434 2A81      		ldd r18,Y+2
 630 0436 3B81      		ldd r19,Y+3
 631 0438 232F      		mov r18,r19
 632 043a 3327      		clr r19
 633 043c 2827      		eor r18,r24
 634 043e 3927      		eor r19,r25
 635 0440 3B83      		std Y+3,r19
 636 0442 2A83      		std Y+2,r18
 637 0444 0F5F      		subi r16,lo8(-(1))
 638 0446 1F4F      		sbci r17,hi8(-(1))
 639               	.L93:
 640 0448 F601      		movw r30,r12
 641 044a 8185      		ldd r24,Z+9
 642 044c 9285      		ldd r25,Z+10
 643 044e 0817      		cp r16,r24
 644 0450 1907      		cpc r17,r25
 645 0452 00F0      		brlo .L94
 646 0454 00E0      		ldi r16,lo8(0)
 647 0456 10E0      		ldi r17,hi8(0)
 648 0458 E384      		ldd r14,Z+11
 649 045a F484      		ldd r15,Z+12
 650 045c 00C0      		rjmp .L96
 651               	.L97:
 652 045e F701      		movw r30,r14
 653 0460 8191      		ld r24,Z+
 654 0462 7F01      		movw r14,r30
 655 0464 9927      		clr r25
 656 0466 2A81      		ldd r18,Y+2
 657 0468 3B81      		ldd r19,Y+3
 658 046a 8227      		eor r24,r18
 659 046c 9327      		eor r25,r19
 660 046e 0E94 0000 		call PPP_Calc_CRC
 661 0472 2A81      		ldd r18,Y+2
 662 0474 3B81      		ldd r19,Y+3
 663 0476 232F      		mov r18,r19
 664 0478 3327      		clr r19
 665 047a 2827      		eor r18,r24
 666 047c 3927      		eor r19,r25
 667 047e 3B83      		std Y+3,r19
 668 0480 2A83      		std Y+2,r18
 669 0482 0F5F      		subi r16,lo8(-(1))
 670 0484 1F4F      		sbci r17,hi8(-(1))
 671               	.L96:
 672 0486 F601      		movw r30,r12
 673 0488 8585      		ldd r24,Z+13
 674 048a 9685      		ldd r25,Z+14
 675 048c 0817      		cp r16,r24
 676 048e 1907      		cpc r17,r25
 677 0490 00F0      		brlo .L97
 678 0492 00E0      		ldi r16,lo8(0)
 679 0494 10E0      		ldi r17,hi8(0)
 680 0496 E784      		ldd r14,Z+15
 681 0498 F088      		ldd r15,Z+16
 682 049a 00C0      		rjmp .L99
 683               	.L100:
GAS LISTING C:\DOCUME~1\Arlind\LOCALS~1\Temp/ccsEmWg5.s 			page 13


 684 049c F701      		movw r30,r14
 685 049e 8191      		ld r24,Z+
 686 04a0 7F01      		movw r14,r30
 687 04a2 9927      		clr r25
 688 04a4 2A81      		ldd r18,Y+2
 689 04a6 3B81      		ldd r19,Y+3
 690 04a8 8227      		eor r24,r18
 691 04aa 9327      		eor r25,r19
 692 04ac 0E94 0000 		call PPP_Calc_CRC
 693 04b0 2A81      		ldd r18,Y+2
 694 04b2 3B81      		ldd r19,Y+3
 695 04b4 232F      		mov r18,r19
 696 04b6 3327      		clr r19
 697 04b8 2827      		eor r18,r24
 698 04ba 3927      		eor r19,r25
 699 04bc 3B83      		std Y+3,r19
 700 04be 2A83      		std Y+2,r18
 701 04c0 0F5F      		subi r16,lo8(-(1))
 702 04c2 1F4F      		sbci r17,hi8(-(1))
 703               	.L99:
 704 04c4 F601      		movw r30,r12
 705 04c6 8189      		ldd r24,Z+17
 706 04c8 9289      		ldd r25,Z+18
 707 04ca 0817      		cp r16,r24
 708 04cc 1907      		cpc r17,r25
 709 04ce 00F0      		brlo .L100
 710 04d0 8501      		movw r16,r10
 711 04d2 015C      		subi r16,lo8(-(63))
 712 04d4 1F4F      		sbci r17,hi8(-(63))
 713 04d6 41E0      		ldi r20,lo8(1)
 714 04d8 50E0      		ldi r21,hi8(1)
 715 04da 7E01      		movw r14,r28
 716 04dc 0894      		sec
 717 04de E11C      		adc r14,__zero_reg__
 718 04e0 F11C      		adc r15,__zero_reg__
 719 04e2 B701      		movw r22,r14
 720 04e4 F801      		movw r30,r16
 721 04e6 8081      		ld r24,Z
 722 04e8 9181      		ldd r25,Z+1
 723 04ea 0E94 0000 		call _write
 724 04ee F601      		movw r30,r12
 725 04f0 4581      		ldd r20,Z+5
 726 04f2 5681      		ldd r21,Z+6
 727 04f4 6381      		ldd r22,Z+3
 728 04f6 7481      		ldd r23,Z+4
 729 04f8 F801      		movw r30,r16
 730 04fa 8081      		ld r24,Z
 731 04fc 9181      		ldd r25,Z+1
 732 04fe 0E94 0000 		call PPP_AsyncMapOut
 733 0502 F601      		movw r30,r12
 734 0504 4185      		ldd r20,Z+9
 735 0506 5285      		ldd r21,Z+10
 736 0508 6781      		ldd r22,Z+7
 737 050a 7085      		ldd r23,Z+8
 738 050c F801      		movw r30,r16
 739 050e 8081      		ld r24,Z
 740 0510 9181      		ldd r25,Z+1
GAS LISTING C:\DOCUME~1\Arlind\LOCALS~1\Temp/ccsEmWg5.s 			page 14


 741 0512 0E94 0000 		call PPP_AsyncMapOut
 742 0516 F601      		movw r30,r12
 743 0518 4585      		ldd r20,Z+13
 744 051a 5685      		ldd r21,Z+14
 745 051c 6385      		ldd r22,Z+11
 746 051e 7485      		ldd r23,Z+12
 747 0520 F801      		movw r30,r16
 748 0522 8081      		ld r24,Z
 749 0524 9181      		ldd r25,Z+1
 750 0526 0E94 0000 		call PPP_AsyncMapOut
 751 052a F601      		movw r30,r12
 752 052c 4189      		ldd r20,Z+17
 753 052e 5289      		ldd r21,Z+18
 754 0530 6785      		ldd r22,Z+15
 755 0532 7089      		ldd r23,Z+16
 756 0534 F801      		movw r30,r16
 757 0536 8081      		ld r24,Z
 758 0538 9181      		ldd r25,Z+1
 759 053a 0E94 0000 		call PPP_AsyncMapOut
 760 053e 8A81      		ldd r24,Y+2
 761 0540 9B81      		ldd r25,Y+3
 762 0542 8095      		com r24
 763 0544 9095      		com r25
 764 0546 9B83      		std Y+3,r25
 765 0548 8A83      		std Y+2,r24
 766 054a 42E0      		ldi r20,lo8(2)
 767 054c 50E0      		ldi r21,hi8(2)
 768 054e BE01      		movw r22,r28
 769 0550 6E5F      		subi r22,lo8(-(2))
 770 0552 7F4F      		sbci r23,hi8(-(2))
 771 0554 F801      		movw r30,r16
 772 0556 8081      		ld r24,Z
 773 0558 9181      		ldd r25,Z+1
 774 055a 0E94 0000 		call PPP_AsyncMapOut
 775 055e 41E0      		ldi r20,lo8(1)
 776 0560 50E0      		ldi r21,hi8(1)
 777 0562 B701      		movw r22,r14
 778 0564 F801      		movw r30,r16
 779 0566 8081      		ld r24,Z
 780 0568 9181      		ldd r25,Z+1
 781 056a 0E94 0000 		call _write
 782 056e 1092 0000 		sts ppp_tx_bsy,__zero_reg__
 783 0572 80E0      		ldi r24,lo8(ppp_tx_rdy)
 784 0574 90E0      		ldi r25,hi8(ppp_tx_rdy)
 785 0576 0E94 0000 		call NutEventBroadcastAsync
 786 057a 80E0      		ldi r24,lo8(0)
 787 057c 90E0      		ldi r25,hi8(0)
 788               	.L89:
 789               	/* epilogue: frame size=3 */
 790 057e 2396      		adiw r28,3
 791 0580 0FB6      		in __tmp_reg__,__SREG__
 792 0582 F894      		cli
 793 0584 DEBF      		out __SP_H__,r29
 794 0586 0FBE      		out __SREG__,__tmp_reg__
 795 0588 CDBF      		out __SP_L__,r28
 796 058a DF91      		pop r29
 797 058c CF91      		pop r28
GAS LISTING C:\DOCUME~1\Arlind\LOCALS~1\Temp/ccsEmWg5.s 			page 15


 798 058e 1F91      		pop r17
 799 0590 0F91      		pop r16
 800 0592 FF90      		pop r15
 801 0594 EF90      		pop r14
 802 0596 DF90      		pop r13
 803 0598 CF90      		pop r12
 804 059a BF90      		pop r11
 805 059c AF90      		pop r10
 806 059e 0895      		ret
 807               	/* epilogue end (size=17) */
 808               	/* function PPPPutPacket size 299 (264) */
 809               		.size	PPPPutPacket, .-PPPPutPacket
 810               	.global	ifn_ppp
 811               		.data
 812               		.type	ifn_ppp, @object
 813               		.size	ifn_ppp, 35
 814               	ifn_ppp:
 815 0008 17        		.byte	23
 816 0009 00        		.byte	0
 817 000a 00        		.byte	0
 818 000b 00        		.byte	0
 819 000c 00        		.byte	0
 820 000d 00        		.byte	0
 821 000e 00        		.byte	0
 822 000f 00        		.byte	0
 823 0010 00        		.byte	0
 824 0011 00        		.byte	0
 825 0012 00        		.byte	0
 826 0013 00        		.byte	0
 827 0014 00        		.byte	0
 828 0015 00        		.byte	0
 829 0016 00        		.byte	0
 830 0017 00        		.byte	0
 831 0018 00        		.byte	0
 832 0019 00        		.byte	0
 833 001a 00        		.byte	0
 834 001b DC05      		.word	1500
 835 001d 0000      		.word	0
 836 001f 0000      		.word	0
 837 0021 0000      		.word	0
 838 0023 0000      		.word	gs(NutPppInput)
 839 0025 0000      		.word	0
 840 0027 0000      		.word	gs(NutPppOutput)
 841 0029 0000      		.skip 2,0
 842               	.global	devPpp
 843               		.type	devPpp, @object
 844               		.size	devPpp, 35
 845               	devPpp:
 846 002b 0000      		.word	0
 847 002d 70        		.byte	112
 848 002e 70        		.byte	112
 849 002f 70        		.byte	112
 850 0030 00        		.byte	0
 851 0031 00        		.byte	0
 852 0032 00        		.byte	0
 853 0033 00        		.byte	0
 854 0034 00        		.byte	0
GAS LISTING C:\DOCUME~1\Arlind\LOCALS~1\Temp/ccsEmWg5.s 			page 16


 855 0035 00        		.byte	0
 856 0036 03        		.byte	3
 857 0037 0000      		.word	0
 858 0039 00        		.byte	0
 859 003a 0000      		.word	ifn_ppp
 860 003c 0000      		.word	dcb_ppp
 861 003e 0000      		.word	gs(NutPppInit)
 862 0040 0000      		.word	gs(NutPppIOCtl)
 863 0042 0000      		.word	gs(NutPppRead)
 864 0044 0000      		.word	gs(NutPppWrite)
 865 0046 0000      		.word	gs(NutPppWrite_P)
 866 0048 0000      		.word	gs(NutPppOpen)
 867 004a 0000      		.word	gs(NutPppClose)
 868 004c 0000      		.word	0
 869               		.lcomm ppp_tx_bsy,1
 870               		.lcomm ppp_tx_rdy,2
 871               		.lcomm dcb_ppp,65
 872               	/* File "C:/ethernut-4.3.3/nut/dev/ppp.c": code  720 = 0x02d0 ( 617), prologues  55, epilogues  48 
GAS LISTING C:\DOCUME~1\Arlind\LOCALS~1\Temp/ccsEmWg5.s 			page 17


DEFINED SYMBOLS
                            *ABS*:00000000 ppp.c
C:\DOCUME~1\Arlind\LOCALS~1\Temp/ccsEmWg5.s:3      *ABS*:0000003f __SREG__
C:\DOCUME~1\Arlind\LOCALS~1\Temp/ccsEmWg5.s:4      *ABS*:0000003e __SP_H__
C:\DOCUME~1\Arlind\LOCALS~1\Temp/ccsEmWg5.s:5      *ABS*:0000003d __SP_L__
C:\DOCUME~1\Arlind\LOCALS~1\Temp/ccsEmWg5.s:6      *ABS*:00000000 __tmp_reg__
C:\DOCUME~1\Arlind\LOCALS~1\Temp/ccsEmWg5.s:7      *ABS*:00000001 __zero_reg__
C:\DOCUME~1\Arlind\LOCALS~1\Temp/ccsEmWg5.s:12     .text:00000000 PPP_Calc_CRC
C:\DOCUME~1\Arlind\LOCALS~1\Temp/ccsEmWg5.s:41     .text:00000024 NutPppWrite_P
C:\DOCUME~1\Arlind\LOCALS~1\Temp/ccsEmWg5.s:64     .text:00000044 NutPppWrite
C:\DOCUME~1\Arlind\LOCALS~1\Temp/ccsEmWg5.s:87     .text:00000064 PPP_AsyncMapOut
C:\DOCUME~1\Arlind\LOCALS~1\Temp/ccsEmWg5.s:235    .text:00000166 NutPppRead
C:\DOCUME~1\Arlind\LOCALS~1\Temp/ccsEmWg5.s:263    .text:00000186 NutPppEnable
C:\DOCUME~1\Arlind\LOCALS~1\Temp/ccsEmWg5.s:293    .text:000001b4 PPPRx
C:\DOCUME~1\Arlind\LOCALS~1\Temp/ccsEmWg5.s:510    .text:0000034a PPPPutPacket
                             .bss:00000000 ppp_tx_bsy
C:\DOCUME~1\Arlind\LOCALS~1\Temp/ccsEmWg5.s:869    .bss:00000001 ppp_tx_rdy
C:\DOCUME~1\Arlind\LOCALS~1\Temp/ccsEmWg5.s:814    .data:00000008 ifn_ppp
C:\DOCUME~1\Arlind\LOCALS~1\Temp/ccsEmWg5.s:845    .data:0000002b devPpp
C:\DOCUME~1\Arlind\LOCALS~1\Temp/ccsEmWg5.s:870    .bss:00000003 dcb_ppp

UNDEFINED SYMBOLS
__do_copy_data
__do_clear_bss
_write_P
_write
_read
ppp_hackup
GetThreadByName
NutThreadCreate
NutSleep
NutHeapAlloc
NutThreadSetPriority
NutNetBufAlloc
memcpy
NutEventWait
NutNetBufFree
NutEventBroadcastAsync
NutPppInput
NutPppOutput
NutPppInit
NutPppIOCtl
NutPppOpen
NutPppClose
