GAS LISTING C:\DOCUME~1\Arlind\LOCALS~1\Temp/ccHqNBKP.s 			page 1


   1               		.file	"fread.c"
   2               		.arch atmega2561
   3               	__SREG__ = 0x3f
   4               	__SP_H__ = 0x3e
   5               	__SP_L__ = 0x3d
   6               	__tmp_reg__ = 0
   7               	__zero_reg__ = 1
   8               		.global __do_copy_data
   9               		.global __do_clear_bss
  10               		.text
  11               	.global	fread
  12               		.type	fread, @function
  13               	fread:
  14               	/* prologue: frame size=0 */
  15 0000 EF92      		push r14
  16 0002 FF92      		push r15
  17 0004 0F93      		push r16
  18 0006 1F93      		push r17
  19 0008 CF93      		push r28
  20 000a DF93      		push r29
  21               	/* prologue end (size=6) */
  22 000c FC01      		movw r30,r24
  23 000e 8B01      		movw r16,r22
  24 0010 E901      		movw r28,r18
  25 0012 6230      		cpi r22,2
  26 0014 7105      		cpc r23,__zero_reg__
  27 0016 00F0      		brlo .L2
  28 0018 CA01      		movw r24,r20
  29 001a 869F      		mul r24,r22
  30 001c A001      		movw r20,r0
  31 001e 879F      		mul r24,r23
  32 0020 500D      		add r21,r0
  33 0022 969F      		mul r25,r22
  34 0024 500D      		add r21,r0
  35 0026 1124      		clr r1
  36               	.L2:
  37 0028 8C81      		ldd r24,Y+4
  38 002a 83FD      		sbrc r24,3
  39 002c 00C0      		rjmp .L4
  40 002e EE24      		clr r14
  41 0030 FF24      		clr r15
  42 0032 00C0      		rjmp .L6
  43               	.L4:
  44 0034 877F      		andi r24,lo8(-9)
  45 0036 8C83      		std Y+4,r24
  46 0038 8D81      		ldd r24,Y+5
  47 003a 8193      		st Z+,r24
  48 003c 4150      		subi r20,lo8(-(-1))
  49 003e 5040      		sbci r21,hi8(-(-1))
  50 0040 81E0      		ldi r24,lo8(1)
  51 0042 E82E      		mov r14,r24
  52 0044 F12C      		mov r15,__zero_reg__
  53               	.L6:
  54 0046 BF01      		movw r22,r30
  55 0048 8881      		ld r24,Y
  56 004a 9981      		ldd r25,Y+1
  57 004c 0E94 0000 		call _read
GAS LISTING C:\DOCUME~1\Arlind\LOCALS~1\Temp/ccHqNBKP.s 			page 2


  58 0050 BC01      		movw r22,r24
  59 0052 892B      		or r24,r25
  60 0054 01F4      		brne .L7
  61 0056 8C81      		ldd r24,Y+4
  62 0058 8062      		ori r24,lo8(32)
  63 005a 8C83      		std Y+4,r24
  64 005c 00C0      		rjmp .L9
  65               	.L7:
  66 005e 9FEF      		ldi r25,hi8(-1)
  67 0060 6F3F      		cpi r22,lo8(-1)
  68 0062 7907      		cpc r23,r25
  69 0064 01F4      		brne .L9
  70 0066 8C81      		ldd r24,Y+4
  71 0068 8061      		ori r24,lo8(16)
  72 006a 8C83      		std Y+4,r24
  73 006c 60E0      		ldi r22,lo8(0)
  74 006e 70E0      		ldi r23,hi8(0)
  75               	.L9:
  76 0070 6E0D      		add r22,r14
  77 0072 7F1D      		adc r23,r15
  78 0074 0230      		cpi r16,2
  79 0076 1105      		cpc r17,__zero_reg__
  80 0078 00F0      		brlo .L11
  81 007a CB01      		movw r24,r22
  82 007c B801      		movw r22,r16
  83 007e 0E94 0000 		call __udivmodhi4
  84               	.L11:
  85 0082 CB01      		movw r24,r22
  86               	/* epilogue: frame size=0 */
  87 0084 DF91      		pop r29
  88 0086 CF91      		pop r28
  89 0088 1F91      		pop r17
  90 008a 0F91      		pop r16
  91 008c FF90      		pop r15
  92 008e EF90      		pop r14
  93 0090 0895      		ret
  94               	/* epilogue end (size=7) */
  95               	/* function fread size 73 (60) */
  96               		.size	fread, .-fread
  97               	/* File "C:/ethernut-4.3.3/nut/crt/fread.c": code   73 = 0x0049 (  60), prologues   6, epilogues   
GAS LISTING C:\DOCUME~1\Arlind\LOCALS~1\Temp/ccHqNBKP.s 			page 3


DEFINED SYMBOLS
                            *ABS*:00000000 fread.c
C:\DOCUME~1\Arlind\LOCALS~1\Temp/ccHqNBKP.s:3      *ABS*:0000003f __SREG__
C:\DOCUME~1\Arlind\LOCALS~1\Temp/ccHqNBKP.s:4      *ABS*:0000003e __SP_H__
C:\DOCUME~1\Arlind\LOCALS~1\Temp/ccHqNBKP.s:5      *ABS*:0000003d __SP_L__
C:\DOCUME~1\Arlind\LOCALS~1\Temp/ccHqNBKP.s:6      *ABS*:00000000 __tmp_reg__
C:\DOCUME~1\Arlind\LOCALS~1\Temp/ccHqNBKP.s:7      *ABS*:00000001 __zero_reg__
C:\DOCUME~1\Arlind\LOCALS~1\Temp/ccHqNBKP.s:13     .text:00000000 fread

UNDEFINED SYMBOLS
__do_copy_data
__do_clear_bss
_read
__udivmodhi4
