GAS LISTING C:\Users\Bart\AppData\Local\Temp/cc2ZdzV0.s 			page 1


   1               		.file	"icmpout.c"
   2               		.arch atmega2561
   3               	__SREG__ = 0x3f
   4               	__SP_H__ = 0x3e
   5               	__SP_L__ = 0x3d
   6               	__tmp_reg__ = 0
   7               	__zero_reg__ = 1
   8               		.global __do_copy_data
   9               		.global __do_clear_bss
  10               		.text
  11               	.global	NutIcmpOutput
  12               		.type	NutIcmpOutput, @function
  13               	NutIcmpOutput:
  14               	/* prologue: frame size=0 */
  15 0000 AF92      		push r10
  16 0002 BF92      		push r11
  17 0004 CF92      		push r12
  18 0006 DF92      		push r13
  19 0008 EF92      		push r14
  20 000a FF92      		push r15
  21 000c 0F93      		push r16
  22 000e 1F93      		push r17
  23               	/* prologue end (size=8) */
  24 0010 5A01      		movw r10,r20
  25 0012 6B01      		movw r12,r22
  26 0014 8901      		movw r16,r18
  27 0016 F901      		movw r30,r18
  28 0018 E384      		ldd r14,Z+11
  29 001a F484      		ldd r15,Z+12
  30 001c F701      		movw r30,r14
  31 001e 8083      		st Z,r24
  32 0020 1382      		std Z+3,__zero_reg__
  33 0022 1282      		std Z+2,__zero_reg__
  34 0024 F901      		movw r30,r18
  35 0026 4585      		ldd r20,Z+13
  36 0028 5685      		ldd r21,Z+14
  37 002a 6385      		ldd r22,Z+11
  38 002c 7485      		ldd r23,Z+12
  39 002e 80E0      		ldi r24,lo8(0)
  40 0030 90E0      		ldi r25,hi8(0)
  41 0032 0E94 0000 		call NutIpChkSumPartial
  42 0036 F801      		movw r30,r16
  43 0038 4189      		ldd r20,Z+17
  44 003a 5289      		ldd r21,Z+18
  45 003c 6785      		ldd r22,Z+15
  46 003e 7089      		ldd r23,Z+16
  47 0040 0E94 0000 		call NutIpChkSum
  48 0044 F701      		movw r30,r14
  49 0046 9383      		std Z+3,r25
  50 0048 8283      		std Z+2,r24
  51 004a 9801      		movw r18,r16
  52 004c B601      		movw r22,r12
  53 004e A501      		movw r20,r10
  54 0050 81E0      		ldi r24,lo8(1)
  55 0052 0E94 0000 		call NutIpOutput
  56               	/* epilogue: frame size=0 */
  57 0056 1F91      		pop r17
GAS LISTING C:\Users\Bart\AppData\Local\Temp/cc2ZdzV0.s 			page 2


  58 0058 0F91      		pop r16
  59 005a FF90      		pop r15
  60 005c EF90      		pop r14
  61 005e DF90      		pop r13
  62 0060 CF90      		pop r12
  63 0062 BF90      		pop r11
  64 0064 AF90      		pop r10
  65 0066 0895      		ret
  66               	/* epilogue end (size=9) */
  67               	/* function NutIcmpOutput size 52 (35) */
  68               		.size	NutIcmpOutput, .-NutIcmpOutput
  69               	.global	NutIcmpReply
  70               		.type	NutIcmpReply, @function
  71               	NutIcmpReply:
  72               	/* prologue: frame size=0 */
  73 0068 6F92      		push r6
  74 006a 7F92      		push r7
  75 006c 8F92      		push r8
  76 006e 9F92      		push r9
  77 0070 AF92      		push r10
  78 0072 BF92      		push r11
  79 0074 CF92      		push r12
  80 0076 DF92      		push r13
  81 0078 EF92      		push r14
  82 007a FF92      		push r15
  83 007c 0F93      		push r16
  84 007e 1F93      		push r17
  85 0080 CF93      		push r28
  86 0082 DF93      		push r29
  87               	/* prologue end (size=14) */
  88 0084 682E      		mov r6,r24
  89 0086 762E      		mov r7,r22
  90 0088 4901      		movw r8,r18
  91 008a 5A01      		movw r10,r20
  92 008c C601      		movw r24,r12
  93 008e 48E0      		ldi r20,lo8(8)
  94 0090 50E0      		ldi r21,hi8(8)
  95 0092 60E4      		ldi r22,lo8(64)
  96 0094 0E94 0000 		call NutNetBufAlloc
  97 0098 0097      		sbiw r24,0
  98 009a 01F4      		brne .L4
  99 009c 8FEF      		ldi r24,lo8(-1)
 100 009e 9FEF      		ldi r25,hi8(-1)
 101 00a0 00C0      		rjmp .L6
 102               	.L4:
 103 00a2 EC01      		movw r28,r24
 104 00a4 EB85      		ldd r30,Y+11
 105 00a6 FC85      		ldd r31,Y+12
 106 00a8 7182      		std Z+1,r7
 107 00aa 8482      		std Z+4,r8
 108 00ac 9582      		std Z+5,r9
 109 00ae A682      		std Z+6,r10
 110 00b0 B782      		std Z+7,r11
 111 00b2 9C01      		movw r18,r24
 112 00b4 B801      		movw r22,r16
 113 00b6 A701      		movw r20,r14
 114 00b8 862D      		mov r24,r6
GAS LISTING C:\Users\Bart\AppData\Local\Temp/cc2ZdzV0.s 			page 3


 115 00ba 0E94 0000 		call NutIcmpOutput
 116               	.L6:
 117               	/* epilogue: frame size=0 */
 118 00be DF91      		pop r29
 119 00c0 CF91      		pop r28
 120 00c2 1F91      		pop r17
 121 00c4 0F91      		pop r16
 122 00c6 FF90      		pop r15
 123 00c8 EF90      		pop r14
 124 00ca DF90      		pop r13
 125 00cc CF90      		pop r12
 126 00ce BF90      		pop r11
 127 00d0 AF90      		pop r10
 128 00d2 9F90      		pop r9
 129 00d4 8F90      		pop r8
 130 00d6 7F90      		pop r7
 131 00d8 6F90      		pop r6
 132 00da 0895      		ret
 133               	/* epilogue end (size=15) */
 134               	/* function NutIcmpReply size 58 (29) */
 135               		.size	NutIcmpReply, .-NutIcmpReply
 136               	.global	NutIcmpResponse
 137               		.type	NutIcmpResponse, @function
 138               	NutIcmpResponse:
 139               	/* prologue: frame size=0 */
 140 00dc 6F92      		push r6
 141 00de 7F92      		push r7
 142 00e0 8F92      		push r8
 143 00e2 9F92      		push r9
 144 00e4 AF92      		push r10
 145 00e6 BF92      		push r11
 146 00e8 CF92      		push r12
 147 00ea DF92      		push r13
 148 00ec EF92      		push r14
 149 00ee FF92      		push r15
 150 00f0 0F93      		push r16
 151 00f2 1F93      		push r17
 152 00f4 CF93      		push r28
 153 00f6 DF93      		push r29
 154               	/* prologue end (size=14) */
 155 00f8 682E      		mov r6,r24
 156 00fa 762E      		mov r7,r22
 157 00fc 4901      		movw r8,r18
 158 00fe 5A01      		movw r10,r20
 159 0100 D801      		movw r26,r16
 160 0102 E801      		movw r28,r16
 161 0104 EF81      		ldd r30,Y+7
 162 0106 F885      		ldd r31,Y+8
 163 0108 E484      		ldd r14,Z+12
 164 010a F584      		ldd r15,Z+13
 165 010c 0685      		ldd r16,Z+14
 166 010e 1785      		ldd r17,Z+15
 167 0110 4CE1      		ldi r20,lo8(28)
 168 0112 50E0      		ldi r21,hi8(28)
 169 0114 60E8      		ldi r22,lo8(-128)
 170 0116 CD01      		movw r24,r26
 171 0118 0E94 0000 		call NutNetBufAlloc
GAS LISTING C:\Users\Bart\AppData\Local\Temp/cc2ZdzV0.s 			page 4


 172 011c DC01      		movw r26,r24
 173 011e 0097      		sbiw r24,0
 174 0120 01F4      		brne .L9
 175 0122 8FEF      		ldi r24,lo8(-1)
 176 0124 9FEF      		ldi r25,hi8(-1)
 177 0126 00C0      		rjmp .L11
 178               	.L9:
 179 0128 FC01      		movw r30,r24
 180 012a C785      		ldd r28,Z+15
 181 012c D089      		ldd r29,Z+16
 182 012e 2781      		ldd r18,Z+7
 183 0130 3085      		ldd r19,Z+8
 184 0132 84E1      		ldi r24,lo8(20)
 185               	.L12:
 186 0134 F901      		movw r30,r18
 187 0136 0190      		ld r0,Z+
 188 0138 9F01      		movw r18,r30
 189 013a 0992      		st Y+,r0
 190 013c 8150      		subi r24,lo8(-(-1))
 191 013e 01F4      		brne .L12
 192 0140 ED01      		movw r28,r26
 193 0142 EF85      		ldd r30,Y+15
 194 0144 F889      		ldd r31,Y+16
 195 0146 7496      		adiw r30,20
 196 0148 2B85      		ldd r18,Y+11
 197 014a 3C85      		ldd r19,Y+12
 198 014c 88E0      		ldi r24,lo8(8)
 199               	.L13:
 200 014e E901      		movw r28,r18
 201 0150 0990      		ld r0,Y+
 202 0152 9E01      		movw r18,r28
 203 0154 0192      		st Z+,r0
 204 0156 8150      		subi r24,lo8(-(-1))
 205 0158 01F4      		brne .L13
 206 015a 6D01      		movw r12,r26
 207 015c A501      		movw r20,r10
 208 015e 9401      		movw r18,r8
 209 0160 672D      		mov r22,r7
 210 0162 862D      		mov r24,r6
 211 0164 0E94 0000 		call NutIcmpReply
 212               	.L11:
 213               	/* epilogue: frame size=0 */
 214 0168 DF91      		pop r29
 215 016a CF91      		pop r28
 216 016c 1F91      		pop r17
 217 016e 0F91      		pop r16
 218 0170 FF90      		pop r15
 219 0172 EF90      		pop r14
 220 0174 DF90      		pop r13
 221 0176 CF90      		pop r12
 222 0178 BF90      		pop r11
 223 017a AF90      		pop r10
 224 017c 9F90      		pop r9
 225 017e 8F90      		pop r8
 226 0180 7F90      		pop r7
 227 0182 6F90      		pop r6
 228 0184 0895      		ret
GAS LISTING C:\Users\Bart\AppData\Local\Temp/cc2ZdzV0.s 			page 5


 229               	/* epilogue end (size=15) */
 230               	/* function NutIcmpResponse size 87 (58) */
 231               		.size	NutIcmpResponse, .-NutIcmpResponse
 232               	/* File "D:/Git/TI-2A3-InternetMediaCenter/tools/ethernut-4.3.3/nut/net/icmpout.c": code  197 = 0x0
GAS LISTING C:\Users\Bart\AppData\Local\Temp/cc2ZdzV0.s 			page 6


DEFINED SYMBOLS
                            *ABS*:00000000 icmpout.c
C:\Users\Bart\AppData\Local\Temp/cc2ZdzV0.s:3      *ABS*:0000003f __SREG__
C:\Users\Bart\AppData\Local\Temp/cc2ZdzV0.s:4      *ABS*:0000003e __SP_H__
C:\Users\Bart\AppData\Local\Temp/cc2ZdzV0.s:5      *ABS*:0000003d __SP_L__
C:\Users\Bart\AppData\Local\Temp/cc2ZdzV0.s:6      *ABS*:00000000 __tmp_reg__
C:\Users\Bart\AppData\Local\Temp/cc2ZdzV0.s:7      *ABS*:00000001 __zero_reg__
C:\Users\Bart\AppData\Local\Temp/cc2ZdzV0.s:13     .text:00000000 NutIcmpOutput
C:\Users\Bart\AppData\Local\Temp/cc2ZdzV0.s:71     .text:00000068 NutIcmpReply
C:\Users\Bart\AppData\Local\Temp/cc2ZdzV0.s:138    .text:000000dc NutIcmpResponse

UNDEFINED SYMBOLS
__do_copy_data
__do_clear_bss
NutIpChkSumPartial
NutIpChkSum
NutIpOutput
NutNetBufAlloc
