GAS LISTING C:\Users\Bart\AppData\Local\Temp/ccqzTlV6.s 			page 1


   1               		.file	"ifconfig.c"
   2               		.arch atmega2561
   3               	__SREG__ = 0x3f
   4               	__SP_H__ = 0x3e
   5               	__SP_L__ = 0x3d
   6               	__tmp_reg__ = 0
   7               	__zero_reg__ = 1
   8               		.global __do_copy_data
   9               		.global __do_clear_bss
  10               		.data
  11               	.LC0:
  12 0000 3235 352E 		.string	"255.255.255.0"
  12      3235 352E 
  12      3235 352E 
  12      3000 
  13               		.text
  14               	.global	NutNetIfSetup
  15               		.type	NutNetIfSetup, @function
  16               	NutNetIfSetup:
  17               	/* prologue: frame size=10 */
  18 0000 2F92      		push r2
  19 0002 3F92      		push r3
  20 0004 4F92      		push r4
  21 0006 5F92      		push r5
  22 0008 6F92      		push r6
  23 000a 7F92      		push r7
  24 000c 8F92      		push r8
  25 000e 9F92      		push r9
  26 0010 AF92      		push r10
  27 0012 BF92      		push r11
  28 0014 CF92      		push r12
  29 0016 DF92      		push r13
  30 0018 EF92      		push r14
  31 001a FF92      		push r15
  32 001c 0F93      		push r16
  33 001e 1F93      		push r17
  34 0020 CF93      		push r28
  35 0022 DF93      		push r29
  36 0024 CDB7      		in r28,__SP_L__
  37 0026 DEB7      		in r29,__SP_H__
  38 0028 2A97      		sbiw r28,10
  39 002a 0FB6      		in __tmp_reg__,__SREG__
  40 002c F894      		cli
  41 002e DEBF      		out __SP_H__,r29
  42 0030 0FBE      		out __SREG__,__tmp_reg__
  43 0032 CDBF      		out __SP_L__,r28
  44               	/* prologue end (size=26) */
  45 0034 1C01      		movw r2,r24
  46 0036 2A01      		movw r4,r20
  47 0038 3B01      		movw r6,r22
  48 003a 4801      		movw r8,r16
  49 003c 5901      		movw r10,r18
  50 003e CD82      		std Y+5,r12
  51 0040 DE82      		std Y+6,r13
  52 0042 EF82      		std Y+7,r14
  53 0044 F886      		std Y+8,r15
  54 0046 FC01      		movw r30,r24
GAS LISTING C:\Users\Bart\AppData\Local\Temp/ccqzTlV6.s 			page 2


  55 0048 0784      		ldd __tmp_reg__,Z+15
  56 004a F089      		ldd r31,Z+16
  57 004c E02D      		mov r30,__tmp_reg__
  58 004e FA87      		std Y+10,r31
  59 0050 E987      		std Y+9,r30
  60 0052 4115      		cp r20,__zero_reg__
  61 0054 5105      		cpc r21,__zero_reg__
  62 0056 6105      		cpc r22,__zero_reg__
  63 0058 7105      		cpc r23,__zero_reg__
  64 005a 01F4      		brne .L2
  65 005c 4090 0000 		lds r4,confnet+16
  66 0060 5090 0000 		lds r5,(confnet+16)+1
  67 0064 6090 0000 		lds r6,(confnet+16)+2
  68 0068 7090 0000 		lds r7,(confnet+16)+3
  69 006c 4114      		cp r4,__zero_reg__
  70 006e 5104      		cpc r5,__zero_reg__
  71 0070 6104      		cpc r6,__zero_reg__
  72 0072 7104      		cpc r7,__zero_reg__
  73 0074 01F4      		brne .L2
  74 0076 8FEF      		ldi r24,lo8(-1)
  75 0078 9FEF      		ldi r25,hi8(-1)
  76 007a 00C0      		rjmp .L5
  77               	.L2:
  78 007c E985      		ldd r30,Y+9
  79 007e FA85      		ldd r31,Y+10
  80 0080 4782      		std Z+7,r4
  81 0082 5086      		std Z+8,r5
  82 0084 6186      		std Z+9,r6
  83 0086 7286      		std Z+10,r7
  84 0088 8114      		cp r8,__zero_reg__
  85 008a 9104      		cpc r9,__zero_reg__
  86 008c A104      		cpc r10,__zero_reg__
  87 008e B104      		cpc r11,__zero_reg__
  88 0090 01F4      		brne .L6
  89 0092 80E0      		ldi r24,lo8(.LC0)
  90 0094 90E0      		ldi r25,hi8(.LC0)
  91 0096 0E94 0000 		call inet_addr
  92 009a 4B01      		movw r8,r22
  93 009c 5C01      		movw r10,r24
  94               	.L6:
  95 009e E985      		ldd r30,Y+9
  96 00a0 FA85      		ldd r31,Y+10
  97 00a2 8786      		std Z+15,r8
  98 00a4 908A      		std Z+16,r9
  99 00a6 A18A      		std Z+17,r10
 100 00a8 B28A      		std Z+18,r11
 101 00aa A301      		movw r20,r6
 102 00ac 9201      		movw r18,r4
 103 00ae 2821      		and r18,r8
 104 00b0 3921      		and r19,r9
 105 00b2 4A21      		and r20,r10
 106 00b4 5B21      		and r21,r11
 107 00b6 2983      		std Y+1,r18
 108 00b8 3A83      		std Y+2,r19
 109 00ba 4B83      		std Y+3,r20
 110 00bc 5C83      		std Y+4,r21
 111 00be 6101      		movw r12,r2
GAS LISTING C:\Users\Bart\AppData\Local\Temp/ccqzTlV6.s 			page 3


 112 00c0 EE24      		clr r14
 113 00c2 FF24      		clr r15
 114 00c4 8701      		movw r16,r14
 115 00c6 A501      		movw r20,r10
 116 00c8 9401      		movw r18,r8
 117 00ca 6981      		ldd r22,Y+1
 118 00cc 7A81      		ldd r23,Y+2
 119 00ce 8B81      		ldd r24,Y+3
 120 00d0 9C81      		ldd r25,Y+4
 121 00d2 0E94 0000 		call NutIpRouteAdd
 122 00d6 8D81      		ldd r24,Y+5
 123 00d8 9E81      		ldd r25,Y+6
 124 00da AF81      		ldd r26,Y+7
 125 00dc B885      		ldd r27,Y+8
 126 00de 0097      		sbiw r24,0
 127 00e0 A105      		cpc r26,__zero_reg__
 128 00e2 B105      		cpc r27,__zero_reg__
 129 00e4 01F0      		breq .L8
 130 00e6 7C01      		movw r14,r24
 131 00e8 8D01      		movw r16,r26
 132 00ea 20E0      		ldi r18,lo8(0)
 133 00ec 30E0      		ldi r19,hi8(0)
 134 00ee 40E0      		ldi r20,hlo8(0)
 135 00f0 50E0      		ldi r21,hhi8(0)
 136 00f2 60E0      		ldi r22,lo8(0)
 137 00f4 70E0      		ldi r23,hi8(0)
 138 00f6 80E0      		ldi r24,hlo8(0)
 139 00f8 90E0      		ldi r25,hhi8(0)
 140 00fa 0E94 0000 		call NutIpRouteAdd
 141               	.L8:
 142 00fe A0E0      		ldi r26,lo8(confnet+1)
 143 0100 B0E0      		ldi r27,hi8(confnet+1)
 144 0102 F101      		movw r30,r2
 145 0104 3296      		adiw r30,2
 146 0106 89E0      		ldi r24,lo8(9)
 147               	.L10:
 148 0108 0190      		ld r0,Z+
 149 010a 0D92      		st X+,r0
 150 010c 8150      		subi r24,lo8(-(-1))
 151 010e 01F4      		brne .L10
 152 0110 E985      		ldd r30,Y+9
 153 0112 FA85      		ldd r31,Y+10
 154 0114 8181      		ldd r24,Z+1
 155 0116 8823      		tst r24
 156 0118 01F4      		brne .L11
 157 011a 8281      		ldd r24,Z+2
 158 011c 8823      		tst r24
 159 011e 01F4      		brne .L11
 160 0120 8381      		ldd r24,Z+3
 161 0122 8823      		tst r24
 162 0124 01F4      		brne .L11
 163 0126 8481      		ldd r24,Z+4
 164 0128 8823      		tst r24
 165 012a 01F4      		brne .L11
 166 012c 8581      		ldd r24,Z+5
 167 012e 8823      		tst r24
 168 0130 01F4      		brne .L11
GAS LISTING C:\Users\Bart\AppData\Local\Temp/ccqzTlV6.s 			page 4


 169 0132 8681      		ldd r24,Z+6
 170 0134 8823      		tst r24
 171 0136 01F0      		breq .L17
 172               	.L11:
 173 0138 A0E0      		ldi r26,lo8(confnet+10)
 174 013a B0E0      		ldi r27,hi8(confnet+10)
 175 013c E985      		ldd r30,Y+9
 176 013e FA85      		ldd r31,Y+10
 177 0140 3196      		adiw r30,1
 178 0142 86E0      		ldi r24,lo8(6)
 179               	.L18:
 180 0144 0190      		ld r0,Z+
 181 0146 0D92      		st X+,r0
 182 0148 8150      		subi r24,lo8(-(-1))
 183 014a 01F4      		brne .L18
 184               	.L17:
 185 014c 4092 0000 		sts confnet+16,r4
 186 0150 5092 0000 		sts (confnet+16)+1,r5
 187 0154 6092 0000 		sts (confnet+16)+2,r6
 188 0158 7092 0000 		sts (confnet+16)+3,r7
 189 015c 8092 0000 		sts confnet+20,r8
 190 0160 9092 0000 		sts (confnet+20)+1,r9
 191 0164 A092 0000 		sts (confnet+20)+2,r10
 192 0168 B092 0000 		sts (confnet+20)+3,r11
 193 016c 2D81      		ldd r18,Y+5
 194 016e 3E81      		ldd r19,Y+6
 195 0170 4F81      		ldd r20,Y+7
 196 0172 5885      		ldd r21,Y+8
 197 0174 2115      		cp r18,__zero_reg__
 198 0176 3105      		cpc r19,__zero_reg__
 199 0178 4105      		cpc r20,__zero_reg__
 200 017a 5105      		cpc r21,__zero_reg__
 201 017c 01F4      		brne .L19
 202 017e 8091 0000 		lds r24,confnet+24
 203 0182 9091 0000 		lds r25,(confnet+24)+1
 204 0186 A091 0000 		lds r26,(confnet+24)+2
 205 018a B091 0000 		lds r27,(confnet+24)+3
 206 018e 8821      		and r24,r8
 207 0190 9921      		and r25,r9
 208 0192 AA21      		and r26,r10
 209 0194 BB21      		and r27,r11
 210 0196 2981      		ldd r18,Y+1
 211 0198 3A81      		ldd r19,Y+2
 212 019a 4B81      		ldd r20,Y+3
 213 019c 5C81      		ldd r21,Y+4
 214 019e 8217      		cp r24,r18
 215 01a0 9307      		cpc r25,r19
 216 01a2 A407      		cpc r26,r20
 217 01a4 B507      		cpc r27,r21
 218 01a6 01F0      		breq .L21
 219               	.L19:
 220 01a8 8D81      		ldd r24,Y+5
 221 01aa 9E81      		ldd r25,Y+6
 222 01ac AF81      		ldd r26,Y+7
 223 01ae B885      		ldd r27,Y+8
 224 01b0 8093 0000 		sts confnet+24,r24
 225 01b4 9093 0000 		sts (confnet+24)+1,r25
GAS LISTING C:\Users\Bart\AppData\Local\Temp/ccqzTlV6.s 			page 5


 226 01b8 A093 0000 		sts (confnet+24)+2,r26
 227 01bc B093 0000 		sts (confnet+24)+3,r27
 228               	.L21:
 229 01c0 0E94 0000 		call NutNetSaveConfig
 230               	.L5:
 231               	/* epilogue: frame size=10 */
 232 01c4 2A96      		adiw r28,10
 233 01c6 0FB6      		in __tmp_reg__,__SREG__
 234 01c8 F894      		cli
 235 01ca DEBF      		out __SP_H__,r29
 236 01cc 0FBE      		out __SREG__,__tmp_reg__
 237 01ce CDBF      		out __SP_L__,r28
 238 01d0 DF91      		pop r29
 239 01d2 CF91      		pop r28
 240 01d4 1F91      		pop r17
 241 01d6 0F91      		pop r16
 242 01d8 FF90      		pop r15
 243 01da EF90      		pop r14
 244 01dc DF90      		pop r13
 245 01de CF90      		pop r12
 246 01e0 BF90      		pop r11
 247 01e2 AF90      		pop r10
 248 01e4 9F90      		pop r9
 249 01e6 8F90      		pop r8
 250 01e8 7F90      		pop r7
 251 01ea 6F90      		pop r6
 252 01ec 5F90      		pop r5
 253 01ee 4F90      		pop r4
 254 01f0 3F90      		pop r3
 255 01f2 2F90      		pop r2
 256 01f4 0895      		ret
 257               	/* epilogue end (size=25) */
 258               	/* function NutNetIfSetup size 253 (202) */
 259               		.size	NutNetIfSetup, .-NutNetIfSetup
 260               	.global	NutNetIfConfig2
 261               		.type	NutNetIfConfig2, @function
 262               	NutNetIfConfig2:
 263               	/* prologue: frame size=4 */
 264 01f6 2F92      		push r2
 265 01f8 3F92      		push r3
 266 01fa 4F92      		push r4
 267 01fc 5F92      		push r5
 268 01fe 6F92      		push r6
 269 0200 7F92      		push r7
 270 0202 8F92      		push r8
 271 0204 9F92      		push r9
 272 0206 AF92      		push r10
 273 0208 BF92      		push r11
 274 020a CF92      		push r12
 275 020c DF92      		push r13
 276 020e EF92      		push r14
 277 0210 FF92      		push r15
 278 0212 0F93      		push r16
 279 0214 1F93      		push r17
 280 0216 CF93      		push r28
 281 0218 DF93      		push r29
 282 021a CDB7      		in r28,__SP_L__
GAS LISTING C:\Users\Bart\AppData\Local\Temp/ccqzTlV6.s 			page 6


 283 021c DEB7      		in r29,__SP_H__
 284 021e 2497      		sbiw r28,4
 285 0220 0FB6      		in __tmp_reg__,__SREG__
 286 0222 F894      		cli
 287 0224 DEBF      		out __SP_H__,r29
 288 0226 0FBE      		out __SREG__,__tmp_reg__
 289 0228 CDBF      		out __SP_L__,r28
 290               	/* prologue end (size=26) */
 291 022a 7C83      		std Y+4,r23
 292 022c 6B83      		std Y+3,r22
 293 022e 1901      		movw r2,r18
 294 0230 2A01      		movw r4,r20
 295 0232 3701      		movw r6,r14
 296 0234 4801      		movw r8,r16
 297 0236 0E94 0000 		call NutDeviceLookup
 298 023a FC01      		movw r30,r24
 299 023c 0097      		sbiw r24,0
 300 023e 01F4      		brne .+2
 301 0240 00C0      		rjmp .L27
 302 0242 9A83      		std Y+2,r25
 303 0244 8983      		std Y+1,r24
 304 0246 8385      		ldd r24,Z+11
 305 0248 8330      		cpi r24,lo8(3)
 306 024a 01F0      		breq .+2
 307 024c 00C0      		rjmp .L27
 308 024e A785      		ldd r26,Z+15
 309 0250 B089      		ldd r27,Z+16
 310 0252 8C91      		ld r24,X
 311 0254 8630      		cpi r24,lo8(6)
 312 0256 01F4      		brne .L30
 313 0258 1196      		adiw r26,1
 314 025a EB81      		ldd r30,Y+3
 315 025c FC81      		ldd r31,Y+4
 316               	.L32:
 317 025e 0190      		ld r0,Z+
 318 0260 0D92      		st X+,r0
 319 0262 8150      		subi r24,lo8(-(-1))
 320 0264 01F4      		brne .L32
 321 0266 7601      		movw r14,r12
 322 0268 6501      		movw r12,r10
 323 026a 9401      		movw r18,r8
 324 026c 8301      		movw r16,r6
 325 026e B201      		movw r22,r4
 326 0270 A101      		movw r20,r2
 327 0272 00C0      		rjmp .L42
 328               	.L30:
 329 0274 8731      		cpi r24,lo8(23)
 330 0276 01F0      		breq .+2
 331 0278 00C0      		rjmp .L27
 332 027a A188      		ldd r10,Z+17
 333 027c B288      		ldd r11,Z+18
 334 027e F501      		movw r30,r10
 335 0280 21A2      		std Z+33,r2
 336 0282 32A2      		std Z+34,r3
 337 0284 43A2      		std Z+35,r4
 338 0286 54A2      		std Z+36,r5
 339 0288 E114      		cp r14,__zero_reg__
GAS LISTING C:\Users\Bart\AppData\Local\Temp/ccqzTlV6.s 			page 7


 340 028a F104      		cpc r15,__zero_reg__
 341 028c 0105      		cpc r16,__zero_reg__
 342 028e 1105      		cpc r17,__zero_reg__
 343 0290 01F4      		brne .L35
 344 0292 8FEF      		ldi r24,lo8(-1)
 345 0294 682E      		mov r6,r24
 346 0296 8FEF      		ldi r24,hi8(-1)
 347 0298 782E      		mov r7,r24
 348 029a 8FEF      		ldi r24,hlo8(-1)
 349 029c 882E      		mov r8,r24
 350 029e 8FEF      		ldi r24,hhi8(-1)
 351 02a0 982E      		mov r9,r24
 352               	.L35:
 353 02a2 F501      		movw r30,r10
 354 02a4 61A6      		std Z+41,r6
 355 02a6 72A6      		std Z+42,r7
 356 02a8 83A6      		std Z+43,r8
 357 02aa 94A6      		std Z+44,r9
 358 02ac C501      		movw r24,r10
 359 02ae 0E94 0000 		call NutEventBroadcast
 360 02b2 F501      		movw r30,r10
 361 02b4 FF96      		adiw r30,63
 362 02b6 AE01      		movw r20,r28
 363 02b8 4F5F      		subi r20,lo8(-(1))
 364 02ba 5F4F      		sbci r21,hi8(-(1))
 365 02bc 67E1      		ldi r22,lo8(279)
 366 02be 71E0      		ldi r23,hi8(279)
 367 02c0 8081      		ld r24,Z
 368 02c2 9181      		ldd r25,Z+1
 369 02c4 0E94 0000 		call _ioctl
 370 02c8 81E0      		ldi r24,lo8(1)
 371 02ca 8093 0000 		sts ppp_hackup,r24
 372 02ce 40E6      		ldi r20,lo8(60000)
 373 02d0 5AEE      		ldi r21,hi8(60000)
 374 02d2 60E0      		ldi r22,hlo8(60000)
 375 02d4 70E0      		ldi r23,hhi8(60000)
 376 02d6 C501      		movw r24,r10
 377 02d8 0E94 0000 		call NutEventWait
 378 02dc 892B      		or r24,r25
 379 02de 01F4      		brne .L27
 380 02e0 F501      		movw r30,r10
 381 02e2 84AD      		ldd r24,Z+60
 382 02e4 8930      		cpi r24,lo8(9)
 383 02e6 01F4      		brne .L27
 384 02e8 C5A0      		ldd r12,Z+37
 385 02ea D6A0      		ldd r13,Z+38
 386 02ec E7A0      		ldd r14,Z+39
 387 02ee F0A4      		ldd r15,Z+40
 388 02f0 01A5      		ldd r16,Z+41
 389 02f2 12A5      		ldd r17,Z+42
 390 02f4 23A5      		ldd r18,Z+43
 391 02f6 34A5      		ldd r19,Z+44
 392 02f8 41A1      		ldd r20,Z+33
 393 02fa 52A1      		ldd r21,Z+34
 394 02fc 63A1      		ldd r22,Z+35
 395 02fe 74A1      		ldd r23,Z+36
 396               	.L42:
GAS LISTING C:\Users\Bart\AppData\Local\Temp/ccqzTlV6.s 			page 8


 397 0300 8981      		ldd r24,Y+1
 398 0302 9A81      		ldd r25,Y+2
 399 0304 0E94 0000 		call NutNetIfSetup
 400 0308 00C0      		rjmp .L33
 401               	.L27:
 402 030a 8FEF      		ldi r24,lo8(-1)
 403 030c 9FEF      		ldi r25,hi8(-1)
 404               	.L33:
 405               	/* epilogue: frame size=4 */
 406 030e 2496      		adiw r28,4
 407 0310 0FB6      		in __tmp_reg__,__SREG__
 408 0312 F894      		cli
 409 0314 DEBF      		out __SP_H__,r29
 410 0316 0FBE      		out __SREG__,__tmp_reg__
 411 0318 CDBF      		out __SP_L__,r28
 412 031a DF91      		pop r29
 413 031c CF91      		pop r28
 414 031e 1F91      		pop r17
 415 0320 0F91      		pop r16
 416 0322 FF90      		pop r15
 417 0324 EF90      		pop r14
 418 0326 DF90      		pop r13
 419 0328 CF90      		pop r12
 420 032a BF90      		pop r11
 421 032c AF90      		pop r10
 422 032e 9F90      		pop r9
 423 0330 8F90      		pop r8
 424 0332 7F90      		pop r7
 425 0334 6F90      		pop r6
 426 0336 5F90      		pop r5
 427 0338 4F90      		pop r4
 428 033a 3F90      		pop r3
 429 033c 2F90      		pop r2
 430 033e 0895      		ret
 431               	/* epilogue end (size=25) */
 432               	/* function NutNetIfConfig2 size 166 (115) */
 433               		.size	NutNetIfConfig2, .-NutNetIfConfig2
 434               	.global	NutNetIfConfig
 435               		.type	NutNetIfConfig, @function
 436               	NutNetIfConfig:
 437               	/* prologue: frame size=0 */
 438 0340 AF92      		push r10
 439 0342 BF92      		push r11
 440 0344 CF92      		push r12
 441 0346 DF92      		push r13
 442 0348 EF92      		push r14
 443 034a FF92      		push r15
 444 034c 0F93      		push r16
 445 034e 1F93      		push r17
 446               	/* prologue end (size=8) */
 447 0350 AA24      		clr r10
 448 0352 BB24      		clr r11
 449 0354 6501      		movw r12,r10
 450 0356 0E94 0000 		call NutNetIfConfig2
 451               	/* epilogue: frame size=0 */
 452 035a 1F91      		pop r17
 453 035c 0F91      		pop r16
GAS LISTING C:\Users\Bart\AppData\Local\Temp/ccqzTlV6.s 			page 9


 454 035e FF90      		pop r15
 455 0360 EF90      		pop r14
 456 0362 DF90      		pop r13
 457 0364 CF90      		pop r12
 458 0366 BF90      		pop r11
 459 0368 AF90      		pop r10
 460 036a 0895      		ret
 461               	/* epilogue end (size=9) */
 462               	/* function NutNetIfConfig size 22 (5) */
 463               		.size	NutNetIfConfig, .-NutNetIfConfig
 464               		.comm ppp_hackup,1,1
 465               	/* File "D:/Git/TI-2A3-InternetMediaCenter/tools/ethernut-4.3.3/nut/net/ifconfig.c": code  441 = 0x
GAS LISTING C:\Users\Bart\AppData\Local\Temp/ccqzTlV6.s 			page 10


DEFINED SYMBOLS
                            *ABS*:00000000 ifconfig.c
C:\Users\Bart\AppData\Local\Temp/ccqzTlV6.s:3      *ABS*:0000003f __SREG__
C:\Users\Bart\AppData\Local\Temp/ccqzTlV6.s:4      *ABS*:0000003e __SP_H__
C:\Users\Bart\AppData\Local\Temp/ccqzTlV6.s:5      *ABS*:0000003d __SP_L__
C:\Users\Bart\AppData\Local\Temp/ccqzTlV6.s:6      *ABS*:00000000 __tmp_reg__
C:\Users\Bart\AppData\Local\Temp/ccqzTlV6.s:7      *ABS*:00000001 __zero_reg__
C:\Users\Bart\AppData\Local\Temp/ccqzTlV6.s:16     .text:00000000 NutNetIfSetup
C:\Users\Bart\AppData\Local\Temp/ccqzTlV6.s:262    .text:000001f6 NutNetIfConfig2
                            *COM*:00000001 ppp_hackup
C:\Users\Bart\AppData\Local\Temp/ccqzTlV6.s:436    .text:00000340 NutNetIfConfig

UNDEFINED SYMBOLS
__do_copy_data
__do_clear_bss
confnet
inet_addr
NutIpRouteAdd
NutNetSaveConfig
NutDeviceLookup
NutEventBroadcast
_ioctl
NutEventWait
