GAS LISTING C:\Users\Bart\AppData\Local\Temp/ccMmglNG.s 			page 1


   1               		.file	"lcpin.c"
   2               		.arch atmega2561
   3               	__SREG__ = 0x3f
   4               	__SP_H__ = 0x3e
   5               	__SP_L__ = 0x3d
   6               	__tmp_reg__ = 0
   7               	__zero_reg__ = 1
   8               		.global __do_copy_data
   9               		.global __do_clear_bss
  10               		.text
  11               	.global	LcpRxProtRej
  12               		.type	LcpRxProtRej, @function
  13               	LcpRxProtRej:
  14               	/* prologue: frame size=0 */
  15 0000 0F93      		push r16
  16 0002 1F93      		push r17
  17 0004 CF93      		push r28
  18 0006 DF93      		push r29
  19               	/* prologue end (size=4) */
  20 0008 EC01      		movw r28,r24
  21 000a 0989      		ldd r16,Y+17
  22 000c 1A89      		ldd r17,Y+18
  23 000e F801      		movw r30,r16
  24 0010 8281      		ldd r24,Z+2
  25 0012 8430      		cpi r24,lo8(4)
  26 0014 01F0      		breq .L3
  27 0016 8530      		cpi r24,lo8(5)
  28 0018 00F4      		brsh .L6
  29 001a 8230      		cpi r24,lo8(2)
  30 001c 01F0      		breq .L3
  31 001e 8330      		cpi r24,lo8(3)
  32 0020 01F4      		brne .L7
  33 0022 00C0      		rjmp .L4
  34               	.L6:
  35 0024 8930      		cpi r24,lo8(9)
  36 0026 00F0      		brlo .L4
  37 0028 8930      		cpi r24,lo8(9)
  38 002a 01F4      		brne .L7
  39 002c 00C0      		rjmp .L5
  40               	.L3:
  41 002e 82E0      		ldi r24,lo8(2)
  42 0030 00C0      		rjmp .L8
  43               	.L4:
  44 0032 83E0      		ldi r24,lo8(3)
  45 0034 00C0      		rjmp .L8
  46               	.L5:
  47 0036 CE01      		movw r24,r28
  48 0038 0E94 0000 		call IpcpLowerDown
  49 003c 20E0      		ldi r18,lo8(0)
  50 003e 30E0      		ldi r19,hi8(0)
  51 0040 F801      		movw r30,r16
  52 0042 4381      		ldd r20,Z+3
  53 0044 65E0      		ldi r22,lo8(5)
  54 0046 CE01      		movw r24,r28
  55 0048 0E94 0000 		call NutIpcpOutput
  56 004c 85E0      		ldi r24,lo8(5)
  57               	.L8:
GAS LISTING C:\Users\Bart\AppData\Local\Temp/ccMmglNG.s 			page 2


  58 004e F801      		movw r30,r16
  59 0050 8283      		std Z+2,r24
  60               	.L7:
  61               	/* epilogue: frame size=0 */
  62 0052 DF91      		pop r29
  63 0054 CF91      		pop r28
  64 0056 1F91      		pop r17
  65 0058 0F91      		pop r16
  66 005a 0895      		ret
  67               	/* epilogue end (size=5) */
  68               	/* function LcpRxProtRej size 46 (37) */
  69               		.size	LcpRxProtRej, .-LcpRxProtRej
  70               	.global	NutLcpInput
  71               		.type	NutLcpInput, @function
  72               	NutLcpInput:
  73               	/* prologue: frame size=0 */
  74 005c 5F92      		push r5
  75 005e 6F92      		push r6
  76 0060 7F92      		push r7
  77 0062 8F92      		push r8
  78 0064 9F92      		push r9
  79 0066 AF92      		push r10
  80 0068 BF92      		push r11
  81 006a CF92      		push r12
  82 006c DF92      		push r13
  83 006e EF92      		push r14
  84 0070 FF92      		push r15
  85 0072 0F93      		push r16
  86 0074 1F93      		push r17
  87 0076 CF93      		push r28
  88 0078 DF93      		push r29
  89               	/* prologue end (size=15) */
  90 007a 5C01      		movw r10,r24
  91 007c 8B01      		movw r16,r22
  92 007e EC01      		movw r28,r24
  93 0080 A989      		ldd r26,Y+17
  94 0082 BA89      		ldd r27,Y+18
  95 0084 FB01      		movw r30,r22
  96 0086 2185      		ldd r18,Z+9
  97 0088 3285      		ldd r19,Z+10
  98 008a 2430      		cpi r18,4
  99 008c 3105      		cpc r19,__zero_reg__
 100 008e 00F4      		brsh .+2
 101 0090 00C0      		rjmp .L132
 102 0092 EB01      		movw r28,r22
 103 0094 EF81      		ldd r30,Y+7
 104 0096 F885      		ldd r31,Y+8
 105 0098 8281      		ldd r24,Z+2
 106 009a 9381      		ldd r25,Z+3
 107               	/* #APP */
 108 009c 082E      		mov __tmp_reg__, r24
 109 009e 892F      		mov r24, r25
 110 00a0 902D      		mov r25, __tmp_reg__
 111               		
 112               	/* #NOAPP */
 113 00a2 8430      		cpi r24,4
 114 00a4 9105      		cpc r25,__zero_reg__
GAS LISTING C:\Users\Bart\AppData\Local\Temp/ccMmglNG.s 			page 3


 115 00a6 00F4      		brsh .+2
 116 00a8 00C0      		rjmp .L132
 117 00aa 2817      		cp r18,r24
 118 00ac 3907      		cpc r19,r25
 119 00ae 00F4      		brsh .+2
 120 00b0 00C0      		rjmp .L132
 121 00b2 ED01      		movw r28,r26
 122 00b4 8A81      		ldd r24,Y+2
 123 00b6 8230      		cpi r24,lo8(2)
 124 00b8 00F4      		brsh .+2
 125 00ba 00C0      		rjmp .L132
 126 00bc 3496      		adiw r30,4
 127 00be EB01      		movw r28,r22
 128 00c0 F88B      		std Y+16,r31
 129 00c2 EF87      		std Y+15,r30
 130 00c4 3497      		sbiw r30,4
 131 00c6 8281      		ldd r24,Z+2
 132 00c8 9381      		ldd r25,Z+3
 133               	/* #APP */
 134 00ca 082E      		mov __tmp_reg__, r24
 135 00cc 892F      		mov r24, r25
 136 00ce 902D      		mov r25, __tmp_reg__
 137               		
 138               	/* #NOAPP */
 139 00d0 0497      		sbiw r24,4
 140 00d2 9A8B      		std Y+18,r25
 141 00d4 898B      		std Y+17,r24
 142 00d6 84E0      		ldi r24,lo8(4)
 143 00d8 90E0      		ldi r25,hi8(4)
 144 00da 9A87      		std Y+10,r25
 145 00dc 8987      		std Y+9,r24
 146 00de F080      		ld r15,Z
 147 00e0 25E0      		ldi r18,lo8(5)
 148 00e2 F216      		cp r15,r18
 149 00e4 01F4      		brne .+2
 150 00e6 00C0      		rjmp .L22
 151 00e8 2F15      		cp r18,r15
 152 00ea 00F0      		brlo .L27
 153 00ec 82E0      		ldi r24,lo8(2)
 154 00ee F816      		cp r15,r24
 155 00f0 01F4      		brne .+2
 156 00f2 00C0      		rjmp .L20
 157 00f4 8F15      		cp r24,r15
 158 00f6 00F4      		brsh .+2
 159 00f8 00C0      		rjmp .L21
 160 00fa A1E0      		ldi r26,lo8(1)
 161 00fc FA16      		cp r15,r26
 162 00fe 01F0      		breq .+2
 163 0100 00C0      		rjmp .L132
 164 0102 00C0      		rjmp .L19
 165               	.L27:
 166 0104 B9E0      		ldi r27,lo8(9)
 167 0106 FB16      		cp r15,r27
 168 0108 01F4      		brne .+2
 169 010a 00C0      		rjmp .L25
 170 010c BF15      		cp r27,r15
 171 010e 00F4      		brsh .+2
GAS LISTING C:\Users\Bart\AppData\Local\Temp/ccMmglNG.s 			page 4


 172 0110 00C0      		rjmp .L132
 173 0112 E6E0      		ldi r30,lo8(6)
 174 0114 FE16      		cp r15,r30
 175 0116 01F4      		brne .+2
 176 0118 00C0      		rjmp .L23
 177 011a F7E0      		ldi r31,lo8(7)
 178 011c FF16      		cp r15,r31
 179 011e 01F0      		breq .+2
 180 0120 00C0      		rjmp .L132
 181 0122 00C0      		rjmp .L24
 182               	.L19:
 183 0124 5180      		ldd r5,Z+1
 184 0126 F501      		movw r30,r10
 185 0128 C189      		ldd r28,Z+17
 186 012a D289      		ldd r29,Z+18
 187 012c 8A81      		ldd r24,Y+2
 188 012e 8630      		cpi r24,lo8(6)
 189 0130 00F4      		brsh .L34
 190 0132 8430      		cpi r24,lo8(4)
 191 0134 00F0      		brlo .+2
 192 0136 00C0      		rjmp .L132
 193 0138 8230      		cpi r24,lo8(2)
 194 013a 01F0      		breq .L30
 195 013c 8330      		cpi r24,lo8(3)
 196 013e 01F4      		brne .L29
 197 0140 00C0      		rjmp .L31
 198               	.L34:
 199 0142 8930      		cpi r24,lo8(9)
 200 0144 01F4      		brne .L29
 201 0146 00C0      		rjmp .L33
 202               	.L30:
 203 0148 CB01      		movw r24,r22
 204 014a 0E94 0000 		call NutNetBufFree
 205 014e 20E0      		ldi r18,lo8(0)
 206 0150 30E0      		ldi r19,hi8(0)
 207 0152 452D      		mov r20,r5
 208 0154 00C0      		rjmp .L143
 209               	.L33:
 210 0156 C501      		movw r24,r10
 211 0158 0E94 0000 		call IpcpLowerDown
 212 015c 6B81      		ldd r22,Y+3
 213 015e 6F5F      		subi r22,lo8(-(1))
 214 0160 6B83      		std Y+3,r22
 215 0162 C501      		movw r24,r10
 216 0164 0E94 0000 		call LcpTxConfReq
 217 0168 00C0      		rjmp .L29
 218               	.L130:
 219 016a 80E8      		ldi r24,lo8(128)
 220 016c 90E0      		ldi r25,hi8(128)
 221               	/* #APP */
 222 016e 082E      		mov __tmp_reg__, r24
 223 0170 892F      		mov r24, r25
 224 0172 902D      		mov r25, __tmp_reg__
 225               		
 226               	/* #NOAPP */
 227 0174 F601      		movw r30,r12
 228 0176 9383      		std Z+3,r25
GAS LISTING C:\Users\Bart\AppData\Local\Temp/ccMmglNG.s 			page 5


 229 0178 8283      		std Z+2,r24
 230 017a 00C0      		rjmp .L138
 231               	.L31:
 232 017c 6B81      		ldd r22,Y+3
 233 017e 6F5F      		subi r22,lo8(-(1))
 234 0180 6B83      		std Y+3,r22
 235 0182 C501      		movw r24,r10
 236 0184 0E94 0000 		call LcpTxConfReq
 237 0188 86E0      		ldi r24,lo8(6)
 238 018a 8A83      		std Y+2,r24
 239               	.L29:
 240 018c F801      		movw r30,r16
 241 018e C784      		ldd r12,Z+15
 242 0190 D088      		ldd r13,Z+16
 243 0192 E188      		ldd r14,Z+17
 244 0194 F288      		ldd r15,Z+18
 245 0196 F601      		movw r30,r12
 246 0198 8824      		clr r8
 247 019a 9924      		clr r9
 248 019c 00C0      		rjmp .L35
 249               	.L36:
 250 019e 9181      		ldd r25,Z+1
 251 01a0 292F      		mov r18,r25
 252 01a2 3327      		clr r19
 253 01a4 E216      		cp r14,r18
 254 01a6 F306      		cpc r15,r19
 255 01a8 00F4      		brsh .+2
 256 01aa 00C0      		rjmp .L37
 257 01ac 8081      		ld r24,Z
 258 01ae 8230      		cpi r24,lo8(2)
 259 01b0 01F0      		breq .L41
 260 01b2 8330      		cpi r24,lo8(3)
 261 01b4 00F4      		brsh .L43
 262 01b6 8130      		cpi r24,lo8(1)
 263 01b8 01F4      		brne .L39
 264 01ba 00C0      		rjmp .L40
 265               	.L43:
 266 01bc 8330      		cpi r24,lo8(3)
 267 01be 01F0      		breq .L42
 268 01c0 8530      		cpi r24,lo8(5)
 269 01c2 01F4      		brne .L39
 270 01c4 00C0      		rjmp .L41
 271               	.L40:
 272 01c6 9430      		cpi r25,lo8(4)
 273 01c8 01F4      		brne .L39
 274 01ca 00C0      		rjmp .L44
 275               	.L41:
 276 01cc 9630      		cpi r25,lo8(6)
 277 01ce 01F4      		brne .L39
 278 01d0 00C0      		rjmp .L44
 279               	.L42:
 280 01d2 2430      		cpi r18,4
 281 01d4 3105      		cpc r19,__zero_reg__
 282 01d6 00F4      		brsh .L44
 283               	.L39:
 284 01d8 CE16      		cp r12,r30
 285 01da DF06      		cpc r13,r31
GAS LISTING C:\Users\Bart\AppData\Local\Temp/ccMmglNG.s 			page 6


 286 01dc 01F0      		breq .L47
 287 01de 40E0      		ldi r20,lo8(0)
 288 01e0 50E0      		ldi r21,hi8(0)
 289 01e2 B601      		movw r22,r12
 290 01e4 3F01      		movw r6,r30
 291 01e6 00C0      		rjmp .L48
 292               	.L49:
 293 01e8 D301      		movw r26,r6
 294 01ea 8D91      		ld r24,X+
 295 01ec 3D01      		movw r6,r26
 296 01ee DB01      		movw r26,r22
 297 01f0 8D93      		st X+,r24
 298 01f2 BD01      		movw r22,r26
 299 01f4 4F5F      		subi r20,lo8(-(1))
 300 01f6 5F4F      		sbci r21,hi8(-(1))
 301               	.L48:
 302 01f8 4E15      		cp r20,r14
 303 01fa 5F05      		cpc r21,r15
 304 01fc 01F4      		brne .L49
 305 01fe F601      		movw r30,r12
 306               	.L47:
 307 0200 C20E      		add r12,r18
 308 0202 D31E      		adc r13,r19
 309 0204 820E      		add r8,r18
 310 0206 931E      		adc r9,r19
 311               	.L44:
 312 0208 E21A      		sub r14,r18
 313 020a F30A      		sbc r15,r19
 314 020c E20F      		add r30,r18
 315 020e F31F      		adc r31,r19
 316               	.L35:
 317 0210 B2E0      		ldi r27,lo8(2)
 318 0212 EB16      		cp r14,r27
 319 0214 F104      		cpc r15,__zero_reg__
 320 0216 00F4      		brsh .L36
 321 0218 8114      		cp r8,__zero_reg__
 322 021a 9104      		cpc r9,__zero_reg__
 323 021c 01F0      		breq .L52
 324 021e F801      		movw r30,r16
 325 0220 928A      		std Z+18,r9
 326 0222 818A      		std Z+17,r8
 327 0224 64E0      		ldi r22,lo8(4)
 328 0226 70E0      		ldi r23,hi8(4)
 329 0228 00C0      		rjmp .L54
 330               	.L52:
 331 022a F801      		movw r30,r16
 332 022c C784      		ldd r12,Z+15
 333 022e D088      		ldd r13,Z+16
 334 0230 6188      		ldd r6,Z+17
 335 0232 7288      		ldd r7,Z+18
 336 0234 7601      		movw r14,r12
 337 0236 00C0      		rjmp .L55
 338               	.L56:
 339 0238 D701      		movw r26,r14
 340 023a 8C91      		ld r24,X
 341 023c 8330      		cpi r24,lo8(3)
 342 023e 01F0      		breq .L60
GAS LISTING C:\Users\Bart\AppData\Local\Temp/ccMmglNG.s 			page 7


 343 0240 8430      		cpi r24,lo8(4)
 344 0242 00F4      		brsh .L64
 345 0244 8130      		cpi r24,lo8(1)
 346 0246 01F0      		breq .L58
 347 0248 8230      		cpi r24,lo8(2)
 348 024a 01F0      		breq .+2
 349 024c 00C0      		rjmp .L57
 350 024e 00C0      		rjmp .L59
 351               	.L64:
 352 0250 8730      		cpi r24,lo8(7)
 353 0252 01F4      		brne .+2
 354 0254 00C0      		rjmp .L62
 355 0256 8830      		cpi r24,lo8(8)
 356 0258 01F4      		brne .+2
 357 025a 00C0      		rjmp .L63
 358 025c 8530      		cpi r24,lo8(5)
 359 025e 01F0      		breq .+2
 360 0260 00C0      		rjmp .L57
 361 0262 00C0      		rjmp .L61
 362               	.L58:
 363 0264 F701      		movw r30,r14
 364 0266 8281      		ldd r24,Z+2
 365 0268 9381      		ldd r25,Z+3
 366               	/* #APP */
 367 026a 082E      		mov __tmp_reg__, r24
 368 026c 892F      		mov r24, r25
 369 026e 902D      		mov r25, __tmp_reg__
 370               		
 371               	/* #NOAPP */
 372 0270 8038      		cpi r24,128
 373 0272 9105      		cpc r25,__zero_reg__
 374 0274 00F4      		brsh .+2
 375 0276 00C0      		rjmp .L130
 376 0278 9987      		std Y+9,r25
 377 027a 8887      		std Y+8,r24
 378 027c 00C0      		rjmp .L57
 379               	.L59:
 380 027e F701      		movw r30,r14
 381 0280 8281      		ldd r24,Z+2
 382 0282 9381      		ldd r25,Z+3
 383 0284 A481      		ldd r26,Z+4
 384 0286 B581      		ldd r27,Z+5
 385               	/* #APP */
 386 0288 082E      		mov __tmp_reg__, r24
 387 028a 8B2F      		mov r24, r27
 388 028c B02D      		mov r27, __tmp_reg__
 389 028e 092E      		mov __tmp_reg__, r25
 390 0290 9A2F      		mov r25, r26
 391 0292 A02D      		mov r26, __tmp_reg__
 392               		
 393               	/* #NOAPP */
 394 0294 8A87      		std Y+10,r24
 395 0296 9B87      		std Y+11,r25
 396 0298 AC87      		std Y+12,r26
 397 029a BD87      		std Y+13,r27
 398 029c 00C0      		rjmp .L57
 399               	.L60:
GAS LISTING C:\Users\Bart\AppData\Local\Temp/ccMmglNG.s 			page 8


 400 029e 6FE3      		ldi r22,lo8(63)
 401 02a0 70E0      		ldi r23,hi8(63)
 402 02a2 80E0      		ldi r24,hlo8(63)
 403 02a4 90E0      		ldi r25,hhi8(63)
 404 02a6 0E94 0000 		call NutSleep
 405 02aa 43E2      		ldi r20,lo8(-16349)
 406 02ac 50EC      		ldi r21,hi8(-16349)
 407 02ae 9A01      		movw r18,r20
 408               	/* #APP */
 409 02b0 022E      		mov __tmp_reg__, r18
 410 02b2 232F      		mov r18, r19
 411 02b4 302D      		mov r19, __tmp_reg__
 412               		
 413               	/* #NOAPP */
 414 02b6 F701      		movw r30,r14
 415 02b8 8281      		ldd r24,Z+2
 416 02ba 9381      		ldd r25,Z+3
 417 02bc 8217      		cp r24,r18
 418 02be 9307      		cpc r25,r19
 419 02c0 01F4      		brne .+2
 420 02c2 00C0      		rjmp .L57
 421               	/* #APP */
 422 02c4 042E      		mov __tmp_reg__, r20
 423 02c6 452F      		mov r20, r21
 424 02c8 502D      		mov r21, __tmp_reg__
 425               		
 426               	/* #NOAPP */
 427 02ca F601      		movw r30,r12
 428 02cc 5383      		std Z+3,r21
 429 02ce 4283      		std Z+2,r20
 430               	.L138:
 431 02d0 24E0      		ldi r18,lo8(4)
 432 02d2 30E0      		ldi r19,hi8(4)
 433 02d4 00C0      		rjmp .L67
 434               	.L61:
 435 02d6 F701      		movw r30,r14
 436 02d8 2281      		ldd r18,Z+2
 437 02da 3381      		ldd r19,Z+3
 438 02dc 4481      		ldd r20,Z+4
 439 02de 5581      		ldd r21,Z+5
 440 02e0 8D89      		ldd r24,Y+21
 441 02e2 9E89      		ldd r25,Y+22
 442 02e4 AF89      		ldd r26,Y+23
 443 02e6 B88D      		ldd r27,Y+24
 444 02e8 2817      		cp r18,r24
 445 02ea 3907      		cpc r19,r25
 446 02ec 4A07      		cpc r20,r26
 447 02ee 5B07      		cpc r21,r27
 448 02f0 01F0      		breq .L69
 449 02f2 8989      		ldd r24,Y+17
 450 02f4 9A89      		ldd r25,Y+18
 451 02f6 AB89      		ldd r26,Y+19
 452 02f8 BC89      		ldd r27,Y+20
 453 02fa 2817      		cp r18,r24
 454 02fc 3907      		cpc r19,r25
 455 02fe 4A07      		cpc r20,r26
 456 0300 5B07      		cpc r21,r27
GAS LISTING C:\Users\Bart\AppData\Local\Temp/ccMmglNG.s 			page 9


 457 0302 01F4      		brne .L57
 458               	.L69:
 459 0304 8091 0000 		lds r24,new_magic
 460 0308 9091 0000 		lds r25,(new_magic)+1
 461 030c A091 0000 		lds r26,(new_magic)+2
 462 0310 B091 0000 		lds r27,(new_magic)+3
 463 0314 898F      		std Y+25,r24
 464 0316 9A8F      		std Y+26,r25
 465 0318 AB8F      		std Y+27,r26
 466 031a BC8F      		std Y+28,r27
 467 031c F601      		movw r30,r12
 468 031e 8283      		std Z+2,r24
 469 0320 9383      		std Z+3,r25
 470 0322 A483      		std Z+4,r26
 471 0324 B583      		std Z+5,r27
 472 0326 26E0      		ldi r18,lo8(6)
 473 0328 30E0      		ldi r19,hi8(6)
 474 032a 00C0      		rjmp .L67
 475               	.L62:
 476 032c 8E85      		ldd r24,Y+14
 477 032e 8160      		ori r24,lo8(1)
 478 0330 00C0      		rjmp .L137
 479               	.L63:
 480 0332 8E85      		ldd r24,Y+14
 481 0334 8260      		ori r24,lo8(2)
 482               	.L137:
 483 0336 8E87      		std Y+14,r24
 484 0338 00C0      		rjmp .L57
 485               	.L71:
 486 033a D701      		movw r26,r14
 487 033c 8C91      		ld r24,X
 488 033e F601      		movw r30,r12
 489 0340 8083      		st Z,r24
 490 0342 2183      		std Z+1,r18
 491               	.L72:
 492 0344 C20E      		add r12,r18
 493 0346 D31E      		adc r13,r19
 494 0348 820E      		add r8,r18
 495 034a 931E      		adc r9,r19
 496               	.L57:
 497 034c F701      		movw r30,r14
 498 034e 8181      		ldd r24,Z+1
 499 0350 9927      		clr r25
 500 0352 681A      		sub r6,r24
 501 0354 790A      		sbc r7,r25
 502 0356 E80E      		add r14,r24
 503 0358 F91E      		adc r15,r25
 504               	.L55:
 505 035a F2E0      		ldi r31,lo8(2)
 506 035c 6F16      		cp r6,r31
 507 035e 7104      		cpc r7,__zero_reg__
 508 0360 00F0      		brlo .+2
 509 0362 00C0      		rjmp .L56
 510 0364 8114      		cp r8,__zero_reg__
 511 0366 9104      		cpc r9,__zero_reg__
 512 0368 01F4      		brne .+2
 513 036a 00C0      		rjmp .L74
GAS LISTING C:\Users\Bart\AppData\Local\Temp/ccMmglNG.s 			page 10


 514 036c F801      		movw r30,r16
 515 036e 928A      		std Z+18,r9
 516 0370 818A      		std Z+17,r8
 517 0372 63E0      		ldi r22,lo8(3)
 518 0374 70E0      		ldi r23,hi8(3)
 519               	.L54:
 520 0376 9801      		movw r18,r16
 521 0378 452D      		mov r20,r5
 522 037a C501      		movw r24,r10
 523 037c 0E94 0000 		call NutLcpOutput
 524 0380 8A81      		ldd r24,Y+2
 525 0382 8730      		cpi r24,lo8(7)
 526 0384 01F0      		breq .+2
 527 0386 00C0      		rjmp .L140
 528 0388 00C0      		rjmp .L129
 529               	.L77:
 530 038a 89E0      		ldi r24,lo8(9)
 531 038c 8A83      		std Y+2,r24
 532 038e 8F85      		ldd r24,Y+15
 533 0390 9889      		ldd r25,Y+16
 534 0392 8352      		subi r24,lo8(-16349)
 535 0394 904C      		sbci r25,hi8(-16349)
 536 0396 01F4      		brne .L78
 537 0398 6B81      		ldd r22,Y+3
 538 039a 6F5F      		subi r22,lo8(-(1))
 539 039c 6B83      		std Y+3,r22
 540 039e C501      		movw r24,r10
 541 03a0 0E94 0000 		call PapTxAuthReq
 542 03a4 00C0      		rjmp .L80
 543               	.L78:
 544 03a6 C501      		movw r24,r10
 545 03a8 0E94 0000 		call IpcpLowerUp
 546 03ac 00C0      		rjmp .L80
 547               	.L136:
 548 03ae 88E0      		ldi r24,lo8(8)
 549 03b0 8A83      		std Y+2,r24
 550               	.L80:
 551 03b2 1AAE      		std Y+58,__zero_reg__
 552 03b4 00C0      		rjmp .L129
 553               	.L20:
 554 03b6 F180      		ldd r15,Z+1
 555 03b8 F501      		movw r30,r10
 556 03ba C189      		ldd r28,Z+17
 557 03bc D289      		ldd r29,Z+18
 558 03be 8B81      		ldd r24,Y+3
 559 03c0 F816      		cp r15,r24
 560 03c2 01F0      		breq .+2
 561 03c4 00C0      		rjmp .L82
 562 03c6 8D81      		ldd r24,Y+5
 563 03c8 8823      		tst r24
 564 03ca 01F0      		breq .+2
 565 03cc 00C0      		rjmp .L82
 566 03ce 81E0      		ldi r24,lo8(1)
 567 03d0 8D83      		std Y+5,r24
 568 03d2 FB01      		movw r30,r22
 569 03d4 C784      		ldd r12,Z+15
 570 03d6 D088      		ldd r13,Z+16
GAS LISTING C:\Users\Bart\AppData\Local\Temp/ccMmglNG.s 			page 11


 571 03d8 6189      		ldd r22,Z+17
 572 03da 7289      		ldd r23,Z+18
 573 03dc 00C0      		rjmp .L85
 574               	.L86:
 575 03de D601      		movw r26,r12
 576 03e0 8C91      		ld r24,X
 577 03e2 8530      		cpi r24,lo8(5)
 578 03e4 01F0      		breq .L90
 579 03e6 8630      		cpi r24,lo8(6)
 580 03e8 00F4      		brsh .L93
 581 03ea 8130      		cpi r24,lo8(1)
 582 03ec 01F0      		breq .L88
 583 03ee 8330      		cpi r24,lo8(3)
 584 03f0 01F4      		brne .L87
 585 03f2 00C0      		rjmp .L89
 586               	.L93:
 587 03f4 8730      		cpi r24,lo8(7)
 588 03f6 01F0      		breq .L92
 589 03f8 8830      		cpi r24,lo8(8)
 590 03fa 01F4      		brne .L87
 591 03fc 00C0      		rjmp .L92
 592               	.L88:
 593 03fe F601      		movw r30,r12
 594 0400 8281      		ldd r24,Z+2
 595 0402 9381      		ldd r25,Z+3
 596               	/* #APP */
 597 0404 082E      		mov __tmp_reg__, r24
 598 0406 892F      		mov r24, r25
 599 0408 902D      		mov r25, __tmp_reg__
 600               		
 601               	/* #NOAPP */
 602 040a 8C5D      		subi r24,lo8(1500)
 603 040c 9540      		sbci r25,hi8(1500)
 604 040e 01F0      		breq .L87
 605 0410 00C0      		rjmp .L92
 606               	.L89:
 607 0412 F601      		movw r30,r12
 608 0414 8281      		ldd r24,Z+2
 609 0416 9381      		ldd r25,Z+3
 610               	/* #APP */
 611 0418 082E      		mov __tmp_reg__, r24
 612 041a 892F      		mov r24, r25
 613 041c 902D      		mov r25, __tmp_reg__
 614               		
 615               	/* #NOAPP */
 616 041e 2F85      		ldd r18,Y+15
 617 0420 3889      		ldd r19,Y+16
 618 0422 8217      		cp r24,r18
 619 0424 9307      		cpc r25,r19
 620 0426 01F0      		breq .L87
 621 0428 00C0      		rjmp .L92
 622               	.L90:
 623 042a F601      		movw r30,r12
 624 042c 2281      		ldd r18,Z+2
 625 042e 3381      		ldd r19,Z+3
 626 0430 4481      		ldd r20,Z+4
 627 0432 5581      		ldd r21,Z+5
GAS LISTING C:\Users\Bart\AppData\Local\Temp/ccMmglNG.s 			page 12


 628 0434 8989      		ldd r24,Y+17
 629 0436 9A89      		ldd r25,Y+18
 630 0438 AB89      		ldd r26,Y+19
 631 043a BC89      		ldd r27,Y+20
 632 043c 2817      		cp r18,r24
 633 043e 3907      		cpc r19,r25
 634 0440 4A07      		cpc r20,r26
 635 0442 5B07      		cpc r21,r27
 636 0444 01F4      		brne .L92
 637 0446 2D8B      		std Y+21,r18
 638 0448 3E8B      		std Y+22,r19
 639 044a 4F8B      		std Y+23,r20
 640 044c 588F      		std Y+24,r21
 641 044e 00C0      		rjmp .L87
 642               	.L92:
 643 0450 1D82      		std Y+5,__zero_reg__
 644               	.L87:
 645 0452 F601      		movw r30,r12
 646 0454 8181      		ldd r24,Z+1
 647 0456 9927      		clr r25
 648 0458 681B      		sub r22,r24
 649 045a 790B      		sbc r23,r25
 650 045c C80E      		add r12,r24
 651 045e D91E      		adc r13,r25
 652               	.L85:
 653 0460 6230      		cpi r22,2
 654 0462 7105      		cpc r23,__zero_reg__
 655 0464 00F0      		brlo .+2
 656 0466 00C0      		rjmp .L86
 657               	.L82:
 658 0468 C801      		movw r24,r16
 659 046a 0E94 0000 		call NutNetBufFree
 660 046e 8D81      		ldd r24,Y+5
 661 0470 8823      		tst r24
 662 0472 01F4      		brne .+2
 663 0474 00C0      		rjmp .L129
 664 0476 8A81      		ldd r24,Y+2
 665 0478 8630      		cpi r24,lo8(6)
 666 047a 01F0      		breq .L100
 667 047c 8730      		cpi r24,lo8(7)
 668 047e 00F4      		brsh .L104
 669 0480 8250      		subi r24,lo8(-(-2))
 670 0482 8230      		cpi r24,lo8(2)
 671 0484 00F0      		brlo .+2
 672 0486 00C0      		rjmp .L129
 673 0488 00C0      		rjmp .L134
 674               	.L104:
 675 048a 8830      		cpi r24,lo8(8)
 676 048c 01F0      		breq .L102
 677 048e 8830      		cpi r24,lo8(8)
 678 0490 00F4      		brsh .+2
 679 0492 00C0      		rjmp .L144
 680 0494 8930      		cpi r24,lo8(9)
 681 0496 01F0      		breq .+2
 682 0498 00C0      		rjmp .L129
 683 049a 00C0      		rjmp .L145
 684               	.L134:
GAS LISTING C:\Users\Bart\AppData\Local\Temp/ccMmglNG.s 			page 13


 685 049c 20E0      		ldi r18,lo8(0)
 686 049e 30E0      		ldi r19,hi8(0)
 687 04a0 4F2D      		mov r20,r15
 688               	.L143:
 689 04a2 66E0      		ldi r22,lo8(6)
 690 04a4 00C0      		rjmp .L139
 691               	.L100:
 692 04a6 87E0      		ldi r24,lo8(7)
 693 04a8 8A83      		std Y+2,r24
 694 04aa 19AE      		std Y+57,__zero_reg__
 695 04ac 00C0      		rjmp .L129
 696               	.L102:
 697 04ae 89E0      		ldi r24,lo8(9)
 698 04b0 8A83      		std Y+2,r24
 699 04b2 8F85      		ldd r24,Y+15
 700 04b4 9889      		ldd r25,Y+16
 701 04b6 8352      		subi r24,lo8(-16349)
 702 04b8 904C      		sbci r25,hi8(-16349)
 703 04ba 01F4      		brne .+2
 704 04bc 00C0      		rjmp .L131
 705 04be C501      		movw r24,r10
 706 04c0 0E94 0000 		call IpcpLowerUp
 707 04c4 00C0      		rjmp .L129
 708               	.L21:
 709 04c6 F180      		ldd r15,Z+1
 710 04c8 F501      		movw r30,r10
 711 04ca C189      		ldd r28,Z+17
 712 04cc D289      		ldd r29,Z+18
 713 04ce 8B81      		ldd r24,Y+3
 714 04d0 F816      		cp r15,r24
 715 04d2 01F0      		breq .+2
 716 04d4 00C0      		rjmp .L132
 717 04d6 8D81      		ldd r24,Y+5
 718 04d8 8823      		tst r24
 719 04da 01F0      		breq .+2
 720 04dc 00C0      		rjmp .L132
 721 04de 81E0      		ldi r24,lo8(1)
 722 04e0 8D83      		std Y+5,r24
 723 04e2 FB01      		movw r30,r22
 724 04e4 A785      		ldd r26,Z+15
 725 04e6 B089      		ldd r27,Z+16
 726 04e8 2189      		ldd r18,Z+17
 727 04ea 3289      		ldd r19,Z+18
 728 04ec 00C0      		rjmp .L110
 729               	.L111:
 730 04ee FD01      		movw r30,r26
 731 04f0 8181      		ldd r24,Z+1
 732 04f2 9927      		clr r25
 733 04f4 281B      		sub r18,r24
 734 04f6 390B      		sbc r19,r25
 735 04f8 A80F      		add r26,r24
 736 04fa B91F      		adc r27,r25
 737               	.L110:
 738 04fc 2230      		cpi r18,2
 739 04fe 3105      		cpc r19,__zero_reg__
 740 0500 00F4      		brsh .L111
 741 0502 C801      		movw r24,r16
GAS LISTING C:\Users\Bart\AppData\Local\Temp/ccMmglNG.s 			page 14


 742 0504 0E94 0000 		call NutNetBufFree
 743 0508 8A81      		ldd r24,Y+2
 744 050a 8630      		cpi r24,lo8(6)
 745 050c 01F4      		brne .+2
 746 050e 00C0      		rjmp .L142
 747 0510 8730      		cpi r24,lo8(7)
 748 0512 00F4      		brsh .L117
 749 0514 8250      		subi r24,lo8(-(-2))
 750 0516 8230      		cpi r24,lo8(2)
 751 0518 00F0      		brlo .+2
 752 051a 00C0      		rjmp .L129
 753 051c 00C0      		rjmp .L134
 754               	.L117:
 755 051e 8830      		cpi r24,lo8(8)
 756 0520 01F4      		brne .+2
 757 0522 00C0      		rjmp .L142
 758 0524 8830      		cpi r24,lo8(8)
 759 0526 00F0      		brlo .L144
 760 0528 8930      		cpi r24,lo8(9)
 761 052a 01F0      		breq .+2
 762 052c 00C0      		rjmp .L129
 763               	.L145:
 764 052e C501      		movw r24,r10
 765 0530 0E94 0000 		call IpcpLowerDown
 766               	.L144:
 767 0534 6B81      		ldd r22,Y+3
 768 0536 6F5F      		subi r22,lo8(-(1))
 769 0538 6B83      		std Y+3,r22
 770 053a C501      		movw r24,r10
 771 053c 0E94 0000 		call LcpTxConfReq
 772 0540 00C0      		rjmp .L140
 773               	.L22:
 774 0542 E180      		ldd r14,Z+1
 775 0544 F501      		movw r30,r10
 776 0546 C189      		ldd r28,Z+17
 777 0548 D289      		ldd r29,Z+18
 778 054a CB01      		movw r24,r22
 779 054c 0E94 0000 		call NutNetBufFree
 780 0550 8A81      		ldd r24,Y+2
 781 0552 8730      		cpi r24,lo8(7)
 782 0554 00F0      		brlo .L118
 783 0556 8930      		cpi r24,lo8(9)
 784 0558 00F0      		brlo .L119
 785 055a 8930      		cpi r24,lo8(9)
 786 055c 01F4      		brne .L118
 787 055e 00C0      		rjmp .L120
 788               	.L119:
 789 0560 86E0      		ldi r24,lo8(6)
 790 0562 8A83      		std Y+2,r24
 791 0564 00C0      		rjmp .L118
 792               	.L120:
 793 0566 C501      		movw r24,r10
 794 0568 0E94 0000 		call IpcpLowerDown
 795 056c FA82      		std Y+2,r15
 796               	.L118:
 797 056e 20E0      		ldi r18,lo8(0)
 798 0570 30E0      		ldi r19,hi8(0)
GAS LISTING C:\Users\Bart\AppData\Local\Temp/ccMmglNG.s 			page 15


 799 0572 4E2D      		mov r20,r14
 800 0574 00C0      		rjmp .L143
 801               	.L23:
 802 0576 F501      		movw r30,r10
 803 0578 C189      		ldd r28,Z+17
 804 057a D289      		ldd r29,Z+18
 805 057c CB01      		movw r24,r22
 806 057e 0E94 0000 		call NutNetBufFree
 807 0582 8A81      		ldd r24,Y+2
 808 0584 8530      		cpi r24,lo8(5)
 809 0586 01F0      		breq .L122
 810 0588 8630      		cpi r24,lo8(6)
 811 058a 00F4      		brsh .L125
 812 058c 8430      		cpi r24,lo8(4)
 813 058e 01F0      		breq .+2
 814 0590 00C0      		rjmp .L129
 815 0592 00C0      		rjmp .L121
 816               	.L125:
 817 0594 8730      		cpi r24,lo8(7)
 818 0596 01F0      		breq .L123
 819 0598 8930      		cpi r24,lo8(9)
 820 059a 01F0      		breq .+2
 821 059c 00C0      		rjmp .L129
 822 059e 00C0      		rjmp .L124
 823               	.L121:
 824 05a0 82E0      		ldi r24,lo8(2)
 825 05a2 00C0      		rjmp .L141
 826               	.L122:
 827 05a4 83E0      		ldi r24,lo8(3)
 828 05a6 00C0      		rjmp .L141
 829               	.L123:
 830 05a8 FA82      		std Y+2,r15
 831 05aa 00C0      		rjmp .L129
 832               	.L124:
 833 05ac C501      		movw r24,r10
 834 05ae 0E94 0000 		call IpcpLowerDown
 835               	.L142:
 836 05b2 6B81      		ldd r22,Y+3
 837 05b4 6F5F      		subi r22,lo8(-(1))
 838 05b6 6B83      		std Y+3,r22
 839 05b8 C501      		movw r24,r10
 840 05ba 0E94 0000 		call LcpTxConfReq
 841 05be 00C0      		rjmp .L129
 842               	.L24:
 843 05c0 F501      		movw r30,r10
 844 05c2 C189      		ldd r28,Z+17
 845 05c4 D289      		ldd r29,Z+18
 846 05c6 CB01      		movw r24,r22
 847 05c8 0E94 0000 		call NutNetBufFree
 848 05cc 8A81      		ldd r24,Y+2
 849 05ce 8730      		cpi r24,lo8(7)
 850 05d0 01F4      		brne .L129
 851               	.L140:
 852 05d2 86E0      		ldi r24,lo8(6)
 853               	.L141:
 854 05d4 8A83      		std Y+2,r24
 855 05d6 00C0      		rjmp .L129
GAS LISTING C:\Users\Bart\AppData\Local\Temp/ccMmglNG.s 			page 16


 856               	.L25:
 857 05d8 4181      		ldd r20,Z+1
 858 05da E501      		movw r28,r10
 859 05dc A989      		ldd r26,Y+17
 860 05de BA89      		ldd r27,Y+18
 861 05e0 ED01      		movw r28,r26
 862 05e2 8A81      		ldd r24,Y+2
 863 05e4 8930      		cpi r24,lo8(9)
 864 05e6 01F4      		brne .L132
 865 05e8 8D89      		ldd r24,Y+21
 866 05ea 9E89      		ldd r25,Y+22
 867 05ec AF89      		ldd r26,Y+23
 868 05ee B88D      		ldd r27,Y+24
 869 05f0 8483      		std Z+4,r24
 870 05f2 9583      		std Z+5,r25
 871 05f4 A683      		std Z+6,r26
 872 05f6 B783      		std Z+7,r27
 873 05f8 9B01      		movw r18,r22
 874 05fa 6AE0      		ldi r22,lo8(10)
 875               	.L139:
 876 05fc C501      		movw r24,r10
 877 05fe 0E94 0000 		call NutLcpOutput
 878 0602 00C0      		rjmp .L129
 879               	.L37:
 880 0604 9701      		movw r18,r14
 881 0606 00C0      		rjmp .L39
 882               	.L67:
 883 0608 CE14      		cp r12,r14
 884 060a DF04      		cpc r13,r15
 885 060c 01F0      		breq .+2
 886 060e 00C0      		rjmp .L71
 887 0610 00C0      		rjmp .L72
 888               	.L74:
 889 0612 9801      		movw r18,r16
 890 0614 452D      		mov r20,r5
 891 0616 62E0      		ldi r22,lo8(2)
 892 0618 C501      		movw r24,r10
 893 061a 0E94 0000 		call NutLcpOutput
 894 061e 8A81      		ldd r24,Y+2
 895 0620 8730      		cpi r24,lo8(7)
 896 0622 01F0      		breq .+2
 897 0624 00C0      		rjmp .L136
 898 0626 00C0      		rjmp .L77
 899               	.L132:
 900 0628 C801      		movw r24,r16
 901 062a 0E94 0000 		call NutNetBufFree
 902 062e 00C0      		rjmp .L129
 903               	.L131:
 904 0630 6B81      		ldd r22,Y+3
 905 0632 6F5F      		subi r22,lo8(-(1))
 906 0634 6B83      		std Y+3,r22
 907 0636 C501      		movw r24,r10
 908 0638 0E94 0000 		call PapTxAuthReq
 909               	.L129:
 910               	/* epilogue: frame size=0 */
 911 063c DF91      		pop r29
 912 063e CF91      		pop r28
GAS LISTING C:\Users\Bart\AppData\Local\Temp/ccMmglNG.s 			page 17


 913 0640 1F91      		pop r17
 914 0642 0F91      		pop r16
 915 0644 FF90      		pop r15
 916 0646 EF90      		pop r14
 917 0648 DF90      		pop r13
 918 064a CF90      		pop r12
 919 064c BF90      		pop r11
 920 064e AF90      		pop r10
 921 0650 9F90      		pop r9
 922 0652 8F90      		pop r8
 923 0654 7F90      		pop r7
 924 0656 6F90      		pop r6
 925 0658 5F90      		pop r5
 926 065a 0895      		ret
 927               	/* epilogue end (size=16) */
 928               	/* function NutLcpInput size 819 (788) */
 929               		.size	NutLcpInput, .-NutLcpInput
 930               	/* File "D:/Git/TI-2A3-InternetMediaCenter/tools/ethernut-4.3.3/nut/net/lcpin.c": code  865 = 0x036
GAS LISTING C:\Users\Bart\AppData\Local\Temp/ccMmglNG.s 			page 18


DEFINED SYMBOLS
                            *ABS*:00000000 lcpin.c
C:\Users\Bart\AppData\Local\Temp/ccMmglNG.s:3      *ABS*:0000003f __SREG__
C:\Users\Bart\AppData\Local\Temp/ccMmglNG.s:4      *ABS*:0000003e __SP_H__
C:\Users\Bart\AppData\Local\Temp/ccMmglNG.s:5      *ABS*:0000003d __SP_L__
C:\Users\Bart\AppData\Local\Temp/ccMmglNG.s:6      *ABS*:00000000 __tmp_reg__
C:\Users\Bart\AppData\Local\Temp/ccMmglNG.s:7      *ABS*:00000001 __zero_reg__
C:\Users\Bart\AppData\Local\Temp/ccMmglNG.s:13     .text:00000000 LcpRxProtRej
C:\Users\Bart\AppData\Local\Temp/ccMmglNG.s:72     .text:0000005c NutLcpInput

UNDEFINED SYMBOLS
__do_copy_data
__do_clear_bss
IpcpLowerDown
NutIpcpOutput
NutNetBufFree
LcpTxConfReq
NutSleep
new_magic
NutLcpOutput
PapTxAuthReq
IpcpLowerUp
