GAS LISTING C:\Users\Bart\AppData\Local\Temp/ccDNZuwb.s 			page 1


   1               		.file	"netdebug.c"
   2               		.arch atmega2561
   3               	__SREG__ = 0x3f
   4               	__SP_H__ = 0x3e
   5               	__SP_L__ = 0x3d
   6               	__tmp_reg__ = 0
   7               	__zero_reg__ = 1
   8               		.global __do_copy_data
   9               		.global __do_clear_bss
  10               		.text
  11               	.global	NutTraceTcp
  12               		.type	NutTraceTcp, @function
  13               	NutTraceTcp:
  14               	/* prologue: frame size=0 */
  15               	/* prologue end (size=0) */
  16 0000 0097      		sbiw r24,0
  17 0002 01F0      		breq .L2
  18 0004 9093 0000 		sts (__tcp_trs)+1,r25
  19 0008 8093 0000 		sts __tcp_trs,r24
  20 000c 00C0      		rjmp .L4
  21               	.L2:
  22 000e 8091 0000 		lds r24,__tcp_trs
  23 0012 9091 0000 		lds r25,(__tcp_trs)+1
  24 0016 892B      		or r24,r25
  25 0018 01F0      		breq .L5
  26               	.L4:
  27 001a 6093 0000 		sts __tcp_trf,r22
  28 001e 0895      		ret
  29               	.L5:
  30 0020 1092 0000 		sts __tcp_trf,__zero_reg__
  31 0024 0895      		ret
  32               	/* epilogue: frame size=0 */
  33               	/* epilogue: noreturn */
  34               	/* epilogue end (size=0) */
  35               	/* function NutTraceTcp size 19 (19) */
  36               		.size	NutTraceTcp, .-NutTraceTcp
  37               		.data
  38               	.LC0:
  39 0000 4C49 5354 		.string	"LISTEN"
  39      454E 00
  40               	.LC1:
  41 0007 5359 4E53 		.string	"SYNSENT"
  41      454E 5400 
  42               	.LC2:
  43 000f 5359 4E52 		.string	"SYNRCVD"
  43      4356 4400 
  44               	.LC3:
  45 0017 4553 5441 		.string	"ESTABL"
  45      424C 00
  46               	.LC4:
  47 001e 4649 4E57 		.string	"FINWAIT1"
  47      4149 5431 
  47      00
  48               	.LC5:
  49 0027 4649 4E57 		.string	"FINWAIT2"
  49      4149 5432 
  49      00
GAS LISTING C:\Users\Bart\AppData\Local\Temp/ccDNZuwb.s 			page 2


  50               	.LC6:
  51 0030 434C 4F53 		.string	"CLOSEWAIT"
  51      4557 4149 
  51      5400 
  52               	.LC7:
  53 003a 434C 4F53 		.string	"CLOSING"
  53      494E 4700 
  54               	.LC8:
  55 0042 4C41 5354 		.string	"LASTACK"
  55      4143 4B00 
  56               	.LC9:
  57 004a 5449 4D45 		.string	"TIMEWAIT"
  57      5741 4954 
  57      00
  58               	.LC10:
  59 0053 434C 4F53 		.string	"CLOSED"
  59      4544 00
  60               	.LC11:
  61 005a 3F55 4E4B 		.string	"?UNK?"
  61      3F00 
  62               		.text
  63               	.global	NutDumpSockState
  64               		.type	NutDumpSockState, @function
  65               	NutDumpSockState:
  66               	/* prologue: frame size=0 */
  67 0026 EF92      		push r14
  68 0028 FF92      		push r15
  69 002a 1F93      		push r17
  70 002c CF93      		push r28
  71 002e DF93      		push r29
  72               	/* prologue end (size=5) */
  73 0030 EC01      		movw r28,r24
  74 0032 162F      		mov r17,r22
  75 0034 7901      		movw r14,r18
  76 0036 4115      		cp r20,__zero_reg__
  77 0038 5105      		cpc r21,__zero_reg__
  78 003a 01F0      		breq .L9
  79 003c BC01      		movw r22,r24
  80 003e CA01      		movw r24,r20
  81 0040 0E94 0000 		call fputs
  82               	.L9:
  83 0044 1530      		cpi r17,lo8(5)
  84 0046 01F0      		breq .L17
  85 0048 1630      		cpi r17,lo8(6)
  86 004a 00F4      		brsh .L23
  87 004c 1230      		cpi r17,lo8(2)
  88 004e 01F0      		breq .L14
  89 0050 1330      		cpi r17,lo8(3)
  90 0052 00F4      		brsh .L24
  91 0054 1123      		tst r17
  92 0056 01F4      		brne .+2
  93 0058 00C0      		rjmp .L12
  94 005a 1130      		cpi r17,lo8(1)
  95 005c 01F0      		breq .+2
  96 005e 00C0      		rjmp .L11
  97 0060 00C0      		rjmp .L13
  98               	.L24:
GAS LISTING C:\Users\Bart\AppData\Local\Temp/ccDNZuwb.s 			page 3


  99 0062 1330      		cpi r17,lo8(3)
 100 0064 01F0      		breq .L15
 101 0066 1430      		cpi r17,lo8(4)
 102 0068 01F4      		brne .L11
 103 006a 00C0      		rjmp .L16
 104               	.L23:
 105 006c 1830      		cpi r17,lo8(8)
 106 006e 01F0      		breq .L20
 107 0070 1930      		cpi r17,lo8(9)
 108 0072 00F4      		brsh .L25
 109 0074 1630      		cpi r17,lo8(6)
 110 0076 01F0      		breq .L18
 111 0078 1730      		cpi r17,lo8(7)
 112 007a 01F4      		brne .L11
 113 007c 00C0      		rjmp .L19
 114               	.L25:
 115 007e 1930      		cpi r17,lo8(9)
 116 0080 01F0      		breq .L21
 117 0082 1A30      		cpi r17,lo8(10)
 118 0084 01F4      		brne .L11
 119 0086 00C0      		rjmp .L22
 120               	.L13:
 121 0088 BE01      		movw r22,r28
 122 008a 80E0      		ldi r24,lo8(.LC0)
 123 008c 90E0      		ldi r25,hi8(.LC0)
 124 008e 00C0      		rjmp .L30
 125               	.L14:
 126 0090 BE01      		movw r22,r28
 127 0092 80E0      		ldi r24,lo8(.LC1)
 128 0094 90E0      		ldi r25,hi8(.LC1)
 129 0096 00C0      		rjmp .L30
 130               	.L15:
 131 0098 BE01      		movw r22,r28
 132 009a 80E0      		ldi r24,lo8(.LC2)
 133 009c 90E0      		ldi r25,hi8(.LC2)
 134 009e 00C0      		rjmp .L30
 135               	.L16:
 136 00a0 BE01      		movw r22,r28
 137 00a2 80E0      		ldi r24,lo8(.LC3)
 138 00a4 90E0      		ldi r25,hi8(.LC3)
 139 00a6 00C0      		rjmp .L30
 140               	.L18:
 141 00a8 BE01      		movw r22,r28
 142 00aa 80E0      		ldi r24,lo8(.LC4)
 143 00ac 90E0      		ldi r25,hi8(.LC4)
 144 00ae 00C0      		rjmp .L30
 145               	.L21:
 146 00b0 BE01      		movw r22,r28
 147 00b2 80E0      		ldi r24,lo8(.LC5)
 148 00b4 90E0      		ldi r25,hi8(.LC5)
 149 00b6 00C0      		rjmp .L30
 150               	.L17:
 151 00b8 BE01      		movw r22,r28
 152 00ba 80E0      		ldi r24,lo8(.LC6)
 153 00bc 90E0      		ldi r25,hi8(.LC6)
 154 00be 00C0      		rjmp .L30
 155               	.L19:
GAS LISTING C:\Users\Bart\AppData\Local\Temp/ccDNZuwb.s 			page 4


 156 00c0 BE01      		movw r22,r28
 157 00c2 80E0      		ldi r24,lo8(.LC7)
 158 00c4 90E0      		ldi r25,hi8(.LC7)
 159 00c6 00C0      		rjmp .L30
 160               	.L20:
 161 00c8 BE01      		movw r22,r28
 162 00ca 80E0      		ldi r24,lo8(.LC8)
 163 00cc 90E0      		ldi r25,hi8(.LC8)
 164 00ce 00C0      		rjmp .L30
 165               	.L22:
 166 00d0 BE01      		movw r22,r28
 167 00d2 80E0      		ldi r24,lo8(.LC9)
 168 00d4 90E0      		ldi r25,hi8(.LC9)
 169 00d6 00C0      		rjmp .L30
 170               	.L12:
 171 00d8 BE01      		movw r22,r28
 172 00da 80E0      		ldi r24,lo8(.LC10)
 173 00dc 90E0      		ldi r25,hi8(.LC10)
 174 00de 00C0      		rjmp .L30
 175               	.L11:
 176 00e0 BE01      		movw r22,r28
 177 00e2 80E0      		ldi r24,lo8(.LC11)
 178 00e4 90E0      		ldi r25,hi8(.LC11)
 179               	.L30:
 180 00e6 0E94 0000 		call fputs
 181 00ea E114      		cp r14,__zero_reg__
 182 00ec F104      		cpc r15,__zero_reg__
 183 00ee 01F0      		breq .L29
 184 00f0 BE01      		movw r22,r28
 185 00f2 C701      		movw r24,r14
 186 00f4 0E94 0000 		call fputs
 187               	.L29:
 188               	/* epilogue: frame size=0 */
 189 00f8 DF91      		pop r29
 190 00fa CF91      		pop r28
 191 00fc 1F91      		pop r17
 192 00fe FF90      		pop r15
 193 0100 EF90      		pop r14
 194 0102 0895      		ret
 195               	/* epilogue end (size=6) */
 196               	/* function NutDumpSockState size 110 (99) */
 197               		.size	NutDumpSockState, .-NutDumpSockState
 198               		.data
 199               	.LC12:
 200 0060 0D0A 536F 		.ascii	"\r\nSoc"
 200      63
 201 0065 6B65 7420 		.string	"ket     Typ Local                  Remote                 State\n"
 201      2020 2020 
 201      5479 7020 
 201      4C6F 6361 
 201      6C20 2020 
 202               	.LC13:
 203 00a6 2531 3573 		.string	"%15s:%-6u "
 203      3A25 2D36 
 203      7520 00
 204               	.LC14:
 205 00b1 0D0A 00   		.string	"\r\n"
GAS LISTING C:\Users\Bart\AppData\Local\Temp/ccDNZuwb.s 			page 5


 206               		.text
 207               	.global	NutDumpSocketList
 208               		.type	NutDumpSocketList, @function
 209               	NutDumpSocketList:
 210               	/* prologue: frame size=0 */
 211 0104 EF92      		push r14
 212 0106 FF92      		push r15
 213 0108 0F93      		push r16
 214 010a 1F93      		push r17
 215 010c CF93      		push r28
 216 010e DF93      		push r29
 217               	/* prologue end (size=6) */
 218 0110 7C01      		movw r14,r24
 219 0112 BC01      		movw r22,r24
 220 0114 80E0      		ldi r24,lo8(.LC12)
 221 0116 90E0      		ldi r25,hi8(.LC12)
 222 0118 0E94 0000 		call fputs
 223 011c C091 0000 		lds r28,tcpSocketList
 224 0120 D091 0000 		lds r29,(tcpSocketList)+1
 225 0124 00C0      		rjmp .L32
 226               	.L33:
 227 0126 088D      		ldd r16,Y+24
 228 0128 198D      		ldd r17,Y+25
 229               	/* #APP */
 230 012a 002E      		mov __tmp_reg__, r16
 231 012c 012F      		mov r16, r17
 232 012e 102D      		mov r17, __tmp_reg__
 233               		
 234               	/* #NOAPP */
 235 0130 6C89      		ldd r22,Y+20
 236 0132 7D89      		ldd r23,Y+21
 237 0134 8E89      		ldd r24,Y+22
 238 0136 9F89      		ldd r25,Y+23
 239 0138 0E94 0000 		call inet_ntoa
 240 013c 1F93      		push r17
 241 013e 0F93      		push r16
 242 0140 9F93      		push r25
 243 0142 8F93      		push r24
 244 0144 DF93      		push r29
 245 0146 CF93      		push r28
 246 0148 80E0      		ldi r24,lo8(fmt1.2257)
 247 014a 90E0      		ldi r25,hi8(fmt1.2257)
 248 014c 9F93      		push r25
 249 014e 8F93      		push r24
 250 0150 FF92      		push r15
 251 0152 EF92      		push r14
 252 0154 0E94 0000 		call fprintf_P
 253 0158 0E8D      		ldd r16,Y+30
 254 015a 1F8D      		ldd r17,Y+31
 255               	/* #APP */
 256 015c 002E      		mov __tmp_reg__, r16
 257 015e 012F      		mov r16, r17
 258 0160 102D      		mov r17, __tmp_reg__
 259               		
 260               	/* #NOAPP */
 261 0162 6A8D      		ldd r22,Y+26
 262 0164 7B8D      		ldd r23,Y+27
GAS LISTING C:\Users\Bart\AppData\Local\Temp/ccDNZuwb.s 			page 6


 263 0166 8C8D      		ldd r24,Y+28
 264 0168 9D8D      		ldd r25,Y+29
 265 016a 0E94 0000 		call inet_ntoa
 266 016e 1F93      		push r17
 267 0170 0F93      		push r16
 268 0172 9F93      		push r25
 269 0174 8F93      		push r24
 270 0176 80E0      		ldi r24,lo8(.LC13)
 271 0178 90E0      		ldi r25,hi8(.LC13)
 272 017a 9F93      		push r25
 273 017c 8F93      		push r24
 274 017e FF92      		push r15
 275 0180 EF92      		push r14
 276 0182 0E94 0000 		call fprintf
 277 0186 6B89      		ldd r22,Y+19
 278 0188 20E0      		ldi r18,lo8(.LC14)
 279 018a 30E0      		ldi r19,hi8(.LC14)
 280 018c 40E0      		ldi r20,lo8(0)
 281 018e 50E0      		ldi r21,hi8(0)
 282 0190 C701      		movw r24,r14
 283 0192 0E94 0000 		call NutDumpSockState
 284 0196 0990      		ld __tmp_reg__,Y+
 285 0198 D881      		ld r29,Y
 286 019a C02D      		mov r28,__tmp_reg__
 287 019c 8DB7      		in r24,__SP_L__
 288 019e 9EB7      		in r25,__SP_H__
 289 01a0 4296      		adiw r24,18
 290 01a2 0FB6      		in __tmp_reg__,__SREG__
 291 01a4 F894      		cli
 292 01a6 9EBF      		out __SP_H__,r25
 293 01a8 0FBE      		out __SREG__,__tmp_reg__
 294 01aa 8DBF      		out __SP_L__,r24
 295               	.L32:
 296 01ac 2097      		sbiw r28,0
 297 01ae 01F0      		breq .+2
 298 01b0 00C0      		rjmp .L33
 299 01b2 C091 0000 		lds r28,udpSocketList
 300 01b6 D091 0000 		lds r29,(udpSocketList)+1
 301 01ba 00C0      		rjmp .L35
 302               	.L36:
 303 01bc 8A81      		ldd r24,Y+2
 304 01be 9B81      		ldd r25,Y+3
 305               	/* #APP */
 306 01c0 082E      		mov __tmp_reg__, r24
 307 01c2 892F      		mov r24, r25
 308 01c4 902D      		mov r25, __tmp_reg__
 309               		
 310               	/* #NOAPP */
 311 01c6 9F93      		push r25
 312 01c8 8F93      		push r24
 313 01ca DF93      		push r29
 314 01cc CF93      		push r28
 315 01ce 80E0      		ldi r24,lo8(fmt2.2258)
 316 01d0 90E0      		ldi r25,hi8(fmt2.2258)
 317 01d2 9F93      		push r25
 318 01d4 8F93      		push r24
 319 01d6 FF92      		push r15
GAS LISTING C:\Users\Bart\AppData\Local\Temp/ccDNZuwb.s 			page 7


 320 01d8 EF92      		push r14
 321 01da 0E94 0000 		call fprintf_P
 322 01de 0990      		ld __tmp_reg__,Y+
 323 01e0 D881      		ld r29,Y
 324 01e2 C02D      		mov r28,__tmp_reg__
 325 01e4 8DB7      		in r24,__SP_L__
 326 01e6 9EB7      		in r25,__SP_H__
 327 01e8 0896      		adiw r24,8
 328 01ea 0FB6      		in __tmp_reg__,__SREG__
 329 01ec F894      		cli
 330 01ee 9EBF      		out __SP_H__,r25
 331 01f0 0FBE      		out __SREG__,__tmp_reg__
 332 01f2 8DBF      		out __SP_L__,r24
 333               	.L35:
 334 01f4 2097      		sbiw r28,0
 335 01f6 01F4      		brne .L36
 336               	/* epilogue: frame size=0 */
 337 01f8 DF91      		pop r29
 338 01fa CF91      		pop r28
 339 01fc 1F91      		pop r17
 340 01fe 0F91      		pop r16
 341 0200 FF90      		pop r15
 342 0202 EF90      		pop r14
 343 0204 0895      		ret
 344               	/* epilogue end (size=7) */
 345               	/* function NutDumpSocketList size 144 (131) */
 346               		.size	NutDumpSocketList, .-NutDumpSocketList
 347               		.data
 348               	.LC15:
 349 00b4 2D41 434B 		.string	"-ACK(%lx)"
 349      2825 6C78 
 349      2900 
 350               	.LC16:
 351 00be 2D46 494E 		.string	"-FIN"
 351      00
 352               	.LC17:
 353 00c3 2D53 594E 		.string	"-SYN"
 353      00
 354               	.LC18:
 355 00c8 2D52 5354 		.string	"-RST"
 355      00
 356               	.LC19:
 357 00cd 2D50 5348 		.string	"-PSH"
 357      00
 358               	.LC20:
 359 00d2 2D55 5247 		.string	"-URG"
 359      00
 360               		.text
 361               	.global	NutDumpTcpHeader
 362               		.type	NutDumpTcpHeader, @function
 363               	NutDumpTcpHeader:
 364               	/* prologue: frame size=0 */
 365 0206 0F93      		push r16
 366 0208 1F93      		push r17
 367 020a CF93      		push r28
 368 020c DF93      		push r29
 369               	/* prologue end (size=4) */
GAS LISTING C:\Users\Bart\AppData\Local\Temp/ccDNZuwb.s 			page 8


 370 020e 8C01      		movw r16,r24
 371 0210 F901      		movw r30,r18
 372 0212 C385      		ldd r28,Z+11
 373 0214 D485      		ldd r29,Z+12
 374 0216 8C81      		ldd r24,Y+4
 375 0218 9D81      		ldd r25,Y+5
 376 021a AE81      		ldd r26,Y+6
 377 021c BF81      		ldd r27,Y+7
 378               	/* #APP */
 379 021e 082E      		mov __tmp_reg__, r24
 380 0220 8B2F      		mov r24, r27
 381 0222 B02D      		mov r27, __tmp_reg__
 382 0224 092E      		mov __tmp_reg__, r25
 383 0226 9A2F      		mov r25, r26
 384 0228 A02D      		mov r26, __tmp_reg__
 385               		
 386               	/* #NOAPP */
 387 022a BF93      		push r27
 388 022c AF93      		push r26
 389 022e 9F93      		push r25
 390 0230 8F93      		push r24
 391 0232 8189      		ldd r24,Z+17
 392 0234 9289      		ldd r25,Z+18
 393 0236 9F93      		push r25
 394 0238 8F93      		push r24
 395 023a 5F93      		push r21
 396 023c 4F93      		push r20
 397 023e 7F93      		push r23
 398 0240 6F93      		push r22
 399 0242 80E0      		ldi r24,lo8(fmt.2215)
 400 0244 90E0      		ldi r25,hi8(fmt.2215)
 401 0246 9F93      		push r25
 402 0248 8F93      		push r24
 403 024a 1F93      		push r17
 404 024c 0F93      		push r16
 405 024e 0E94 0000 		call fprintf_P
 406 0252 8D85      		ldd r24,Y+13
 407 0254 2DB7      		in r18,__SP_L__
 408 0256 3EB7      		in r19,__SP_H__
 409 0258 225F      		subi r18,lo8(-(14))
 410 025a 3F4F      		sbci r19,hi8(-(14))
 411 025c 0FB6      		in __tmp_reg__,__SREG__
 412 025e F894      		cli
 413 0260 3EBF      		out __SP_H__,r19
 414 0262 0FBE      		out __SREG__,__tmp_reg__
 415 0264 2DBF      		out __SP_L__,r18
 416 0266 84FF      		sbrs r24,4
 417 0268 00C0      		rjmp .L40
 418 026a 8885      		ldd r24,Y+8
 419 026c 9985      		ldd r25,Y+9
 420 026e AA85      		ldd r26,Y+10
 421 0270 BB85      		ldd r27,Y+11
 422               	/* #APP */
 423 0272 082E      		mov __tmp_reg__, r24
 424 0274 8B2F      		mov r24, r27
 425 0276 B02D      		mov r27, __tmp_reg__
 426 0278 092E      		mov __tmp_reg__, r25
GAS LISTING C:\Users\Bart\AppData\Local\Temp/ccDNZuwb.s 			page 9


 427 027a 9A2F      		mov r25, r26
 428 027c A02D      		mov r26, __tmp_reg__
 429               		
 430               	/* #NOAPP */
 431 027e BF93      		push r27
 432 0280 AF93      		push r26
 433 0282 9F93      		push r25
 434 0284 8F93      		push r24
 435 0286 80E0      		ldi r24,lo8(.LC15)
 436 0288 90E0      		ldi r25,hi8(.LC15)
 437 028a 9F93      		push r25
 438 028c 8F93      		push r24
 439 028e 1F93      		push r17
 440 0290 0F93      		push r16
 441 0292 0E94 0000 		call fprintf
 442 0296 8DB7      		in r24,__SP_L__
 443 0298 9EB7      		in r25,__SP_H__
 444 029a 0896      		adiw r24,8
 445 029c 0FB6      		in __tmp_reg__,__SREG__
 446 029e F894      		cli
 447 02a0 9EBF      		out __SP_H__,r25
 448 02a2 0FBE      		out __SREG__,__tmp_reg__
 449 02a4 8DBF      		out __SP_L__,r24
 450               	.L40:
 451 02a6 8D85      		ldd r24,Y+13
 452 02a8 80FF      		sbrs r24,0
 453 02aa 00C0      		rjmp .L42
 454 02ac B801      		movw r22,r16
 455 02ae 80E0      		ldi r24,lo8(.LC16)
 456 02b0 90E0      		ldi r25,hi8(.LC16)
 457 02b2 0E94 0000 		call fputs
 458               	.L42:
 459 02b6 8D85      		ldd r24,Y+13
 460 02b8 81FF      		sbrs r24,1
 461 02ba 00C0      		rjmp .L44
 462 02bc B801      		movw r22,r16
 463 02be 80E0      		ldi r24,lo8(.LC17)
 464 02c0 90E0      		ldi r25,hi8(.LC17)
 465 02c2 0E94 0000 		call fputs
 466               	.L44:
 467 02c6 8D85      		ldd r24,Y+13
 468 02c8 82FF      		sbrs r24,2
 469 02ca 00C0      		rjmp .L46
 470 02cc B801      		movw r22,r16
 471 02ce 80E0      		ldi r24,lo8(.LC18)
 472 02d0 90E0      		ldi r25,hi8(.LC18)
 473 02d2 0E94 0000 		call fputs
 474               	.L46:
 475 02d6 8D85      		ldd r24,Y+13
 476 02d8 83FF      		sbrs r24,3
 477 02da 00C0      		rjmp .L48
 478 02dc B801      		movw r22,r16
 479 02de 80E0      		ldi r24,lo8(.LC19)
 480 02e0 90E0      		ldi r25,hi8(.LC19)
 481 02e2 0E94 0000 		call fputs
 482               	.L48:
 483 02e6 8D85      		ldd r24,Y+13
GAS LISTING C:\Users\Bart\AppData\Local\Temp/ccDNZuwb.s 			page 10


 484 02e8 85FF      		sbrs r24,5
 485 02ea 00C0      		rjmp .L50
 486 02ec B801      		movw r22,r16
 487 02ee 80E0      		ldi r24,lo8(.LC20)
 488 02f0 90E0      		ldi r25,hi8(.LC20)
 489 02f2 0E94 0000 		call fputs
 490               	.L50:
 491 02f6 B801      		movw r22,r16
 492 02f8 8AE0      		ldi r24,lo8(10)
 493 02fa 90E0      		ldi r25,hi8(10)
 494 02fc 0E94 0000 		call fputc
 495               	/* epilogue: frame size=0 */
 496 0300 DF91      		pop r29
 497 0302 CF91      		pop r28
 498 0304 1F91      		pop r17
 499 0306 0F91      		pop r16
 500 0308 0895      		ret
 501               	/* epilogue end (size=5) */
 502               	/* function NutDumpTcpHeader size 146 (137) */
 503               		.size	NutDumpTcpHeader, .-NutDumpTcpHeader
 504               		.section	.progmem.data,"a",@progbits
 505               		.type	fmt2.2258, @object
 506               		.size	fmt2.2258, 15
 507               	fmt2.2258:
 508 0000 2531 3070 		.string	"%10p UDP %6u\r\n"
 508      2055 4450 
 508      2025 3675 
 508      0D0A 00
 509               		.type	fmt1.2257, @object
 510               		.size	fmt1.2257, 20
 511               	fmt1.2257:
 512 000f 2531 3070 		.string	"%10p TCP %15s:%-6u "
 512      2054 4350 
 512      2025 3135 
 512      733A 252D 
 512      3675 2000 
 513               		.type	fmt.2215, @object
 514               		.size	fmt.2215, 18
 515               	fmt.2215:
 516 0023 2573 2570 		.string	"%s%p[%u]-SEQ(%lx)"
 516      5B25 755D 
 516      2D53 4551 
 516      2825 6C78 
 516      2900 
 517               		.comm __tcp_trs,2,1
 518               		.comm __tcp_trf,1,1
 519               	/* File "D:/Git/TI-2A3-InternetMediaCenter/tools/ethernut-4.3.3/nut/net/netdebug.c": code  419 = 0x
GAS LISTING C:\Users\Bart\AppData\Local\Temp/ccDNZuwb.s 			page 11


DEFINED SYMBOLS
                            *ABS*:00000000 netdebug.c
C:\Users\Bart\AppData\Local\Temp/ccDNZuwb.s:3      *ABS*:0000003f __SREG__
C:\Users\Bart\AppData\Local\Temp/ccDNZuwb.s:4      *ABS*:0000003e __SP_H__
C:\Users\Bart\AppData\Local\Temp/ccDNZuwb.s:5      *ABS*:0000003d __SP_L__
C:\Users\Bart\AppData\Local\Temp/ccDNZuwb.s:6      *ABS*:00000000 __tmp_reg__
C:\Users\Bart\AppData\Local\Temp/ccDNZuwb.s:7      *ABS*:00000001 __zero_reg__
C:\Users\Bart\AppData\Local\Temp/ccDNZuwb.s:13     .text:00000000 NutTraceTcp
                            *COM*:00000002 __tcp_trs
                            *COM*:00000001 __tcp_trf
C:\Users\Bart\AppData\Local\Temp/ccDNZuwb.s:65     .text:00000026 NutDumpSockState
C:\Users\Bart\AppData\Local\Temp/ccDNZuwb.s:209    .text:00000104 NutDumpSocketList
C:\Users\Bart\AppData\Local\Temp/ccDNZuwb.s:511    .progmem.data:0000000f fmt1.2257
C:\Users\Bart\AppData\Local\Temp/ccDNZuwb.s:507    .progmem.data:00000000 fmt2.2258
C:\Users\Bart\AppData\Local\Temp/ccDNZuwb.s:363    .text:00000206 NutDumpTcpHeader
C:\Users\Bart\AppData\Local\Temp/ccDNZuwb.s:515    .progmem.data:00000023 fmt.2215

UNDEFINED SYMBOLS
__do_copy_data
__do_clear_bss
fputs
tcpSocketList
inet_ntoa
fprintf_P
fprintf
udpSocketList
fputc
