GAS LISTING C:\DOCUME~1\Arlind\LOCALS~1\Temp/cc3C6tfV.s 			page 1


   1               		.file	"confos.c"
   2               		.arch atmega2561
   3               	__SREG__ = 0x3f
   4               	__SP_H__ = 0x3e
   5               	__SP_L__ = 0x3d
   6               	__tmp_reg__ = 0
   7               	__zero_reg__ = 1
   8               		.global __do_copy_data
   9               		.global __do_clear_bss
  10               		.text
  11               	.global	NutSaveConfig
  12               		.type	NutSaveConfig, @function
  13               	NutSaveConfig:
  14               	/* prologue: frame size=0 */
  15               	/* prologue end (size=0) */
  16 0000 83E1      		ldi r24,lo8(19)
  17 0002 8093 0000 		sts confos,r24
  18 0006 8FE4      		ldi r24,lo8(79)
  19 0008 8093 0000 		sts confos+1,r24
  20 000c 83E5      		ldi r24,lo8(83)
  21 000e 8093 0000 		sts confos+2,r24
  22 0012 43E1      		ldi r20,lo8(19)
  23 0014 50E0      		ldi r21,hi8(19)
  24 0016 60E0      		ldi r22,lo8(confos)
  25 0018 70E0      		ldi r23,hi8(confos)
  26 001a 80E0      		ldi r24,lo8(0)
  27 001c 90E0      		ldi r25,hi8(0)
  28 001e 0E94 0000 		call NutNvMemSave
  29 0022 892B      		or r24,r25
  30 0024 01F0      		breq .L2
  31 0026 8FEF      		ldi r24,lo8(-1)
  32 0028 9FEF      		ldi r25,hi8(-1)
  33 002a 0895      		ret
  34               	.L2:
  35 002c 80E0      		ldi r24,lo8(0)
  36 002e 90E0      		ldi r25,hi8(0)
  37 0030 0895      		ret
  38               	/* epilogue: frame size=0 */
  39               	/* epilogue: noreturn */
  40               	/* epilogue end (size=0) */
  41               	/* function NutSaveConfig size 25 (25) */
  42               		.size	NutSaveConfig, .-NutSaveConfig
  43               	.global	NutLoadConfig
  44               		.type	NutLoadConfig, @function
  45               	NutLoadConfig:
  46               	/* prologue: frame size=0 */
  47               	/* prologue end (size=0) */
  48 0032 43E1      		ldi r20,lo8(19)
  49 0034 50E0      		ldi r21,hi8(19)
  50 0036 60E0      		ldi r22,lo8(confos)
  51 0038 70E0      		ldi r23,hi8(confos)
  52 003a 80E0      		ldi r24,lo8(0)
  53 003c 90E0      		ldi r25,hi8(0)
  54 003e 0E94 0000 		call NutNvMemLoad
  55 0042 892B      		or r24,r25
  56 0044 01F4      		brne .L7
  57 0046 8091 0000 		lds r24,confos
GAS LISTING C:\DOCUME~1\Arlind\LOCALS~1\Temp/cc3C6tfV.s 			page 2


  58 004a 8331      		cpi r24,lo8(19)
  59 004c 01F4      		brne .L7
  60 004e 8091 0000 		lds r24,confos+1
  61 0052 8F34      		cpi r24,lo8(79)
  62 0054 01F4      		brne .L7
  63 0056 8091 0000 		lds r24,confos+2
  64 005a 8335      		cpi r24,lo8(83)
  65 005c 01F4      		brne .L7
  66 005e 80E0      		ldi r24,lo8(0)
  67 0060 90E0      		ldi r25,hi8(0)
  68 0062 0895      		ret
  69               	.L7:
  70 0064 8FEF      		ldi r24,lo8(-1)
  71 0066 9FEF      		ldi r25,hi8(-1)
  72 0068 0895      		ret
  73               	/* epilogue: frame size=0 */
  74               	/* epilogue: noreturn */
  75               	/* epilogue end (size=0) */
  76               	/* function NutLoadConfig size 28 (28) */
  77               		.size	NutLoadConfig, .-NutLoadConfig
  78               		.comm confos,19,1
  79               	/* File "C:/ethernut-4.3.3/nut/os/confos.c": code   53 = 0x0035 (  53), prologues   0, epilogues   
GAS LISTING C:\DOCUME~1\Arlind\LOCALS~1\Temp/cc3C6tfV.s 			page 3


DEFINED SYMBOLS
                            *ABS*:00000000 confos.c
C:\DOCUME~1\Arlind\LOCALS~1\Temp/cc3C6tfV.s:3      *ABS*:0000003f __SREG__
C:\DOCUME~1\Arlind\LOCALS~1\Temp/cc3C6tfV.s:4      *ABS*:0000003e __SP_H__
C:\DOCUME~1\Arlind\LOCALS~1\Temp/cc3C6tfV.s:5      *ABS*:0000003d __SP_L__
C:\DOCUME~1\Arlind\LOCALS~1\Temp/cc3C6tfV.s:6      *ABS*:00000000 __tmp_reg__
C:\DOCUME~1\Arlind\LOCALS~1\Temp/cc3C6tfV.s:7      *ABS*:00000001 __zero_reg__
C:\DOCUME~1\Arlind\LOCALS~1\Temp/cc3C6tfV.s:13     .text:00000000 NutSaveConfig
                            *COM*:00000013 confos
C:\DOCUME~1\Arlind\LOCALS~1\Temp/cc3C6tfV.s:45     .text:00000032 NutLoadConfig

UNDEFINED SYMBOLS
__do_copy_data
__do_clear_bss
NutNvMemSave
NutNvMemLoad
