GAS LISTING C:\DOCUME~1\Arlind\LOCALS~1\Temp/ccXBmsN0.s 			page 1


   1               		.file	"version.c"
   2               		.arch atmega2561
   3               	__SREG__ = 0x3f
   4               	__SP_H__ = 0x3e
   5               	__SP_L__ = 0x3d
   6               	__tmp_reg__ = 0
   7               	__zero_reg__ = 1
   8               		.global __do_copy_data
   9               		.global __do_clear_bss
  10               		.text
  11               	.global	NutVersion
  12               		.type	NutVersion, @function
  13               	NutVersion:
  14               	/* prologue: frame size=0 */
  15               	/* prologue end (size=0) */
  16 0000 61E0      		ldi r22,lo8(67306241)
  17 0002 73E0      		ldi r23,hi8(67306241)
  18 0004 83E0      		ldi r24,hlo8(67306241)
  19 0006 94E0      		ldi r25,hhi8(67306241)
  20               	/* epilogue: frame size=0 */
  21 0008 0895      		ret
  22               	/* epilogue end (size=1) */
  23               	/* function NutVersion size 5 (4) */
  24               		.size	NutVersion, .-NutVersion
  25               	.global	NutVersionString
  26               		.type	NutVersionString, @function
  27               	NutVersionString:
  28               	/* prologue: frame size=0 */
  29               	/* prologue end (size=0) */
  30 000a 80E0      		ldi r24,lo8(os_version_string)
  31 000c 90E0      		ldi r25,hi8(os_version_string)
  32               	/* epilogue: frame size=0 */
  33 000e 0895      		ret
  34               	/* epilogue end (size=1) */
  35               	/* function NutVersionString size 3 (2) */
  36               		.size	NutVersionString, .-NutVersionString
  37               		.data
  38               		.type	os_version_string, @object
  39               		.size	os_version_string, 17
  40               	os_version_string:
  41 0000 342E 332E 		.string	"4.3.3.2 Streamit"
  41      332E 3220 
  41      5374 7265 
  41      616D 6974 
  41      00
  42               	/* File "C:/ethernut-4.3.3/nut/os/version.c": code    8 = 0x0008 (   6), prologues   0, epilogues  
GAS LISTING C:\DOCUME~1\Arlind\LOCALS~1\Temp/ccXBmsN0.s 			page 2


DEFINED SYMBOLS
                            *ABS*:00000000 version.c
C:\DOCUME~1\Arlind\LOCALS~1\Temp/ccXBmsN0.s:3      *ABS*:0000003f __SREG__
C:\DOCUME~1\Arlind\LOCALS~1\Temp/ccXBmsN0.s:4      *ABS*:0000003e __SP_H__
C:\DOCUME~1\Arlind\LOCALS~1\Temp/ccXBmsN0.s:5      *ABS*:0000003d __SP_L__
C:\DOCUME~1\Arlind\LOCALS~1\Temp/ccXBmsN0.s:6      *ABS*:00000000 __tmp_reg__
C:\DOCUME~1\Arlind\LOCALS~1\Temp/ccXBmsN0.s:7      *ABS*:00000001 __zero_reg__
C:\DOCUME~1\Arlind\LOCALS~1\Temp/ccXBmsN0.s:13     .text:00000000 NutVersion
C:\DOCUME~1\Arlind\LOCALS~1\Temp/ccXBmsN0.s:27     .text:0000000a NutVersionString
C:\DOCUME~1\Arlind\LOCALS~1\Temp/ccXBmsN0.s:40     .data:00000000 os_version_string

UNDEFINED SYMBOLS
__do_copy_data
__do_clear_bss
