GAS LISTING C:\DOCUME~1\Arlind\LOCALS~1\Temp/ccDZvzV3.s 			page 1


   1               		.file	"ethout.c"
   2               		.arch atmega2561
   3               	__SREG__ = 0x3f
   4               	__SP_H__ = 0x3e
   5               	__SP_L__ = 0x3d
   6               	__tmp_reg__ = 0
   7               	__zero_reg__ = 1
   8               		.global __do_copy_data
   9               		.global __do_clear_bss
  10               		.text
  11               	.global	NutEtherOutput
  12               		.type	NutEtherOutput, @function
  13               	NutEtherOutput:
  14               	/* prologue: frame size=0 */
  15 0000 8F92      		push r8
  16 0002 9F92      		push r9
  17 0004 AF92      		push r10
  18 0006 BF92      		push r11
  19 0008 CF92      		push r12
  20 000a DF92      		push r13
  21 000c EF92      		push r14
  22 000e FF92      		push r15
  23 0010 0F93      		push r16
  24 0012 1F93      		push r17
  25 0014 CF93      		push r28
  26 0016 DF93      		push r29
  27               	/* prologue end (size=12) */
  28 0018 4C01      		movw r8,r24
  29 001a 8B01      		movw r16,r22
  30 001c 6A01      		movw r12,r20
  31 001e 7901      		movw r14,r18
  32 0020 4EE0      		ldi r20,lo8(14)
  33 0022 50E0      		ldi r21,hi8(14)
  34 0024 60E1      		ldi r22,lo8(16)
  35 0026 C901      		movw r24,r18
  36 0028 0E94 0000 		call NutNetBufAlloc
  37 002c 892B      		or r24,r25
  38 002e 01F0      		breq .L16
  39 0030 F701      		movw r30,r14
  40 0032 C381      		ldd r28,Z+3
  41 0034 D481      		ldd r29,Z+4
  42 0036 F401      		movw r30,r8
  43 0038 A784      		ldd r10,Z+15
  44 003a B088      		ldd r11,Z+16
  45 003c DE01      		movw r26,r28
  46 003e 1696      		adiw r26,6
  47 0040 F501      		movw r30,r10
  48 0042 3196      		adiw r30,1
  49 0044 86E0      		ldi r24,lo8(6)
  50               	.L5:
  51 0046 0190      		ld r0,Z+
  52 0048 0D92      		st X+,r0
  53 004a 8150      		subi r24,lo8(-(-1))
  54 004c 01F4      		brne .L5
  55 004e C114      		cp r12,__zero_reg__
  56 0050 D104      		cpc r13,__zero_reg__
  57 0052 01F0      		breq .L6
GAS LISTING C:\DOCUME~1\Arlind\LOCALS~1\Temp/ccDZvzV3.s 			page 2


  58 0054 DE01      		movw r26,r28
  59 0056 F601      		movw r30,r12
  60 0058 86E0      		ldi r24,lo8(6)
  61               	.L8:
  62 005a 0190      		ld r0,Z+
  63 005c 0D92      		st X+,r0
  64 005e 8150      		subi r24,lo8(-(-1))
  65 0060 01F0      		breq .L9
  66 0062 00C0      		rjmp .L8
  67               	.L6:
  68 0064 46E0      		ldi r20,lo8(6)
  69 0066 50E0      		ldi r21,hi8(6)
  70 0068 6FEF      		ldi r22,lo8(255)
  71 006a 70E0      		ldi r23,hi8(255)
  72 006c CE01      		movw r24,r28
  73 006e 0E94 0000 		call memset
  74               	.L9:
  75               	/* #APP */
  76 0072 002E      		mov __tmp_reg__, r16
  77 0074 012F      		mov r16, r17
  78 0076 102D      		mov r17, __tmp_reg__
  79               		
  80               	/* #NOAPP */
  81 0078 1D87      		std Y+13,r17
  82 007a 0C87      		std Y+12,r16
  83 007c E501      		movw r28,r10
  84 007e ED8D      		ldd r30,Y+29
  85 0080 FE8D      		ldd r31,Y+30
  86 0082 B701      		movw r22,r14
  87 0084 C401      		movw r24,r8
  88 0086 1995      		eicall
  89 0088 892B      		or r24,r25
  90 008a 01F4      		brne .L10
  91 008c 80E0      		ldi r24,lo8(0)
  92 008e 90E0      		ldi r25,hi8(0)
  93 0090 00C0      		rjmp .L4
  94               	.L10:
  95 0092 C701      		movw r24,r14
  96 0094 0E94 0000 		call NutNetBufFree
  97               	.L16:
  98 0098 8FEF      		ldi r24,lo8(-1)
  99 009a 9FEF      		ldi r25,hi8(-1)
 100               	.L4:
 101               	/* epilogue: frame size=0 */
 102 009c DF91      		pop r29
 103 009e CF91      		pop r28
 104 00a0 1F91      		pop r17
 105 00a2 0F91      		pop r16
 106 00a4 FF90      		pop r15
 107 00a6 EF90      		pop r14
 108 00a8 DF90      		pop r13
 109 00aa CF90      		pop r12
 110 00ac BF90      		pop r11
 111 00ae AF90      		pop r10
 112 00b0 9F90      		pop r9
 113 00b2 8F90      		pop r8
 114 00b4 0895      		ret
GAS LISTING C:\DOCUME~1\Arlind\LOCALS~1\Temp/ccDZvzV3.s 			page 3


 115               	/* epilogue end (size=13) */
 116               	/* function NutEtherOutput size 98 (73) */
 117               		.size	NutEtherOutput, .-NutEtherOutput
 118               	/* File "C:/ethernut-4.3.3/nut/net/ethout.c": code   98 = 0x0062 (  73), prologues  12, epilogues  
GAS LISTING C:\DOCUME~1\Arlind\LOCALS~1\Temp/ccDZvzV3.s 			page 4


DEFINED SYMBOLS
                            *ABS*:00000000 ethout.c
C:\DOCUME~1\Arlind\LOCALS~1\Temp/ccDZvzV3.s:3      *ABS*:0000003f __SREG__
C:\DOCUME~1\Arlind\LOCALS~1\Temp/ccDZvzV3.s:4      *ABS*:0000003e __SP_H__
C:\DOCUME~1\Arlind\LOCALS~1\Temp/ccDZvzV3.s:5      *ABS*:0000003d __SP_L__
C:\DOCUME~1\Arlind\LOCALS~1\Temp/ccDZvzV3.s:6      *ABS*:00000000 __tmp_reg__
C:\DOCUME~1\Arlind\LOCALS~1\Temp/ccDZvzV3.s:7      *ABS*:00000001 __zero_reg__
C:\DOCUME~1\Arlind\LOCALS~1\Temp/ccDZvzV3.s:13     .text:00000000 NutEtherOutput

UNDEFINED SYMBOLS
__do_copy_data
__do_clear_bss
NutNetBufAlloc
memset
NutNetBufFree
