GAS LISTING C:\DOCUME~1\Arlind\LOCALS~1\Temp/ccBredXS.s 			page 1


   1               		.file	"pppdebug.c"
   2               		.arch atmega2561
   3               	__SREG__ = 0x3f
   4               	__SP_H__ = 0x3e
   5               	__SP_L__ = 0x3d
   6               	__tmp_reg__ = 0
   7               	__zero_reg__ = 1
   8               		.global __do_copy_data
   9               		.global __do_clear_bss
  10               		.text
  11               	.global	NutTracePPP
  12               		.type	NutTracePPP, @function
  13               	NutTracePPP:
  14               	/* prologue: frame size=0 */
  15               	/* prologue end (size=0) */
  16 0000 0097      		sbiw r24,0
  17 0002 01F0      		breq .L2
  18 0004 9093 0000 		sts (__ppp_trs)+1,r25
  19 0008 8093 0000 		sts __ppp_trs,r24
  20 000c 00C0      		rjmp .L4
  21               	.L2:
  22 000e 8091 0000 		lds r24,__ppp_trs
  23 0012 9091 0000 		lds r25,(__ppp_trs)+1
  24 0016 892B      		or r24,r25
  25 0018 01F0      		breq .L5
  26               	.L4:
  27 001a 6093 0000 		sts __ppp_trf,r22
  28 001e 0895      		ret
  29               	.L5:
  30 0020 1092 0000 		sts __ppp_trf,__zero_reg__
  31 0024 0895      		ret
  32               	/* epilogue: frame size=0 */
  33               	/* epilogue: noreturn */
  34               	/* epilogue end (size=0) */
  35               	/* function NutTracePPP size 19 (19) */
  36               		.size	NutTracePPP, .-NutTracePPP
  37               		.data
  38               	.LC0:
  39 0000 5B4F 5054 		.string	"[OPT(%u)]"
  39      2825 7529 
  39      5D00 
  40               	.LC1:
  41 000a 5B4D 5255 		.string	"[MRU=%u]"
  41      3D25 755D 
  41      00
  42               	.LC2:
  43 0013 5B41 4343 		.string	"[ACCM=0x%08lX]"
  43      4D3D 3078 
  43      2530 386C 
  43      585D 00
  44               	.LC3:
  45 0022 5B41 5554 		.string	"[AUTH=0x%04X]"
  45      483D 3078 
  45      2530 3458 
  45      5D00 
  46               	.LC4:
  47 0030 5B4D 4147 		.string	"[MAGIC=0x%08lX]"
GAS LISTING C:\DOCUME~1\Arlind\LOCALS~1\Temp/ccBredXS.s 			page 2


  47      4943 3D30 
  47      7825 3038 
  47      6C58 5D00 
  48               	.LC5:
  49 0040 5B50 434F 		.string	"[PCOMP]"
  49      4D50 5D00 
  50               	.LC6:
  51 0048 5B41 434F 		.string	"[ACOMP]"
  51      4D50 5D00 
  52               	.LC7:
  53 0050 5B4F 5054 		.string	"[OPT%u?]"
  53      2575 3F5D 
  53      00
  54               	.LC8:
  55 0059 5B4C 454E 		.string	"[LEN?]"
  55      3F5D 00
  56               		.text
  57               	.global	NutDumpLcpOption
  58               		.type	NutDumpLcpOption, @function
  59               	NutDumpLcpOption:
  60               	/* prologue: frame size=0 */
  61 0026 EF92      		push r14
  62 0028 FF92      		push r15
  63 002a 0F93      		push r16
  64 002c 1F93      		push r17
  65 002e CF93      		push r28
  66 0030 DF93      		push r29
  67               	/* prologue end (size=6) */
  68 0032 7C01      		movw r14,r24
  69 0034 FB01      		movw r30,r22
  70 0036 0189      		ldd r16,Z+17
  71 0038 1289      		ldd r17,Z+18
  72 003a 0115      		cp r16,__zero_reg__
  73 003c 1105      		cpc r17,__zero_reg__
  74 003e 01F0      		breq .L9
  75 0040 C785      		ldd r28,Z+15
  76 0042 D089      		ldd r29,Z+16
  77 0044 00C0      		rjmp .L11
  78               	.L27:
  79 0046 B701      		movw r22,r14
  80 0048 80E0      		ldi r24,lo8(.LC8)
  81 004a 90E0      		ldi r25,hi8(.LC8)
  82 004c 0E94 0000 		call fputs
  83 0050 00C0      		rjmp .L26
  84               	.L9:
  85 0052 8091 0000 		lds r24,ppp_header_sz
  86 0056 9927      		clr r25
  87 0058 0581      		ldd r16,Z+5
  88 005a 1681      		ldd r17,Z+6
  89 005c 081B      		sub r16,r24
  90 005e 190B      		sbc r17,r25
  91 0060 0450      		subi r16,lo8(-(-4))
  92 0062 1040      		sbci r17,hi8(-(-4))
  93 0064 C381      		ldd r28,Z+3
  94 0066 D481      		ldd r29,Z+4
  95 0068 C80F      		add r28,r24
  96 006a D91F      		adc r29,r25
GAS LISTING C:\DOCUME~1\Arlind\LOCALS~1\Temp/ccBredXS.s 			page 3


  97 006c 2496      		adiw r28,4
  98               	.L11:
  99 006e 1F93      		push r17
 100 0070 0F93      		push r16
 101 0072 80E0      		ldi r24,lo8(.LC0)
 102 0074 90E0      		ldi r25,hi8(.LC0)
 103 0076 9F93      		push r25
 104 0078 8F93      		push r24
 105 007a FF92      		push r15
 106 007c EF92      		push r14
 107 007e 0E94 0000 		call fprintf
 108 0082 8DB7      		in r24,__SP_L__
 109 0084 9EB7      		in r25,__SP_H__
 110 0086 0696      		adiw r24,6
 111 0088 0FB6      		in __tmp_reg__,__SREG__
 112 008a F894      		cli
 113 008c 9EBF      		out __SP_H__,r25
 114 008e 0FBE      		out __SREG__,__tmp_reg__
 115 0090 8DBF      		out __SP_L__,r24
 116 0092 00C0      		rjmp .L12
 117               	.L13:
 118 0094 8881      		ld r24,Y
 119 0096 8330      		cpi r24,lo8(3)
 120 0098 01F0      		breq .L17
 121 009a 8430      		cpi r24,lo8(4)
 122 009c 00F4      		brsh .L21
 123 009e 8130      		cpi r24,lo8(1)
 124 00a0 01F0      		breq .L15
 125 00a2 8230      		cpi r24,lo8(2)
 126 00a4 01F0      		breq .+2
 127 00a6 00C0      		rjmp .L14
 128 00a8 00C0      		rjmp .L16
 129               	.L21:
 130 00aa 8730      		cpi r24,lo8(7)
 131 00ac 01F4      		brne .+2
 132 00ae 00C0      		rjmp .L19
 133 00b0 8830      		cpi r24,lo8(8)
 134 00b2 01F4      		brne .+2
 135 00b4 00C0      		rjmp .L20
 136 00b6 8530      		cpi r24,lo8(5)
 137 00b8 01F0      		breq .+2
 138 00ba 00C0      		rjmp .L14
 139 00bc 00C0      		rjmp .L18
 140               	.L15:
 141 00be 8A81      		ldd r24,Y+2
 142 00c0 9B81      		ldd r25,Y+3
 143               	/* #APP */
 144 00c2 082E      		mov __tmp_reg__, r24
 145 00c4 892F      		mov r24, r25
 146 00c6 902D      		mov r25, __tmp_reg__
 147               		
 148               	/* #NOAPP */
 149 00c8 9F93      		push r25
 150 00ca 8F93      		push r24
 151 00cc 80E0      		ldi r24,lo8(.LC1)
 152 00ce 90E0      		ldi r25,hi8(.LC1)
 153 00d0 00C0      		rjmp .L28
GAS LISTING C:\DOCUME~1\Arlind\LOCALS~1\Temp/ccBredXS.s 			page 4


 154               	.L16:
 155 00d2 8A81      		ldd r24,Y+2
 156 00d4 9B81      		ldd r25,Y+3
 157 00d6 AC81      		ldd r26,Y+4
 158 00d8 BD81      		ldd r27,Y+5
 159               	/* #APP */
 160 00da 082E      		mov __tmp_reg__, r24
 161 00dc 8B2F      		mov r24, r27
 162 00de B02D      		mov r27, __tmp_reg__
 163 00e0 092E      		mov __tmp_reg__, r25
 164 00e2 9A2F      		mov r25, r26
 165 00e4 A02D      		mov r26, __tmp_reg__
 166               		
 167               	/* #NOAPP */
 168 00e6 BF93      		push r27
 169 00e8 AF93      		push r26
 170 00ea 9F93      		push r25
 171 00ec 8F93      		push r24
 172 00ee 80E0      		ldi r24,lo8(.LC2)
 173 00f0 90E0      		ldi r25,hi8(.LC2)
 174 00f2 00C0      		rjmp .L31
 175               	.L17:
 176 00f4 8A81      		ldd r24,Y+2
 177 00f6 9B81      		ldd r25,Y+3
 178               	/* #APP */
 179 00f8 082E      		mov __tmp_reg__, r24
 180 00fa 892F      		mov r24, r25
 181 00fc 902D      		mov r25, __tmp_reg__
 182               		
 183               	/* #NOAPP */
 184 00fe 9F93      		push r25
 185 0100 8F93      		push r24
 186 0102 80E0      		ldi r24,lo8(.LC3)
 187 0104 90E0      		ldi r25,hi8(.LC3)
 188 0106 00C0      		rjmp .L28
 189               	.L18:
 190 0108 8A81      		ldd r24,Y+2
 191 010a 9B81      		ldd r25,Y+3
 192 010c AC81      		ldd r26,Y+4
 193 010e BD81      		ldd r27,Y+5
 194               	/* #APP */
 195 0110 082E      		mov __tmp_reg__, r24
 196 0112 8B2F      		mov r24, r27
 197 0114 B02D      		mov r27, __tmp_reg__
 198 0116 092E      		mov __tmp_reg__, r25
 199 0118 9A2F      		mov r25, r26
 200 011a A02D      		mov r26, __tmp_reg__
 201               		
 202               	/* #NOAPP */
 203 011c BF93      		push r27
 204 011e AF93      		push r26
 205 0120 9F93      		push r25
 206 0122 8F93      		push r24
 207 0124 80E0      		ldi r24,lo8(.LC4)
 208 0126 90E0      		ldi r25,hi8(.LC4)
 209               	.L31:
 210 0128 9F93      		push r25
GAS LISTING C:\DOCUME~1\Arlind\LOCALS~1\Temp/ccBredXS.s 			page 5


 211 012a 8F93      		push r24
 212 012c FF92      		push r15
 213 012e EF92      		push r14
 214 0130 0E94 0000 		call fprintf
 215 0134 8DB7      		in r24,__SP_L__
 216 0136 9EB7      		in r25,__SP_H__
 217 0138 0896      		adiw r24,8
 218 013a 00C0      		rjmp .L29
 219               	.L19:
 220 013c B701      		movw r22,r14
 221 013e 80E0      		ldi r24,lo8(.LC5)
 222 0140 90E0      		ldi r25,hi8(.LC5)
 223 0142 00C0      		rjmp .L30
 224               	.L20:
 225 0144 B701      		movw r22,r14
 226 0146 80E0      		ldi r24,lo8(.LC6)
 227 0148 90E0      		ldi r25,hi8(.LC6)
 228               	.L30:
 229 014a 0E94 0000 		call fputs
 230 014e 00C0      		rjmp .L22
 231               	.L14:
 232 0150 9927      		clr r25
 233 0152 9F93      		push r25
 234 0154 8F93      		push r24
 235 0156 80E0      		ldi r24,lo8(.LC7)
 236 0158 90E0      		ldi r25,hi8(.LC7)
 237               	.L28:
 238 015a 9F93      		push r25
 239 015c 8F93      		push r24
 240 015e FF92      		push r15
 241 0160 EF92      		push r14
 242 0162 0E94 0000 		call fprintf
 243 0166 8DB7      		in r24,__SP_L__
 244 0168 9EB7      		in r25,__SP_H__
 245 016a 0696      		adiw r24,6
 246               	.L29:
 247 016c 0FB6      		in __tmp_reg__,__SREG__
 248 016e F894      		cli
 249 0170 9EBF      		out __SP_H__,r25
 250 0172 0FBE      		out __SREG__,__tmp_reg__
 251 0174 8DBF      		out __SP_L__,r24
 252               	.L22:
 253 0176 8981      		ldd r24,Y+1
 254 0178 9927      		clr r25
 255 017a 0817      		cp r16,r24
 256 017c 1907      		cpc r17,r25
 257 017e 00F4      		brsh .+2
 258 0180 00C0      		rjmp .L27
 259 0182 081B      		sub r16,r24
 260 0184 190B      		sbc r17,r25
 261 0186 C80F      		add r28,r24
 262 0188 D91F      		adc r29,r25
 263               	.L12:
 264 018a 0115      		cp r16,__zero_reg__
 265 018c 1105      		cpc r17,__zero_reg__
 266 018e 01F0      		breq .+2
 267 0190 00C0      		rjmp .L13
GAS LISTING C:\DOCUME~1\Arlind\LOCALS~1\Temp/ccBredXS.s 			page 6


 268               	.L26:
 269               	/* epilogue: frame size=0 */
 270 0192 DF91      		pop r29
 271 0194 CF91      		pop r28
 272 0196 1F91      		pop r17
 273 0198 0F91      		pop r16
 274 019a FF90      		pop r15
 275 019c EF90      		pop r14
 276 019e 0895      		ret
 277               	/* epilogue end (size=7) */
 278               	/* function NutDumpLcpOption size 215 (202) */
 279               		.size	NutDumpLcpOption, .-NutDumpLcpOption
 280               		.data
 281               	.LC9:
 282 0060 5B4C 4350 		.string	"[LCP-%03u(%u)]"
 282      2D25 3033 
 282      7528 2575 
 282      295D 00
 283               	.LC10:
 284 006f 5B43 4F44 		.string	"[CODE%u?]"
 284      4525 753F 
 284      5D00 
 285               		.text
 286               	.global	NutDumpLcp
 287               		.type	NutDumpLcp, @function
 288               	NutDumpLcp:
 289               	/* prologue: frame size=0 */
 290 01a0 CF92      		push r12
 291 01a2 DF92      		push r13
 292 01a4 EF92      		push r14
 293 01a6 FF92      		push r15
 294 01a8 0F93      		push r16
 295 01aa 1F93      		push r17
 296 01ac CF93      		push r28
 297 01ae DF93      		push r29
 298               	/* prologue end (size=8) */
 299 01b0 EC01      		movw r28,r24
 300 01b2 6B01      		movw r12,r22
 301 01b4 FB01      		movw r30,r22
 302 01b6 8185      		ldd r24,Z+9
 303 01b8 9285      		ldd r25,Z+10
 304 01ba 0097      		sbiw r24,0
 305 01bc 01F0      		breq .L33
 306 01be E188      		ldd r14,Z+17
 307 01c0 F288      		ldd r15,Z+18
 308 01c2 E80E      		add r14,r24
 309 01c4 F91E      		adc r15,r25
 310 01c6 0781      		ldd r16,Z+7
 311 01c8 1085      		ldd r17,Z+8
 312 01ca 00C0      		rjmp .L35
 313               	.L33:
 314 01cc 8091 0000 		lds r24,ppp_header_sz
 315 01d0 9927      		clr r25
 316 01d2 FB01      		movw r30,r22
 317 01d4 E580      		ldd r14,Z+5
 318 01d6 F680      		ldd r15,Z+6
 319 01d8 E81A      		sub r14,r24
GAS LISTING C:\DOCUME~1\Arlind\LOCALS~1\Temp/ccBredXS.s 			page 7


 320 01da F90A      		sbc r15,r25
 321 01dc 0381      		ldd r16,Z+3
 322 01de 1481      		ldd r17,Z+4
 323 01e0 080F      		add r16,r24
 324 01e2 191F      		adc r17,r25
 325               	.L35:
 326 01e4 F801      		movw r30,r16
 327 01e6 8281      		ldd r24,Z+2
 328 01e8 9381      		ldd r25,Z+3
 329               	/* #APP */
 330 01ea 082E      		mov __tmp_reg__, r24
 331 01ec 892F      		mov r24, r25
 332 01ee 902D      		mov r25, __tmp_reg__
 333               		
 334               	/* #NOAPP */
 335 01f0 9F93      		push r25
 336 01f2 8F93      		push r24
 337 01f4 8181      		ldd r24,Z+1
 338 01f6 9927      		clr r25
 339 01f8 9F93      		push r25
 340 01fa 8F93      		push r24
 341 01fc 80E0      		ldi r24,lo8(.LC9)
 342 01fe 90E0      		ldi r25,hi8(.LC9)
 343 0200 9F93      		push r25
 344 0202 8F93      		push r24
 345 0204 DF93      		push r29
 346 0206 CF93      		push r28
 347 0208 0E94 0000 		call fprintf
 348 020c 8DB7      		in r24,__SP_L__
 349 020e 9EB7      		in r25,__SP_H__
 350 0210 0896      		adiw r24,8
 351 0212 0FB6      		in __tmp_reg__,__SREG__
 352 0214 F894      		cli
 353 0216 9EBF      		out __SP_H__,r25
 354 0218 0FBE      		out __SREG__,__tmp_reg__
 355 021a 8DBF      		out __SP_L__,r24
 356 021c 94E0      		ldi r25,lo8(4)
 357 021e E916      		cp r14,r25
 358 0220 F104      		cpc r15,__zero_reg__
 359 0222 00F4      		brsh .L36
 360 0224 BE01      		movw r22,r28
 361 0226 80E0      		ldi r24,lo8(.LC8)
 362 0228 90E0      		ldi r25,hi8(.LC8)
 363 022a 0E94 0000 		call fputs
 364 022e 00C0      		rjmp .L54
 365               	.L36:
 366 0230 F801      		movw r30,r16
 367 0232 8081      		ld r24,Z
 368 0234 8630      		cpi r24,lo8(6)
 369 0236 01F0      		breq .L45
 370 0238 8730      		cpi r24,lo8(7)
 371 023a 00F4      		brsh .L51
 372 023c 8330      		cpi r24,lo8(3)
 373 023e 01F0      		breq .L42
 374 0240 8430      		cpi r24,lo8(4)
 375 0242 00F4      		brsh .L52
 376 0244 8130      		cpi r24,lo8(1)
GAS LISTING C:\DOCUME~1\Arlind\LOCALS~1\Temp/ccBredXS.s 			page 8


 377 0246 01F0      		breq .L40
 378 0248 8230      		cpi r24,lo8(2)
 379 024a 01F0      		breq .+2
 380 024c 00C0      		rjmp .L39
 381 024e 00C0      		rjmp .L41
 382               	.L52:
 383 0250 8430      		cpi r24,lo8(4)
 384 0252 01F0      		breq .L43
 385 0254 8530      		cpi r24,lo8(5)
 386 0256 01F0      		breq .+2
 387 0258 00C0      		rjmp .L39
 388 025a 00C0      		rjmp .L44
 389               	.L51:
 390 025c 8930      		cpi r24,lo8(9)
 391 025e 01F0      		breq .L48
 392 0260 8A30      		cpi r24,lo8(10)
 393 0262 00F4      		brsh .L53
 394 0264 8730      		cpi r24,lo8(7)
 395 0266 01F0      		breq .L46
 396 0268 8830      		cpi r24,lo8(8)
 397 026a 01F4      		brne .L39
 398 026c 00C0      		rjmp .L47
 399               	.L53:
 400 026e 8A30      		cpi r24,lo8(10)
 401 0270 01F0      		breq .L49
 402 0272 8B30      		cpi r24,lo8(11)
 403 0274 01F4      		brne .L39
 404 0276 00C0      		rjmp .L50
 405               	.L40:
 406 0278 BE01      		movw r22,r28
 407 027a 80E0      		ldi r24,lo8(dbg_confreq)
 408 027c 90E0      		ldi r25,hi8(dbg_confreq)
 409 027e 00C0      		rjmp .L55
 410               	.L41:
 411 0280 BE01      		movw r22,r28
 412 0282 80E0      		ldi r24,lo8(dbg_confack)
 413 0284 90E0      		ldi r25,hi8(dbg_confack)
 414               	.L55:
 415 0286 0E94 0000 		call fputs_P
 416 028a B601      		movw r22,r12
 417 028c CE01      		movw r24,r28
 418 028e 0E94 0000 		call NutDumpLcpOption
 419 0292 00C0      		rjmp .L54
 420               	.L42:
 421 0294 BE01      		movw r22,r28
 422 0296 80E0      		ldi r24,lo8(dbg_confnak)
 423 0298 90E0      		ldi r25,hi8(dbg_confnak)
 424 029a 00C0      		rjmp .L55
 425               	.L43:
 426 029c BE01      		movw r22,r28
 427 029e 80E0      		ldi r24,lo8(dbg_confrej)
 428 02a0 90E0      		ldi r25,hi8(dbg_confrej)
 429 02a2 00C0      		rjmp .L55
 430               	.L44:
 431 02a4 BE01      		movw r22,r28
 432 02a6 80E0      		ldi r24,lo8(dbg_termreq)
 433 02a8 90E0      		ldi r25,hi8(dbg_termreq)
GAS LISTING C:\DOCUME~1\Arlind\LOCALS~1\Temp/ccBredXS.s 			page 9


 434 02aa 00C0      		rjmp .L56
 435               	.L45:
 436 02ac BE01      		movw r22,r28
 437 02ae 80E0      		ldi r24,lo8(dbg_termack)
 438 02b0 90E0      		ldi r25,hi8(dbg_termack)
 439 02b2 00C0      		rjmp .L56
 440               	.L46:
 441 02b4 BE01      		movw r22,r28
 442 02b6 80E0      		ldi r24,lo8(dbg_coderej)
 443 02b8 90E0      		ldi r25,hi8(dbg_coderej)
 444 02ba 00C0      		rjmp .L56
 445               	.L47:
 446 02bc BE01      		movw r22,r28
 447 02be 80E0      		ldi r24,lo8(dbg_protrej)
 448 02c0 90E0      		ldi r25,hi8(dbg_protrej)
 449 02c2 00C0      		rjmp .L56
 450               	.L48:
 451 02c4 BE01      		movw r22,r28
 452 02c6 80E0      		ldi r24,lo8(dbg_echoreq)
 453 02c8 90E0      		ldi r25,hi8(dbg_echoreq)
 454 02ca 00C0      		rjmp .L56
 455               	.L49:
 456 02cc BE01      		movw r22,r28
 457 02ce 80E0      		ldi r24,lo8(dbg_echorsp)
 458 02d0 90E0      		ldi r25,hi8(dbg_echorsp)
 459 02d2 00C0      		rjmp .L56
 460               	.L50:
 461 02d4 BE01      		movw r22,r28
 462 02d6 80E0      		ldi r24,lo8(dbg_discreq)
 463 02d8 90E0      		ldi r25,hi8(dbg_discreq)
 464               	.L56:
 465 02da 0E94 0000 		call fputs_P
 466 02de 00C0      		rjmp .L54
 467               	.L39:
 468 02e0 9927      		clr r25
 469 02e2 9F93      		push r25
 470 02e4 8F93      		push r24
 471 02e6 80E0      		ldi r24,lo8(.LC10)
 472 02e8 90E0      		ldi r25,hi8(.LC10)
 473 02ea 9F93      		push r25
 474 02ec 8F93      		push r24
 475 02ee DF93      		push r29
 476 02f0 CF93      		push r28
 477 02f2 0E94 0000 		call fprintf
 478 02f6 8DB7      		in r24,__SP_L__
 479 02f8 9EB7      		in r25,__SP_H__
 480 02fa 0696      		adiw r24,6
 481 02fc 0FB6      		in __tmp_reg__,__SREG__
 482 02fe F894      		cli
 483 0300 9EBF      		out __SP_H__,r25
 484 0302 0FBE      		out __SREG__,__tmp_reg__
 485 0304 8DBF      		out __SP_L__,r24
 486               	.L54:
 487               	/* epilogue: frame size=0 */
 488 0306 DF91      		pop r29
 489 0308 CF91      		pop r28
 490 030a 1F91      		pop r17
GAS LISTING C:\DOCUME~1\Arlind\LOCALS~1\Temp/ccBredXS.s 			page 10


 491 030c 0F91      		pop r16
 492 030e FF90      		pop r15
 493 0310 EF90      		pop r14
 494 0312 DF90      		pop r13
 495 0314 CF90      		pop r12
 496 0316 0895      		ret
 497               	/* epilogue end (size=9) */
 498               	/* function NutDumpLcp size 193 (176) */
 499               		.size	NutDumpLcp, .-NutDumpLcp
 500               		.data
 501               	.LC11:
 502 0079 5B41 4444 		.string	"[ADDR=%s]"
 502      523D 2573 
 502      5D00 
 503               	.LC12:
 504 0083 5B43 4F4D 		.string	"[COMP]"
 504      505D 00
 505               	.LC13:
 506 008a 5B44 4E53 		.string	"[DNS1=%s]"
 506      313D 2573 
 506      5D00 
 507               	.LC14:
 508 0094 5B44 4E53 		.string	"[DNS2=%s]"
 508      323D 2573 
 508      5D00 
 509               		.text
 510               	.global	NutDumpIpcpOption
 511               		.type	NutDumpIpcpOption, @function
 512               	NutDumpIpcpOption:
 513               	/* prologue: frame size=0 */
 514 0318 EF92      		push r14
 515 031a FF92      		push r15
 516 031c 0F93      		push r16
 517 031e 1F93      		push r17
 518 0320 CF93      		push r28
 519 0322 DF93      		push r29
 520               	/* prologue end (size=6) */
 521 0324 7C01      		movw r14,r24
 522 0326 FB01      		movw r30,r22
 523 0328 0189      		ldd r16,Z+17
 524 032a 1289      		ldd r17,Z+18
 525 032c 0115      		cp r16,__zero_reg__
 526 032e 1105      		cpc r17,__zero_reg__
 527 0330 01F0      		breq .L58
 528 0332 C785      		ldd r28,Z+15
 529 0334 D089      		ldd r29,Z+16
 530 0336 00C0      		rjmp .L60
 531               	.L74:
 532 0338 B701      		movw r22,r14
 533 033a 80E0      		ldi r24,lo8(.LC8)
 534 033c 90E0      		ldi r25,hi8(.LC8)
 535 033e 0E94 0000 		call fputs
 536 0342 00C0      		rjmp .L73
 537               	.L58:
 538 0344 8091 0000 		lds r24,ppp_header_sz
 539 0348 9927      		clr r25
 540 034a 0581      		ldd r16,Z+5
GAS LISTING C:\DOCUME~1\Arlind\LOCALS~1\Temp/ccBredXS.s 			page 11


 541 034c 1681      		ldd r17,Z+6
 542 034e 081B      		sub r16,r24
 543 0350 190B      		sbc r17,r25
 544 0352 0450      		subi r16,lo8(-(-4))
 545 0354 1040      		sbci r17,hi8(-(-4))
 546 0356 C381      		ldd r28,Z+3
 547 0358 D481      		ldd r29,Z+4
 548 035a C80F      		add r28,r24
 549 035c D91F      		adc r29,r25
 550 035e 2496      		adiw r28,4
 551               	.L60:
 552 0360 1F93      		push r17
 553 0362 0F93      		push r16
 554 0364 80E0      		ldi r24,lo8(.LC0)
 555 0366 90E0      		ldi r25,hi8(.LC0)
 556 0368 9F93      		push r25
 557 036a 8F93      		push r24
 558 036c FF92      		push r15
 559 036e EF92      		push r14
 560 0370 0E94 0000 		call fprintf
 561 0374 8DB7      		in r24,__SP_L__
 562 0376 9EB7      		in r25,__SP_H__
 563 0378 0696      		adiw r24,6
 564 037a 0FB6      		in __tmp_reg__,__SREG__
 565 037c F894      		cli
 566 037e 9EBF      		out __SP_H__,r25
 567 0380 0FBE      		out __SREG__,__tmp_reg__
 568 0382 8DBF      		out __SP_L__,r24
 569 0384 00C0      		rjmp .L61
 570               	.L62:
 571 0386 8881      		ld r24,Y
 572 0388 8330      		cpi r24,lo8(3)
 573 038a 01F0      		breq .L65
 574 038c 8430      		cpi r24,lo8(4)
 575 038e 00F4      		brsh .L68
 576 0390 8230      		cpi r24,lo8(2)
 577 0392 01F4      		brne .L63
 578 0394 00C0      		rjmp .L64
 579               	.L68:
 580 0396 8138      		cpi r24,lo8(-127)
 581 0398 01F0      		breq .L66
 582 039a 8338      		cpi r24,lo8(-125)
 583 039c 01F4      		brne .L63
 584 039e 00C0      		rjmp .L67
 585               	.L65:
 586 03a0 6A81      		ldd r22,Y+2
 587 03a2 7B81      		ldd r23,Y+3
 588 03a4 8C81      		ldd r24,Y+4
 589 03a6 9D81      		ldd r25,Y+5
 590 03a8 0E94 0000 		call inet_ntoa
 591 03ac 9F93      		push r25
 592 03ae 8F93      		push r24
 593 03b0 80E0      		ldi r24,lo8(.LC11)
 594 03b2 90E0      		ldi r25,hi8(.LC11)
 595 03b4 00C0      		rjmp .L75
 596               	.L64:
 597 03b6 B701      		movw r22,r14
GAS LISTING C:\DOCUME~1\Arlind\LOCALS~1\Temp/ccBredXS.s 			page 12


 598 03b8 80E0      		ldi r24,lo8(.LC12)
 599 03ba 90E0      		ldi r25,hi8(.LC12)
 600 03bc 0E94 0000 		call fputs
 601 03c0 00C0      		rjmp .L69
 602               	.L66:
 603 03c2 6A81      		ldd r22,Y+2
 604 03c4 7B81      		ldd r23,Y+3
 605 03c6 8C81      		ldd r24,Y+4
 606 03c8 9D81      		ldd r25,Y+5
 607 03ca 0E94 0000 		call inet_ntoa
 608 03ce 9F93      		push r25
 609 03d0 8F93      		push r24
 610 03d2 80E0      		ldi r24,lo8(.LC13)
 611 03d4 90E0      		ldi r25,hi8(.LC13)
 612 03d6 00C0      		rjmp .L75
 613               	.L67:
 614 03d8 6A81      		ldd r22,Y+2
 615 03da 7B81      		ldd r23,Y+3
 616 03dc 8C81      		ldd r24,Y+4
 617 03de 9D81      		ldd r25,Y+5
 618 03e0 0E94 0000 		call inet_ntoa
 619 03e4 9F93      		push r25
 620 03e6 8F93      		push r24
 621 03e8 80E0      		ldi r24,lo8(.LC14)
 622 03ea 90E0      		ldi r25,hi8(.LC14)
 623 03ec 00C0      		rjmp .L75
 624               	.L63:
 625 03ee 9927      		clr r25
 626 03f0 9F93      		push r25
 627 03f2 8F93      		push r24
 628 03f4 80E0      		ldi r24,lo8(.LC7)
 629 03f6 90E0      		ldi r25,hi8(.LC7)
 630               	.L75:
 631 03f8 9F93      		push r25
 632 03fa 8F93      		push r24
 633 03fc FF92      		push r15
 634 03fe EF92      		push r14
 635 0400 0E94 0000 		call fprintf
 636 0404 8DB7      		in r24,__SP_L__
 637 0406 9EB7      		in r25,__SP_H__
 638 0408 0696      		adiw r24,6
 639 040a 0FB6      		in __tmp_reg__,__SREG__
 640 040c F894      		cli
 641 040e 9EBF      		out __SP_H__,r25
 642 0410 0FBE      		out __SREG__,__tmp_reg__
 643 0412 8DBF      		out __SP_L__,r24
 644               	.L69:
 645 0414 8981      		ldd r24,Y+1
 646 0416 9927      		clr r25
 647 0418 0817      		cp r16,r24
 648 041a 1907      		cpc r17,r25
 649 041c 00F4      		brsh .+2
 650 041e 00C0      		rjmp .L74
 651 0420 081B      		sub r16,r24
 652 0422 190B      		sbc r17,r25
 653 0424 C80F      		add r28,r24
 654 0426 D91F      		adc r29,r25
GAS LISTING C:\DOCUME~1\Arlind\LOCALS~1\Temp/ccBredXS.s 			page 13


 655               	.L61:
 656 0428 0115      		cp r16,__zero_reg__
 657 042a 1105      		cpc r17,__zero_reg__
 658 042c 01F0      		breq .+2
 659 042e 00C0      		rjmp .L62
 660               	.L73:
 661               	/* epilogue: frame size=0 */
 662 0430 DF91      		pop r29
 663 0432 CF91      		pop r28
 664 0434 1F91      		pop r17
 665 0436 0F91      		pop r16
 666 0438 FF90      		pop r15
 667 043a EF90      		pop r14
 668 043c 0895      		ret
 669               	/* epilogue end (size=7) */
 670               	/* function NutDumpIpcpOption size 147 (134) */
 671               		.size	NutDumpIpcpOption, .-NutDumpIpcpOption
 672               		.data
 673               	.LC15:
 674 009e 5B49 5043 		.string	"[IPCP-%03u(%u)]"
 674      502D 2530 
 674      3375 2825 
 674      7529 5D00 
 675               		.text
 676               	.global	NutDumpIpcp
 677               		.type	NutDumpIpcp, @function
 678               	NutDumpIpcp:
 679               	/* prologue: frame size=0 */
 680 043e CF92      		push r12
 681 0440 DF92      		push r13
 682 0442 EF92      		push r14
 683 0444 FF92      		push r15
 684 0446 0F93      		push r16
 685 0448 1F93      		push r17
 686 044a CF93      		push r28
 687 044c DF93      		push r29
 688               	/* prologue end (size=8) */
 689 044e 8C01      		movw r16,r24
 690 0450 6B01      		movw r12,r22
 691 0452 FB01      		movw r30,r22
 692 0454 E184      		ldd r14,Z+9
 693 0456 F284      		ldd r15,Z+10
 694 0458 E114      		cp r14,__zero_reg__
 695 045a F104      		cpc r15,__zero_reg__
 696 045c 01F0      		breq .L77
 697 045e C781      		ldd r28,Z+7
 698 0460 D085      		ldd r29,Z+8
 699 0462 00C0      		rjmp .L79
 700               	.L77:
 701 0464 8091 0000 		lds r24,ppp_header_sz
 702 0468 9927      		clr r25
 703 046a FB01      		movw r30,r22
 704 046c E580      		ldd r14,Z+5
 705 046e F680      		ldd r15,Z+6
 706 0470 E81A      		sub r14,r24
 707 0472 F90A      		sbc r15,r25
 708 0474 C381      		ldd r28,Z+3
GAS LISTING C:\DOCUME~1\Arlind\LOCALS~1\Temp/ccBredXS.s 			page 14


 709 0476 D481      		ldd r29,Z+4
 710 0478 C80F      		add r28,r24
 711 047a D91F      		adc r29,r25
 712               	.L79:
 713 047c 8A81      		ldd r24,Y+2
 714 047e 9B81      		ldd r25,Y+3
 715               	/* #APP */
 716 0480 082E      		mov __tmp_reg__, r24
 717 0482 892F      		mov r24, r25
 718 0484 902D      		mov r25, __tmp_reg__
 719               		
 720               	/* #NOAPP */
 721 0486 9F93      		push r25
 722 0488 8F93      		push r24
 723 048a 8981      		ldd r24,Y+1
 724 048c 9927      		clr r25
 725 048e 9F93      		push r25
 726 0490 8F93      		push r24
 727 0492 80E0      		ldi r24,lo8(.LC15)
 728 0494 90E0      		ldi r25,hi8(.LC15)
 729 0496 9F93      		push r25
 730 0498 8F93      		push r24
 731 049a 1F93      		push r17
 732 049c 0F93      		push r16
 733 049e 0E94 0000 		call fprintf
 734 04a2 8DB7      		in r24,__SP_L__
 735 04a4 9EB7      		in r25,__SP_H__
 736 04a6 0896      		adiw r24,8
 737 04a8 0FB6      		in __tmp_reg__,__SREG__
 738 04aa F894      		cli
 739 04ac 9EBF      		out __SP_H__,r25
 740 04ae 0FBE      		out __SREG__,__tmp_reg__
 741 04b0 8DBF      		out __SP_L__,r24
 742 04b2 94E0      		ldi r25,lo8(4)
 743 04b4 E916      		cp r14,r25
 744 04b6 F104      		cpc r15,__zero_reg__
 745 04b8 00F4      		brsh .L80
 746 04ba B801      		movw r22,r16
 747 04bc 80E0      		ldi r24,lo8(.LC8)
 748 04be 90E0      		ldi r25,hi8(.LC8)
 749 04c0 0E94 0000 		call fputs
 750 04c4 00C0      		rjmp .L92
 751               	.L80:
 752 04c6 8881      		ld r24,Y
 753 04c8 8430      		cpi r24,lo8(4)
 754 04ca 01F0      		breq .L87
 755 04cc 8530      		cpi r24,lo8(5)
 756 04ce 00F4      		brsh .L91
 757 04d0 8230      		cpi r24,lo8(2)
 758 04d2 01F0      		breq .L85
 759 04d4 8330      		cpi r24,lo8(3)
 760 04d6 00F4      		brsh .L86
 761 04d8 8130      		cpi r24,lo8(1)
 762 04da 01F4      		brne .L83
 763 04dc 00C0      		rjmp .L84
 764               	.L91:
 765 04de 8630      		cpi r24,lo8(6)
GAS LISTING C:\DOCUME~1\Arlind\LOCALS~1\Temp/ccBredXS.s 			page 15


 766 04e0 01F0      		breq .L89
 767 04e2 8630      		cpi r24,lo8(6)
 768 04e4 00F0      		brlo .L88
 769 04e6 8730      		cpi r24,lo8(7)
 770 04e8 01F4      		brne .L83
 771 04ea 00C0      		rjmp .L90
 772               	.L84:
 773 04ec B801      		movw r22,r16
 774 04ee 80E0      		ldi r24,lo8(dbg_confreq)
 775 04f0 90E0      		ldi r25,hi8(dbg_confreq)
 776 04f2 00C0      		rjmp .L93
 777               	.L85:
 778 04f4 B801      		movw r22,r16
 779 04f6 80E0      		ldi r24,lo8(dbg_confack)
 780 04f8 90E0      		ldi r25,hi8(dbg_confack)
 781               	.L93:
 782 04fa 0E94 0000 		call fputs_P
 783 04fe B601      		movw r22,r12
 784 0500 C801      		movw r24,r16
 785 0502 0E94 0000 		call NutDumpIpcpOption
 786 0506 00C0      		rjmp .L92
 787               	.L86:
 788 0508 B801      		movw r22,r16
 789 050a 80E0      		ldi r24,lo8(dbg_confnak)
 790 050c 90E0      		ldi r25,hi8(dbg_confnak)
 791 050e 00C0      		rjmp .L93
 792               	.L87:
 793 0510 B801      		movw r22,r16
 794 0512 80E0      		ldi r24,lo8(dbg_confrej)
 795 0514 90E0      		ldi r25,hi8(dbg_confrej)
 796 0516 00C0      		rjmp .L93
 797               	.L88:
 798 0518 B801      		movw r22,r16
 799 051a 80E0      		ldi r24,lo8(dbg_termreq)
 800 051c 90E0      		ldi r25,hi8(dbg_termreq)
 801 051e 00C0      		rjmp .L94
 802               	.L89:
 803 0520 B801      		movw r22,r16
 804 0522 80E0      		ldi r24,lo8(dbg_termack)
 805 0524 90E0      		ldi r25,hi8(dbg_termack)
 806 0526 00C0      		rjmp .L94
 807               	.L90:
 808 0528 B801      		movw r22,r16
 809 052a 80E0      		ldi r24,lo8(dbg_coderej)
 810 052c 90E0      		ldi r25,hi8(dbg_coderej)
 811               	.L94:
 812 052e 0E94 0000 		call fputs_P
 813 0532 00C0      		rjmp .L92
 814               	.L83:
 815 0534 9927      		clr r25
 816 0536 9F93      		push r25
 817 0538 8F93      		push r24
 818 053a 80E0      		ldi r24,lo8(.LC10)
 819 053c 90E0      		ldi r25,hi8(.LC10)
 820 053e 9F93      		push r25
 821 0540 8F93      		push r24
 822 0542 1F93      		push r17
GAS LISTING C:\DOCUME~1\Arlind\LOCALS~1\Temp/ccBredXS.s 			page 16


 823 0544 0F93      		push r16
 824 0546 0E94 0000 		call fprintf
 825 054a EDB7      		in r30,__SP_L__
 826 054c FEB7      		in r31,__SP_H__
 827 054e 3696      		adiw r30,6
 828 0550 0FB6      		in __tmp_reg__,__SREG__
 829 0552 F894      		cli
 830 0554 FEBF      		out __SP_H__,r31
 831 0556 0FBE      		out __SREG__,__tmp_reg__
 832 0558 EDBF      		out __SP_L__,r30
 833               	.L92:
 834               	/* epilogue: frame size=0 */
 835 055a DF91      		pop r29
 836 055c CF91      		pop r28
 837 055e 1F91      		pop r17
 838 0560 0F91      		pop r16
 839 0562 FF90      		pop r15
 840 0564 EF90      		pop r14
 841 0566 DF90      		pop r13
 842 0568 CF90      		pop r12
 843 056a 0895      		ret
 844               	/* epilogue end (size=9) */
 845               	/* function NutDumpIpcp size 156 (139) */
 846               		.size	NutDumpIpcp, .-NutDumpIpcp
 847               	.global	NutDumpPapOption
 848               		.type	NutDumpPapOption, @function
 849               	NutDumpPapOption:
 850               	/* prologue: frame size=0 */
 851 056c DF92      		push r13
 852 056e EF92      		push r14
 853 0570 FF92      		push r15
 854 0572 0F93      		push r16
 855 0574 1F93      		push r17
 856 0576 CF93      		push r28
 857 0578 DF93      		push r29
 858               	/* prologue end (size=7) */
 859 057a 7C01      		movw r14,r24
 860 057c FB01      		movw r30,r22
 861 057e 0189      		ldd r16,Z+17
 862 0580 1289      		ldd r17,Z+18
 863 0582 0115      		cp r16,__zero_reg__
 864 0584 1105      		cpc r17,__zero_reg__
 865 0586 01F0      		breq .L96
 866 0588 C785      		ldd r28,Z+15
 867 058a D089      		ldd r29,Z+16
 868 058c 00C0      		rjmp .L98
 869               	.L110:
 870 058e B701      		movw r22,r14
 871 0590 80E0      		ldi r24,lo8(.LC8)
 872 0592 90E0      		ldi r25,hi8(.LC8)
 873 0594 0E94 0000 		call fputs
 874 0598 00C0      		rjmp .L109
 875               	.L96:
 876 059a 8091 0000 		lds r24,ppp_header_sz
 877 059e 9927      		clr r25
 878 05a0 0581      		ldd r16,Z+5
 879 05a2 1681      		ldd r17,Z+6
GAS LISTING C:\DOCUME~1\Arlind\LOCALS~1\Temp/ccBredXS.s 			page 17


 880 05a4 081B      		sub r16,r24
 881 05a6 190B      		sbc r17,r25
 882 05a8 0450      		subi r16,lo8(-(-4))
 883 05aa 1040      		sbci r17,hi8(-(-4))
 884 05ac C381      		ldd r28,Z+3
 885 05ae D481      		ldd r29,Z+4
 886 05b0 C80F      		add r28,r24
 887 05b2 D91F      		adc r29,r25
 888 05b4 2496      		adiw r28,4
 889               	.L98:
 890 05b6 1F93      		push r17
 891 05b8 0F93      		push r16
 892 05ba 80E0      		ldi r24,lo8(.LC0)
 893 05bc 90E0      		ldi r25,hi8(.LC0)
 894 05be 9F93      		push r25
 895 05c0 8F93      		push r24
 896 05c2 FF92      		push r15
 897 05c4 EF92      		push r14
 898 05c6 0E94 0000 		call fprintf
 899 05ca 8DB7      		in r24,__SP_L__
 900 05cc 9EB7      		in r25,__SP_H__
 901 05ce 0696      		adiw r24,6
 902 05d0 0FB6      		in __tmp_reg__,__SREG__
 903 05d2 F894      		cli
 904 05d4 9EBF      		out __SP_H__,r25
 905 05d6 0FBE      		out __SREG__,__tmp_reg__
 906 05d8 8DBF      		out __SP_L__,r24
 907 05da 00C0      		rjmp .L99
 908               	.L100:
 909 05dc 8881      		ld r24,Y
 910 05de 8823      		tst r24
 911 05e0 01F0      		breq .L101
 912 05e2 B701      		movw r22,r14
 913 05e4 8BE5      		ldi r24,lo8(91)
 914 05e6 90E0      		ldi r25,hi8(91)
 915 05e8 0E94 0000 		call fputc
 916 05ec 81E0      		ldi r24,lo8(1)
 917 05ee D82E      		mov r13,r24
 918 05f0 00C0      		rjmp .L103
 919               	.L104:
 920 05f2 EC0F      		add r30,r28
 921 05f4 FD1F      		adc r31,r29
 922 05f6 8081      		ld r24,Z
 923 05f8 B701      		movw r22,r14
 924 05fa 9927      		clr r25
 925 05fc 87FD      		sbrc r24,7
 926 05fe 9095      		com r25
 927 0600 0E94 0000 		call fputc
 928 0604 D394      		inc r13
 929               	.L103:
 930 0606 ED2D      		mov r30,r13
 931 0608 FF27      		clr r31
 932 060a 8881      		ld r24,Y
 933 060c 9927      		clr r25
 934 060e 87FD      		sbrc r24,7
 935 0610 9095      		com r25
 936 0612 8E17      		cp r24,r30
GAS LISTING C:\DOCUME~1\Arlind\LOCALS~1\Temp/ccBredXS.s 			page 18


 937 0614 9F07      		cpc r25,r31
 938 0616 04F4      		brge .L104
 939 0618 B701      		movw r22,r14
 940 061a 8DE5      		ldi r24,lo8(93)
 941 061c 90E0      		ldi r25,hi8(93)
 942 061e 0E94 0000 		call fputc
 943               	.L101:
 944 0622 8881      		ld r24,Y
 945 0624 282F      		mov r18,r24
 946 0626 3327      		clr r19
 947 0628 27FD      		sbrc r18,7
 948 062a 3095      		com r19
 949 062c C901      		movw r24,r18
 950 062e 0196      		adiw r24,1
 951 0630 0817      		cp r16,r24
 952 0632 1907      		cpc r17,r25
 953 0634 00F4      		brsh .+2
 954 0636 00C0      		rjmp .L110
 955 0638 021B      		sub r16,r18
 956 063a 130B      		sbc r17,r19
 957 063c 0150      		subi r16,lo8(-(-1))
 958 063e 1040      		sbci r17,hi8(-(-1))
 959 0640 C20F      		add r28,r18
 960 0642 D31F      		adc r29,r19
 961 0644 2196      		adiw r28,1
 962               	.L99:
 963 0646 0115      		cp r16,__zero_reg__
 964 0648 1105      		cpc r17,__zero_reg__
 965 064a 01F4      		brne .L100
 966               	.L109:
 967               	/* epilogue: frame size=0 */
 968 064c DF91      		pop r29
 969 064e CF91      		pop r28
 970 0650 1F91      		pop r17
 971 0652 0F91      		pop r16
 972 0654 FF90      		pop r15
 973 0656 EF90      		pop r14
 974 0658 DF90      		pop r13
 975 065a 0895      		ret
 976               	/* epilogue end (size=8) */
 977               	/* function NutDumpPapOption size 120 (105) */
 978               		.size	NutDumpPapOption, .-NutDumpPapOption
 979               		.data
 980               	.LC16:
 981 00ae 5B50 4150 		.string	"[PAP-%03u(%u)]"
 981      2D25 3033 
 981      7528 2575 
 981      295D 00
 982               		.text
 983               	.global	NutDumpPap
 984               		.type	NutDumpPap, @function
 985               	NutDumpPap:
 986               	/* prologue: frame size=0 */
 987 065c CF92      		push r12
 988 065e DF92      		push r13
 989 0660 EF92      		push r14
 990 0662 FF92      		push r15
GAS LISTING C:\DOCUME~1\Arlind\LOCALS~1\Temp/ccBredXS.s 			page 19


 991 0664 0F93      		push r16
 992 0666 1F93      		push r17
 993 0668 CF93      		push r28
 994 066a DF93      		push r29
 995               	/* prologue end (size=8) */
 996 066c 7C01      		movw r14,r24
 997 066e 6B01      		movw r12,r22
 998 0670 FB01      		movw r30,r22
 999 0672 0185      		ldd r16,Z+9
 1000 0674 1285      		ldd r17,Z+10
 1001 0676 0115      		cp r16,__zero_reg__
 1002 0678 1105      		cpc r17,__zero_reg__
 1003 067a 01F0      		breq .L112
 1004 067c C781      		ldd r28,Z+7
 1005 067e D085      		ldd r29,Z+8
 1006 0680 00C0      		rjmp .L114
 1007               	.L112:
 1008 0682 8091 0000 		lds r24,ppp_header_sz
 1009 0686 9927      		clr r25
 1010 0688 FB01      		movw r30,r22
 1011 068a 0581      		ldd r16,Z+5
 1012 068c 1681      		ldd r17,Z+6
 1013 068e 081B      		sub r16,r24
 1014 0690 190B      		sbc r17,r25
 1015 0692 C381      		ldd r28,Z+3
 1016 0694 D481      		ldd r29,Z+4
 1017 0696 C80F      		add r28,r24
 1018 0698 D91F      		adc r29,r25
 1019               	.L114:
 1020 069a 8A81      		ldd r24,Y+2
 1021 069c 9B81      		ldd r25,Y+3
 1022               	/* #APP */
 1023 069e 082E      		mov __tmp_reg__, r24
 1024 06a0 892F      		mov r24, r25
 1025 06a2 902D      		mov r25, __tmp_reg__
 1026               		
 1027               	/* #NOAPP */
 1028 06a4 9F93      		push r25
 1029 06a6 8F93      		push r24
 1030 06a8 8981      		ldd r24,Y+1
 1031 06aa 9927      		clr r25
 1032 06ac 9F93      		push r25
 1033 06ae 8F93      		push r24
 1034 06b0 80E0      		ldi r24,lo8(.LC16)
 1035 06b2 90E0      		ldi r25,hi8(.LC16)
 1036 06b4 9F93      		push r25
 1037 06b6 8F93      		push r24
 1038 06b8 FF92      		push r15
 1039 06ba EF92      		push r14
 1040 06bc 0E94 0000 		call fprintf
 1041 06c0 8DB7      		in r24,__SP_L__
 1042 06c2 9EB7      		in r25,__SP_H__
 1043 06c4 0896      		adiw r24,8
 1044 06c6 0FB6      		in __tmp_reg__,__SREG__
 1045 06c8 F894      		cli
 1046 06ca 9EBF      		out __SP_H__,r25
 1047 06cc 0FBE      		out __SREG__,__tmp_reg__
GAS LISTING C:\DOCUME~1\Arlind\LOCALS~1\Temp/ccBredXS.s 			page 20


 1048 06ce 8DBF      		out __SP_L__,r24
 1049 06d0 0430      		cpi r16,4
 1050 06d2 1105      		cpc r17,__zero_reg__
 1051 06d4 00F4      		brsh .L115
 1052 06d6 B701      		movw r22,r14
 1053 06d8 80E0      		ldi r24,lo8(.LC8)
 1054 06da 90E0      		ldi r25,hi8(.LC8)
 1055 06dc 0E94 0000 		call fputs
 1056 06e0 00C0      		rjmp .L122
 1057               	.L115:
 1058 06e2 8881      		ld r24,Y
 1059 06e4 8230      		cpi r24,lo8(2)
 1060 06e6 01F0      		breq .L120
 1061 06e8 8330      		cpi r24,lo8(3)
 1062 06ea 01F0      		breq .L121
 1063 06ec 8130      		cpi r24,lo8(1)
 1064 06ee 01F4      		brne .L118
 1065 06f0 B701      		movw r22,r14
 1066 06f2 80E0      		ldi r24,lo8(dbg_confreq)
 1067 06f4 90E0      		ldi r25,hi8(dbg_confreq)
 1068 06f6 0E94 0000 		call fputs_P
 1069 06fa B601      		movw r22,r12
 1070 06fc C701      		movw r24,r14
 1071 06fe 0E94 0000 		call NutDumpPapOption
 1072 0702 00C0      		rjmp .L122
 1073               	.L120:
 1074 0704 B701      		movw r22,r14
 1075 0706 80E0      		ldi r24,lo8(dbg_confack)
 1076 0708 90E0      		ldi r25,hi8(dbg_confack)
 1077 070a 00C0      		rjmp .L123
 1078               	.L121:
 1079 070c B701      		movw r22,r14
 1080 070e 80E0      		ldi r24,lo8(dbg_confnak)
 1081 0710 90E0      		ldi r25,hi8(dbg_confnak)
 1082               	.L123:
 1083 0712 0E94 0000 		call fputs_P
 1084 0716 00C0      		rjmp .L122
 1085               	.L118:
 1086 0718 9927      		clr r25
 1087 071a 9F93      		push r25
 1088 071c 8F93      		push r24
 1089 071e 80E0      		ldi r24,lo8(.LC10)
 1090 0720 90E0      		ldi r25,hi8(.LC10)
 1091 0722 9F93      		push r25
 1092 0724 8F93      		push r24
 1093 0726 FF92      		push r15
 1094 0728 EF92      		push r14
 1095 072a 0E94 0000 		call fprintf
 1096 072e EDB7      		in r30,__SP_L__
 1097 0730 FEB7      		in r31,__SP_H__
 1098 0732 3696      		adiw r30,6
 1099 0734 0FB6      		in __tmp_reg__,__SREG__
 1100 0736 F894      		cli
 1101 0738 FEBF      		out __SP_H__,r31
 1102 073a 0FBE      		out __SREG__,__tmp_reg__
 1103 073c EDBF      		out __SP_L__,r30
 1104               	.L122:
GAS LISTING C:\DOCUME~1\Arlind\LOCALS~1\Temp/ccBredXS.s 			page 21


 1105               	/* epilogue: frame size=0 */
 1106 073e DF91      		pop r29
 1107 0740 CF91      		pop r28
 1108 0742 1F91      		pop r17
 1109 0744 0F91      		pop r16
 1110 0746 FF90      		pop r15
 1111 0748 EF90      		pop r14
 1112 074a DF90      		pop r13
 1113 074c CF90      		pop r12
 1114 074e 0895      		ret
 1115               	/* epilogue end (size=9) */
 1116               	/* function NutDumpPap size 127 (110) */
 1117               		.size	NutDumpPap, .-NutDumpPap
 1118               		.data
 1119               	.LC17:
 1120 00bd 2825 7529 		.string	"(%u)"
 1120      00
 1121               	.LC18:
 1122 00c2 5B54 5950 		.string	"[TYPE 0x%04X?]"
 1122      4520 3078 
 1122      2530 3458 
 1122      3F5D 00
 1123               		.text
 1124               	.global	NutDumpPpp
 1125               		.type	NutDumpPpp, @function
 1126               	NutDumpPpp:
 1127               	/* prologue: frame size=0 */
 1128 0750 EF92      		push r14
 1129 0752 FF92      		push r15
 1130 0754 0F93      		push r16
 1131 0756 1F93      		push r17
 1132 0758 CF93      		push r28
 1133 075a DF93      		push r29
 1134               	/* prologue end (size=6) */
 1135 075c 8C01      		movw r16,r24
 1136 075e EB01      		movw r28,r22
 1137 0760 EB80      		ldd r14,Y+3
 1138 0762 FC80      		ldd r15,Y+4
 1139 0764 4D81      		ldd r20,Y+5
 1140 0766 5E81      		ldd r21,Y+6
 1141 0768 8985      		ldd r24,Y+9
 1142 076a 9A85      		ldd r25,Y+10
 1143 076c 480F      		add r20,r24
 1144 076e 591F      		adc r21,r25
 1145 0770 8989      		ldd r24,Y+17
 1146 0772 9A89      		ldd r25,Y+18
 1147 0774 2D85      		ldd r18,Y+13
 1148 0776 3E85      		ldd r19,Y+14
 1149 0778 820F      		add r24,r18
 1150 077a 931F      		adc r25,r19
 1151 077c 480F      		add r20,r24
 1152 077e 591F      		adc r21,r25
 1153 0780 5F93      		push r21
 1154 0782 4F93      		push r20
 1155 0784 80E0      		ldi r24,lo8(.LC17)
 1156 0786 90E0      		ldi r25,hi8(.LC17)
 1157 0788 9F93      		push r25
GAS LISTING C:\DOCUME~1\Arlind\LOCALS~1\Temp/ccBredXS.s 			page 22


 1158 078a 8F93      		push r24
 1159 078c 1F93      		push r17
 1160 078e 0F93      		push r16
 1161 0790 0E94 0000 		call fprintf
 1162 0794 8DB7      		in r24,__SP_L__
 1163 0796 9EB7      		in r25,__SP_H__
 1164 0798 0696      		adiw r24,6
 1165 079a 0FB6      		in __tmp_reg__,__SREG__
 1166 079c F894      		cli
 1167 079e 9EBF      		out __SP_H__,r25
 1168 07a0 0FBE      		out __SREG__,__tmp_reg__
 1169 07a2 8DBF      		out __SP_L__,r24
 1170 07a4 F701      		movw r30,r14
 1171 07a6 8081      		ld r24,Z
 1172 07a8 8F3F      		cpi r24,lo8(-1)
 1173 07aa 01F0      		breq .L125
 1174 07ac EB81      		ldd r30,Y+3
 1175 07ae FC81      		ldd r31,Y+4
 1176 07b0 8081      		ld r24,Z
 1177 07b2 282F      		mov r18,r24
 1178 07b4 3327      		clr r19
 1179 07b6 20FF      		sbrs r18,0
 1180 07b8 00C0      		rjmp .L127
 1181 07ba 81E0      		ldi r24,lo8(1)
 1182 07bc 8093 0000 		sts ppp_header_sz,r24
 1183 07c0 A901      		movw r20,r18
 1184 07c2 00C0      		rjmp .L129
 1185               	.L127:
 1186 07c4 82E0      		ldi r24,lo8(2)
 1187 07c6 8093 0000 		sts ppp_header_sz,r24
 1188 07ca 8081      		ld r24,Z
 1189 07cc 9927      		clr r25
 1190 07ce 87FD      		sbrc r24,7
 1191 07d0 9095      		com r25
 1192 07d2 582F      		mov r21,r24
 1193 07d4 4427      		clr r20
 1194 07d6 8181      		ldd r24,Z+1
 1195 07d8 9927      		clr r25
 1196 07da 87FD      		sbrc r24,7
 1197 07dc 9095      		com r25
 1198 07de 482B      		or r20,r24
 1199 07e0 592B      		or r21,r25
 1200 07e2 00C0      		rjmp .L139
 1201               	.L125:
 1202 07e4 84E0      		ldi r24,lo8(4)
 1203 07e6 8093 0000 		sts ppp_header_sz,r24
 1204 07ea F701      		movw r30,r14
 1205 07ec 4281      		ldd r20,Z+2
 1206 07ee 5381      		ldd r21,Z+3
 1207               	.L139:
 1208               	/* #APP */
 1209 07f0 042E      		mov __tmp_reg__, r20
 1210 07f2 452F      		mov r20, r21
 1211 07f4 502D      		mov r21, __tmp_reg__
 1212               		
 1213               	/* #NOAPP */
 1214               	.L129:
GAS LISTING C:\DOCUME~1\Arlind\LOCALS~1\Temp/ccBredXS.s 			page 23


 1215 07f6 8091 0000 		lds r24,ppp_header_sz
 1216 07fa 9927      		clr r25
 1217 07fc 2D81      		ldd r18,Y+5
 1218 07fe 3E81      		ldd r19,Y+6
 1219 0800 2817      		cp r18,r24
 1220 0802 3907      		cpc r19,r25
 1221 0804 00F4      		brsh .L130
 1222 0806 B801      		movw r22,r16
 1223 0808 80E0      		ldi r24,lo8(.LC8)
 1224 080a 90E0      		ldi r25,hi8(.LC8)
 1225 080c 0E94 0000 		call fputs
 1226 0810 00C0      		rjmp .L138
 1227               	.L130:
 1228 0812 F0E8      		ldi r31,hi8(-32735)
 1229 0814 4132      		cpi r20,lo8(-32735)
 1230 0816 5F07      		cpc r21,r31
 1231 0818 01F0      		breq .L134
 1232 081a 80E8      		ldi r24,hi8(-32734)
 1233 081c 4232      		cpi r20,lo8(-32734)
 1234 081e 5807      		cpc r21,r24
 1235 0820 00F4      		brsh .L137
 1236 0822 4132      		cpi r20,33
 1237 0824 5105      		cpc r21,__zero_reg__
 1238 0826 01F4      		brne .L133
 1239 0828 00C0      		rjmp .L138
 1240               	.L137:
 1241 082a 90EC      		ldi r25,hi8(-16351)
 1242 082c 4132      		cpi r20,lo8(-16351)
 1243 082e 5907      		cpc r21,r25
 1244 0830 01F0      		breq .L135
 1245 0832 4352      		subi r20,lo8(-16349)
 1246 0834 504C      		sbci r21,hi8(-16349)
 1247 0836 01F4      		brne .L133
 1248 0838 00C0      		rjmp .L136
 1249               	.L135:
 1250 083a BE01      		movw r22,r28
 1251 083c C801      		movw r24,r16
 1252 083e 0E94 0000 		call NutDumpLcp
 1253 0842 00C0      		rjmp .L138
 1254               	.L134:
 1255 0844 BE01      		movw r22,r28
 1256 0846 C801      		movw r24,r16
 1257 0848 0E94 0000 		call NutDumpIpcp
 1258 084c 00C0      		rjmp .L138
 1259               	.L136:
 1260 084e BE01      		movw r22,r28
 1261 0850 C801      		movw r24,r16
 1262 0852 0E94 0000 		call NutDumpPap
 1263 0856 00C0      		rjmp .L138
 1264               	.L133:
 1265 0858 F701      		movw r30,r14
 1266 085a 8281      		ldd r24,Z+2
 1267 085c 9381      		ldd r25,Z+3
 1268               	/* #APP */
 1269 085e 082E      		mov __tmp_reg__, r24
 1270 0860 892F      		mov r24, r25
 1271 0862 902D      		mov r25, __tmp_reg__
GAS LISTING C:\DOCUME~1\Arlind\LOCALS~1\Temp/ccBredXS.s 			page 24


 1272               		
 1273               	/* #NOAPP */
 1274 0864 9F93      		push r25
 1275 0866 8F93      		push r24
 1276 0868 80E0      		ldi r24,lo8(.LC18)
 1277 086a 90E0      		ldi r25,hi8(.LC18)
 1278 086c 9F93      		push r25
 1279 086e 8F93      		push r24
 1280 0870 1F93      		push r17
 1281 0872 0F93      		push r16
 1282 0874 0E94 0000 		call fprintf
 1283 0878 8DB7      		in r24,__SP_L__
 1284 087a 9EB7      		in r25,__SP_H__
 1285 087c 0696      		adiw r24,6
 1286 087e 0FB6      		in __tmp_reg__,__SREG__
 1287 0880 F894      		cli
 1288 0882 9EBF      		out __SP_H__,r25
 1289 0884 0FBE      		out __SREG__,__tmp_reg__
 1290 0886 8DBF      		out __SP_L__,r24
 1291               	.L138:
 1292               	/* epilogue: frame size=0 */
 1293 0888 DF91      		pop r29
 1294 088a CF91      		pop r28
 1295 088c 1F91      		pop r17
 1296 088e 0F91      		pop r16
 1297 0890 FF90      		pop r15
 1298 0892 EF90      		pop r14
 1299 0894 0895      		ret
 1300               	/* epilogue end (size=7) */
 1301               	/* function NutDumpPpp size 174 (161) */
 1302               		.size	NutDumpPpp, .-NutDumpPpp
 1303               		.section	.progmem.data,"a",@progbits
 1304               		.type	dbg_confreq, @object
 1305               		.size	dbg_confreq, 10
 1306               	dbg_confreq:
 1307 0000 5B43 4F4E 		.string	"[CONFREQ]"
 1307      4652 4551 
 1307      5D00 
 1308               		.type	dbg_confack, @object
 1309               		.size	dbg_confack, 10
 1310               	dbg_confack:
 1311 000a 5B43 4F4E 		.string	"[CONFACK]"
 1311      4641 434B 
 1311      5D00 
 1312               		.type	dbg_confnak, @object
 1313               		.size	dbg_confnak, 10
 1314               	dbg_confnak:
 1315 0014 5B43 4F4E 		.string	"[CONFNAK]"
 1315      464E 414B 
 1315      5D00 
 1316               		.type	dbg_confrej, @object
 1317               		.size	dbg_confrej, 10
 1318               	dbg_confrej:
 1319 001e 5B43 4F4E 		.string	"[CONFREJ]"
 1319      4652 454A 
 1319      5D00 
 1320               		.type	dbg_termreq, @object
GAS LISTING C:\DOCUME~1\Arlind\LOCALS~1\Temp/ccBredXS.s 			page 25


 1321               		.size	dbg_termreq, 10
 1322               	dbg_termreq:
 1323 0028 5B54 4552 		.string	"[TERMREQ]"
 1323      4D52 4551 
 1323      5D00 
 1324               		.type	dbg_termack, @object
 1325               		.size	dbg_termack, 10
 1326               	dbg_termack:
 1327 0032 5B54 4552 		.string	"[TERMACK]"
 1327      4D41 434B 
 1327      5D00 
 1328               		.type	dbg_coderej, @object
 1329               		.size	dbg_coderej, 10
 1330               	dbg_coderej:
 1331 003c 5B43 4F44 		.string	"[CODEREJ]"
 1331      4552 454A 
 1331      5D00 
 1332               		.type	dbg_protrej, @object
 1333               		.size	dbg_protrej, 10
 1334               	dbg_protrej:
 1335 0046 5B50 524F 		.string	"[PROTREJ]"
 1335      5452 454A 
 1335      5D00 
 1336               		.type	dbg_echoreq, @object
 1337               		.size	dbg_echoreq, 10
 1338               	dbg_echoreq:
 1339 0050 5B45 4348 		.string	"[ECHOREQ]"
 1339      4F52 4551 
 1339      5D00 
 1340               		.type	dbg_echorsp, @object
 1341               		.size	dbg_echorsp, 10
 1342               	dbg_echorsp:
 1343 005a 5B45 4348 		.string	"[ECHORSP]"
 1343      4F52 5350 
 1343      5D00 
 1344               		.type	dbg_discreq, @object
 1345               		.size	dbg_discreq, 10
 1346               	dbg_discreq:
 1347 0064 5B44 4953 		.string	"[DISCREQ]"
 1347      4352 4551 
 1347      5D00 
 1348               		.lcomm ppp_header_sz,1
 1349               		.comm __ppp_trs,2,1
 1350               		.comm __ppp_trf,1,1
 1351               	/* File "C:/ethernut-4.3.3/nut/net/pppdebug.c": code 1151 = 0x047f (1046), prologues  49, epilogues
GAS LISTING C:\DOCUME~1\Arlind\LOCALS~1\Temp/ccBredXS.s 			page 26


DEFINED SYMBOLS
                            *ABS*:00000000 pppdebug.c
C:\DOCUME~1\Arlind\LOCALS~1\Temp/ccBredXS.s:3      *ABS*:0000003f __SREG__
C:\DOCUME~1\Arlind\LOCALS~1\Temp/ccBredXS.s:4      *ABS*:0000003e __SP_H__
C:\DOCUME~1\Arlind\LOCALS~1\Temp/ccBredXS.s:5      *ABS*:0000003d __SP_L__
C:\DOCUME~1\Arlind\LOCALS~1\Temp/ccBredXS.s:6      *ABS*:00000000 __tmp_reg__
C:\DOCUME~1\Arlind\LOCALS~1\Temp/ccBredXS.s:7      *ABS*:00000001 __zero_reg__
C:\DOCUME~1\Arlind\LOCALS~1\Temp/ccBredXS.s:13     .text:00000000 NutTracePPP
                            *COM*:00000002 __ppp_trs
                            *COM*:00000001 __ppp_trf
C:\DOCUME~1\Arlind\LOCALS~1\Temp/ccBredXS.s:59     .text:00000026 NutDumpLcpOption
                             .bss:00000000 ppp_header_sz
C:\DOCUME~1\Arlind\LOCALS~1\Temp/ccBredXS.s:288    .text:000001a0 NutDumpLcp
C:\DOCUME~1\Arlind\LOCALS~1\Temp/ccBredXS.s:1306   .progmem.data:00000000 dbg_confreq
C:\DOCUME~1\Arlind\LOCALS~1\Temp/ccBredXS.s:1310   .progmem.data:0000000a dbg_confack
C:\DOCUME~1\Arlind\LOCALS~1\Temp/ccBredXS.s:1314   .progmem.data:00000014 dbg_confnak
C:\DOCUME~1\Arlind\LOCALS~1\Temp/ccBredXS.s:1318   .progmem.data:0000001e dbg_confrej
C:\DOCUME~1\Arlind\LOCALS~1\Temp/ccBredXS.s:1322   .progmem.data:00000028 dbg_termreq
C:\DOCUME~1\Arlind\LOCALS~1\Temp/ccBredXS.s:1326   .progmem.data:00000032 dbg_termack
C:\DOCUME~1\Arlind\LOCALS~1\Temp/ccBredXS.s:1330   .progmem.data:0000003c dbg_coderej
C:\DOCUME~1\Arlind\LOCALS~1\Temp/ccBredXS.s:1334   .progmem.data:00000046 dbg_protrej
C:\DOCUME~1\Arlind\LOCALS~1\Temp/ccBredXS.s:1338   .progmem.data:00000050 dbg_echoreq
C:\DOCUME~1\Arlind\LOCALS~1\Temp/ccBredXS.s:1342   .progmem.data:0000005a dbg_echorsp
C:\DOCUME~1\Arlind\LOCALS~1\Temp/ccBredXS.s:1346   .progmem.data:00000064 dbg_discreq
C:\DOCUME~1\Arlind\LOCALS~1\Temp/ccBredXS.s:512    .text:00000318 NutDumpIpcpOption
C:\DOCUME~1\Arlind\LOCALS~1\Temp/ccBredXS.s:678    .text:0000043e NutDumpIpcp
C:\DOCUME~1\Arlind\LOCALS~1\Temp/ccBredXS.s:849    .text:0000056c NutDumpPapOption
C:\DOCUME~1\Arlind\LOCALS~1\Temp/ccBredXS.s:985    .text:0000065c NutDumpPap
C:\DOCUME~1\Arlind\LOCALS~1\Temp/ccBredXS.s:1126   .text:00000750 NutDumpPpp

UNDEFINED SYMBOLS
__do_copy_data
__do_clear_bss
fputs
fprintf
fputs_P
inet_ntoa
fputc
