GAS LISTING C:\DOCUME~1\Arlind\LOCALS~1\Temp/ccWRXrEw.s 			page 1


   1               		.file	"udpsock.c"
   2               		.arch atmega2561
   3               	__SREG__ = 0x3f
   4               	__SP_H__ = 0x3e
   5               	__SP_L__ = 0x3d
   6               	__tmp_reg__ = 0
   7               	__zero_reg__ = 1
   8               		.global __do_copy_data
   9               		.global __do_clear_bss
  10               		.text
  11               	.global	NutUdpFindSocket
  12               		.type	NutUdpFindSocket, @function
  13               	NutUdpFindSocket:
  14               	/* prologue: frame size=0 */
  15               	/* prologue end (size=0) */
  16 0000 9C01      		movw r18,r24
  17 0002 E091 0000 		lds r30,udpSocketList
  18 0006 F091 0000 		lds r31,(udpSocketList)+1
  19 000a 00C0      		rjmp .L2
  20               	.L3:
  21 000c 8281      		ldd r24,Z+2
  22 000e 9381      		ldd r25,Z+3
  23 0010 8217      		cp r24,r18
  24 0012 9307      		cpc r25,r19
  25 0014 01F4      		brne .L4
  26 0016 CF01      		movw r24,r30
  27 0018 0895      		ret
  28               	.L4:
  29 001a 0190      		ld __tmp_reg__,Z+
  30 001c F081      		ld r31,Z
  31 001e E02D      		mov r30,__tmp_reg__
  32               	.L2:
  33 0020 3097      		sbiw r30,0
  34 0022 01F4      		brne .L3
  35 0024 80E0      		ldi r24,lo8(0)
  36 0026 90E0      		ldi r25,hi8(0)
  37 0028 0895      		ret
  38               	/* epilogue: frame size=0 */
  39               	/* epilogue: noreturn */
  40               	/* epilogue end (size=0) */
  41               	/* function NutUdpFindSocket size 21 (21) */
  42               		.size	NutUdpFindSocket, .-NutUdpFindSocket
  43               	.global	NutUdpSetSockOpt
  44               		.type	NutUdpSetSockOpt, @function
  45               	NutUdpSetSockOpt:
  46               	/* prologue: frame size=0 */
  47               	/* prologue end (size=0) */
  48 002a DC01      		movw r26,r24
  49 002c FA01      		movw r30,r20
  50 002e 892B      		or r24,r25
  51 0030 01F0      		breq .L10
  52 0032 6250      		subi r22,lo8(4098)
  53 0034 7041      		sbci r23,hi8(4098)
  54 0036 01F4      		brne .L10
  55 0038 452B      		or r20,r21
  56 003a 01F0      		breq .L10
  57 003c 2230      		cpi r18,2
GAS LISTING C:\DOCUME~1\Arlind\LOCALS~1\Temp/ccWRXrEw.s 			page 2


  58 003e 3105      		cpc r19,__zero_reg__
  59 0040 01F4      		brne .L10
  60 0042 8081      		ld r24,Z
  61 0044 9181      		ldd r25,Z+1
  62 0046 FD01      		movw r30,r26
  63 0048 9387      		std Z+11,r25
  64 004a 8287      		std Z+10,r24
  65 004c 80E0      		ldi r24,lo8(0)
  66 004e 90E0      		ldi r25,hi8(0)
  67 0050 0895      		ret
  68               	.L10:
  69 0052 8FEF      		ldi r24,lo8(-1)
  70 0054 9FEF      		ldi r25,hi8(-1)
  71 0056 0895      		ret
  72               	/* epilogue: frame size=0 */
  73               	/* epilogue: noreturn */
  74               	/* epilogue end (size=0) */
  75               	/* function NutUdpSetSockOpt size 24 (24) */
  76               		.size	NutUdpSetSockOpt, .-NutUdpSetSockOpt
  77               	.global	NutUdpGetSockOpt
  78               		.type	NutUdpGetSockOpt, @function
  79               	NutUdpGetSockOpt:
  80               	/* prologue: frame size=0 */
  81 0058 CF93      		push r28
  82 005a DF93      		push r29
  83               	/* prologue end (size=2) */
  84 005c DC01      		movw r26,r24
  85 005e FA01      		movw r30,r20
  86 0060 892B      		or r24,r25
  87 0062 01F0      		breq .L18
  88 0064 6250      		subi r22,lo8(4098)
  89 0066 7041      		sbci r23,hi8(4098)
  90 0068 01F4      		brne .L18
  91 006a 452B      		or r20,r21
  92 006c 01F0      		breq .L18
  93 006e 2230      		cpi r18,2
  94 0070 3105      		cpc r19,__zero_reg__
  95 0072 01F4      		brne .L18
  96 0074 ED01      		movw r28,r26
  97 0076 8A85      		ldd r24,Y+10
  98 0078 9B85      		ldd r25,Y+11
  99 007a 9183      		std Z+1,r25
 100 007c 8083      		st Z,r24
 101 007e 80E0      		ldi r24,lo8(0)
 102 0080 90E0      		ldi r25,hi8(0)
 103 0082 00C0      		rjmp .L23
 104               	.L18:
 105 0084 8FEF      		ldi r24,lo8(-1)
 106 0086 9FEF      		ldi r25,hi8(-1)
 107               	.L23:
 108               	/* epilogue: frame size=0 */
 109 0088 DF91      		pop r29
 110 008a CF91      		pop r28
 111 008c 0895      		ret
 112               	/* epilogue end (size=3) */
 113               	/* function NutUdpGetSockOpt size 28 (23) */
 114               		.size	NutUdpGetSockOpt, .-NutUdpGetSockOpt
GAS LISTING C:\DOCUME~1\Arlind\LOCALS~1\Temp/ccWRXrEw.s 			page 3


 115               	.global	NutUdpDestroySocket
 116               		.type	NutUdpDestroySocket, @function
 117               	NutUdpDestroySocket:
 118               	/* prologue: frame size=0 */
 119 008e CF93      		push r28
 120 0090 DF93      		push r29
 121               	/* prologue end (size=2) */
 122 0092 EC01      		movw r28,r24
 123 0094 E091 0000 		lds r30,udpSocketList
 124 0098 F091 0000 		lds r31,(udpSocketList)+1
 125 009c A0E0      		ldi r26,lo8(udpSocketList)
 126 009e B0E0      		ldi r27,hi8(udpSocketList)
 127 00a0 00C0      		rjmp .L26
 128               	.L27:
 129 00a2 8081      		ld r24,Z
 130 00a4 9181      		ldd r25,Z+1
 131 00a6 EC17      		cp r30,r28
 132 00a8 FD07      		cpc r31,r29
 133 00aa 01F4      		brne .L28
 134 00ac 8D93      		st X+,r24
 135 00ae 9C93      		st X,r25
 136 00b0 00C0      		rjmp .L30
 137               	.L31:
 138 00b2 8081      		ld r24,Z
 139 00b4 9181      		ldd r25,Z+1
 140 00b6 9D83      		std Y+5,r25
 141 00b8 8C83      		std Y+4,r24
 142 00ba CF01      		movw r24,r30
 143 00bc 0E94 0000 		call NutNetBufFree
 144               	.L30:
 145 00c0 EC81      		ldd r30,Y+4
 146 00c2 FD81      		ldd r31,Y+5
 147 00c4 3097      		sbiw r30,0
 148 00c6 01F4      		brne .L31
 149 00c8 CE01      		movw r24,r28
 150 00ca 0E94 0000 		call NutHeapFree
 151 00ce 80E0      		ldi r24,lo8(0)
 152 00d0 90E0      		ldi r25,hi8(0)
 153 00d2 00C0      		rjmp .L33
 154               	.L28:
 155 00d4 DF01      		movw r26,r30
 156 00d6 FC01      		movw r30,r24
 157               	.L26:
 158 00d8 3097      		sbiw r30,0
 159 00da 01F4      		brne .L27
 160 00dc 8FEF      		ldi r24,lo8(-1)
 161 00de 9FEF      		ldi r25,hi8(-1)
 162               	.L33:
 163               	/* epilogue: frame size=0 */
 164 00e0 DF91      		pop r29
 165 00e2 CF91      		pop r28
 166 00e4 0895      		ret
 167               	/* epilogue end (size=3) */
 168               	/* function NutUdpDestroySocket size 44 (39) */
 169               		.size	NutUdpDestroySocket, .-NutUdpDestroySocket
 170               	.global	NutUdpSendTo
 171               		.type	NutUdpSendTo, @function
GAS LISTING C:\DOCUME~1\Arlind\LOCALS~1\Temp/ccWRXrEw.s 			page 4


 172               	NutUdpSendTo:
 173               	/* prologue: frame size=0 */
 174 00e6 6F92      		push r6
 175 00e8 7F92      		push r7
 176 00ea 8F92      		push r8
 177 00ec 9F92      		push r9
 178 00ee AF92      		push r10
 179 00f0 BF92      		push r11
 180 00f2 CF92      		push r12
 181 00f4 DF92      		push r13
 182 00f6 EF92      		push r14
 183 00f8 FF92      		push r15
 184 00fa 0F93      		push r16
 185 00fc 1F93      		push r17
 186 00fe CF93      		push r28
 187 0100 DF93      		push r29
 188               	/* prologue end (size=14) */
 189 0102 3C01      		movw r6,r24
 190 0104 5A01      		movw r10,r20
 191 0106 6B01      		movw r12,r22
 192 0108 4901      		movw r8,r18
 193 010a A701      		movw r20,r14
 194 010c 60E8      		ldi r22,lo8(-128)
 195 010e 80E0      		ldi r24,lo8(0)
 196 0110 90E0      		ldi r25,hi8(0)
 197 0112 0E94 0000 		call NutNetBufAlloc
 198 0116 EC01      		movw r28,r24
 199 0118 892B      		or r24,r25
 200 011a 01F4      		brne .L37
 201 011c 0FEF      		ldi r16,lo8(-1)
 202 011e 1FEF      		ldi r17,hi8(-1)
 203 0120 00C0      		rjmp .L39
 204               	.L37:
 205 0122 A701      		movw r20,r14
 206 0124 B801      		movw r22,r16
 207 0126 8F85      		ldd r24,Y+15
 208 0128 9889      		ldd r25,Y+16
 209 012a 0E94 0000 		call memcpy
 210 012e 8E01      		movw r16,r28
 211 0130 9401      		movw r18,r8
 212 0132 B601      		movw r22,r12
 213 0134 A501      		movw r20,r10
 214 0136 C301      		movw r24,r6
 215 0138 0E94 0000 		call NutUdpOutput
 216 013c 8C01      		movw r16,r24
 217 013e 892B      		or r24,r25
 218 0140 01F4      		brne .L39
 219 0142 CE01      		movw r24,r28
 220 0144 0E94 0000 		call NutNetBufFree
 221               	.L39:
 222 0148 C801      		movw r24,r16
 223               	/* epilogue: frame size=0 */
 224 014a DF91      		pop r29
 225 014c CF91      		pop r28
 226 014e 1F91      		pop r17
 227 0150 0F91      		pop r16
 228 0152 FF90      		pop r15
GAS LISTING C:\DOCUME~1\Arlind\LOCALS~1\Temp/ccWRXrEw.s 			page 5


 229 0154 EF90      		pop r14
 230 0156 DF90      		pop r13
 231 0158 CF90      		pop r12
 232 015a BF90      		pop r11
 233 015c AF90      		pop r10
 234 015e 9F90      		pop r9
 235 0160 8F90      		pop r8
 236 0162 7F90      		pop r7
 237 0164 6F90      		pop r6
 238 0166 0895      		ret
 239               	/* epilogue end (size=15) */
 240               	/* function NutUdpSendTo size 65 (36) */
 241               		.size	NutUdpSendTo, .-NutUdpSendTo
 242               	.global	NutUdpCreateSocket
 243               		.type	NutUdpCreateSocket, @function
 244               	NutUdpCreateSocket:
 245               	/* prologue: frame size=0 */
 246 0168 CF93      		push r28
 247 016a DF93      		push r29
 248               	/* prologue end (size=2) */
 249 016c EC01      		movw r28,r24
 250 016e 892B      		or r24,r25
 251 0170 01F4      		brne .L44
 252 0172 4091 0000 		lds r20,udpSocketList
 253 0176 5091 0000 		lds r21,(udpSocketList)+1
 254 017a C091 0000 		lds r28,last_local_port
 255 017e D091 0000 		lds r29,(last_local_port)+1
 256               	.L46:
 257 0182 2196      		adiw r28,1
 258 0184 01F4      		brne .L47
 259 0186 C0E0      		ldi r28,lo8(4096)
 260 0188 D0E1      		ldi r29,hi8(4096)
 261               	.L47:
 262 018a 9E01      		movw r18,r28
 263               	/* #APP */
 264 018c 022E      		mov __tmp_reg__, r18
 265 018e 232F      		mov r18, r19
 266 0190 302D      		mov r19, __tmp_reg__
 267               		
 268               	/* #NOAPP */
 269 0192 FA01      		movw r30,r20
 270 0194 00C0      		rjmp .L49
 271               	.L50:
 272 0196 8281      		ldd r24,Z+2
 273 0198 9381      		ldd r25,Z+3
 274 019a 8217      		cp r24,r18
 275 019c 9307      		cpc r25,r19
 276 019e 01F0      		breq .L46
 277 01a0 0190      		ld __tmp_reg__,Z+
 278 01a2 F081      		ld r31,Z
 279 01a4 E02D      		mov r30,__tmp_reg__
 280               	.L49:
 281 01a6 3097      		sbiw r30,0
 282 01a8 01F4      		brne .L50
 283 01aa D093 0000 		sts (last_local_port)+1,r29
 284 01ae C093 0000 		sts last_local_port,r28
 285               	.L44:
GAS LISTING C:\DOCUME~1\Arlind\LOCALS~1\Temp/ccWRXrEw.s 			page 6


 286 01b2 8CE0      		ldi r24,lo8(12)
 287 01b4 90E0      		ldi r25,hi8(12)
 288 01b6 0E94 0000 		call NutHeapAllocClear
 289 01ba FC01      		movw r30,r24
 290 01bc 892B      		or r24,r25
 291 01be 01F0      		breq .L53
 292               	/* #APP */
 293 01c0 0C2E      		mov __tmp_reg__, r28
 294 01c2 CD2F      		mov r28, r29
 295 01c4 D02D      		mov r29, __tmp_reg__
 296               		
 297               	/* #NOAPP */
 298 01c6 D383      		std Z+3,r29
 299 01c8 C283      		std Z+2,r28
 300 01ca 8091 0000 		lds r24,udpSocketList
 301 01ce 9091 0000 		lds r25,(udpSocketList)+1
 302 01d2 9183      		std Z+1,r25
 303 01d4 8083      		st Z,r24
 304 01d6 F093 0000 		sts (udpSocketList)+1,r31
 305 01da E093 0000 		sts udpSocketList,r30
 306               	.L53:
 307 01de CF01      		movw r24,r30
 308               	/* epilogue: frame size=0 */
 309 01e0 DF91      		pop r29
 310 01e2 CF91      		pop r28
 311 01e4 0895      		ret
 312               	/* epilogue end (size=3) */
 313               	/* function NutUdpCreateSocket size 74 (69) */
 314               		.size	NutUdpCreateSocket, .-NutUdpCreateSocket
 315               	.global	NutUdpReceiveFrom
 316               		.type	NutUdpReceiveFrom, @function
 317               	NutUdpReceiveFrom:
 318               	/* prologue: frame size=0 */
 319 01e6 4F92      		push r4
 320 01e8 5F92      		push r5
 321 01ea 6F92      		push r6
 322 01ec 7F92      		push r7
 323 01ee 8F92      		push r8
 324 01f0 9F92      		push r9
 325 01f2 AF92      		push r10
 326 01f4 BF92      		push r11
 327 01f6 CF92      		push r12
 328 01f8 DF92      		push r13
 329 01fa EF92      		push r14
 330 01fc FF92      		push r15
 331 01fe 0F93      		push r16
 332 0200 1F93      		push r17
 333 0202 CF93      		push r28
 334 0204 DF93      		push r29
 335               	/* prologue end (size=16) */
 336 0206 5C01      		movw r10,r24
 337 0208 4B01      		movw r8,r22
 338 020a 3A01      		movw r6,r20
 339 020c 2901      		movw r4,r18
 340 020e FC01      		movw r30,r24
 341 0210 C481      		ldd r28,Z+4
 342 0212 D581      		ldd r29,Z+5
GAS LISTING C:\DOCUME~1\Arlind\LOCALS~1\Temp/ccWRXrEw.s 			page 7


 343 0214 2097      		sbiw r28,0
 344 0216 01F4      		brne .L59
 345 0218 B701      		movw r22,r14
 346 021a A601      		movw r20,r12
 347 021c 0696      		adiw r24,6
 348 021e 0E94 0000 		call NutEventWait
 349 0222 F501      		movw r30,r10
 350 0224 C481      		ldd r28,Z+4
 351 0226 D581      		ldd r29,Z+5
 352 0228 2097      		sbiw r28,0
 353 022a 01F4      		brne .L59
 354 022c 40E0      		ldi r20,lo8(0)
 355 022e 50E0      		ldi r21,hi8(0)
 356 0230 00C0      		rjmp .L62
 357               	.L59:
 358 0232 8881      		ld r24,Y
 359 0234 9981      		ldd r25,Y+1
 360 0236 F501      		movw r30,r10
 361 0238 9583      		std Z+5,r25
 362 023a 8483      		std Z+4,r24
 363 023c EF81      		ldd r30,Y+7
 364 023e F885      		ldd r31,Y+8
 365 0240 8485      		ldd r24,Z+12
 366 0242 9585      		ldd r25,Z+13
 367 0244 A685      		ldd r26,Z+14
 368 0246 B785      		ldd r27,Z+15
 369 0248 F401      		movw r30,r8
 370 024a 8083      		st Z,r24
 371 024c 9183      		std Z+1,r25
 372 024e A283      		std Z+2,r26
 373 0250 B383      		std Z+3,r27
 374 0252 EB85      		ldd r30,Y+11
 375 0254 FC85      		ldd r31,Y+12
 376 0256 8081      		ld r24,Z
 377 0258 9181      		ldd r25,Z+1
 378               	/* #APP */
 379 025a 082E      		mov __tmp_reg__, r24
 380 025c 892F      		mov r24, r25
 381 025e 902D      		mov r25, __tmp_reg__
 382               		
 383               	/* #NOAPP */
 384 0260 F301      		movw r30,r6
 385 0262 9183      		std Z+1,r25
 386 0264 8083      		st Z,r24
 387 0266 E988      		ldd r14,Y+17
 388 0268 FA88      		ldd r15,Y+18
 389 026a 9701      		movw r18,r14
 390 026c 0E15      		cp r16,r14
 391 026e 1F05      		cpc r17,r15
 392 0270 00F4      		brsh .L63
 393 0272 7801      		movw r14,r16
 394               	.L63:
 395 0274 F501      		movw r30,r10
 396 0276 8085      		ldd r24,Z+8
 397 0278 9185      		ldd r25,Z+9
 398 027a 821B      		sub r24,r18
 399 027c 930B      		sbc r25,r19
GAS LISTING C:\DOCUME~1\Arlind\LOCALS~1\Temp/ccWRXrEw.s 			page 8


 400 027e 9187      		std Z+9,r25
 401 0280 8087      		std Z+8,r24
 402 0282 6F85      		ldd r22,Y+15
 403 0284 7889      		ldd r23,Y+16
 404 0286 A701      		movw r20,r14
 405 0288 C201      		movw r24,r4
 406 028a 0E94 0000 		call memcpy
 407 028e CE01      		movw r24,r28
 408 0290 0E94 0000 		call NutNetBufFree
 409 0294 A701      		movw r20,r14
 410               	.L62:
 411 0296 CA01      		movw r24,r20
 412               	/* epilogue: frame size=0 */
 413 0298 DF91      		pop r29
 414 029a CF91      		pop r28
 415 029c 1F91      		pop r17
 416 029e 0F91      		pop r16
 417 02a0 FF90      		pop r15
 418 02a2 EF90      		pop r14
 419 02a4 DF90      		pop r13
 420 02a6 CF90      		pop r12
 421 02a8 BF90      		pop r11
 422 02aa AF90      		pop r10
 423 02ac 9F90      		pop r9
 424 02ae 8F90      		pop r8
 425 02b0 7F90      		pop r7
 426 02b2 6F90      		pop r6
 427 02b4 5F90      		pop r5
 428 02b6 4F90      		pop r4
 429 02b8 0895      		ret
 430               	/* epilogue end (size=17) */
 431               	/* function NutUdpReceiveFrom size 111 (78) */
 432               		.size	NutUdpReceiveFrom, .-NutUdpReceiveFrom
 433               		.data
 434               		.type	last_local_port, @object
 435               		.size	last_local_port, 2
 436               	last_local_port:
 437 0000 0010      		.word	4096
 438               		.comm udpSocketList,2,1
 439               	/* File "C:/ethernut-4.3.3/nut/net/udpsock.c": code  367 = 0x016f ( 290), prologues  36, epilogues 
GAS LISTING C:\DOCUME~1\Arlind\LOCALS~1\Temp/ccWRXrEw.s 			page 9


DEFINED SYMBOLS
                            *ABS*:00000000 udpsock.c
C:\DOCUME~1\Arlind\LOCALS~1\Temp/ccWRXrEw.s:3      *ABS*:0000003f __SREG__
C:\DOCUME~1\Arlind\LOCALS~1\Temp/ccWRXrEw.s:4      *ABS*:0000003e __SP_H__
C:\DOCUME~1\Arlind\LOCALS~1\Temp/ccWRXrEw.s:5      *ABS*:0000003d __SP_L__
C:\DOCUME~1\Arlind\LOCALS~1\Temp/ccWRXrEw.s:6      *ABS*:00000000 __tmp_reg__
C:\DOCUME~1\Arlind\LOCALS~1\Temp/ccWRXrEw.s:7      *ABS*:00000001 __zero_reg__
C:\DOCUME~1\Arlind\LOCALS~1\Temp/ccWRXrEw.s:13     .text:00000000 NutUdpFindSocket
                            *COM*:00000002 udpSocketList
C:\DOCUME~1\Arlind\LOCALS~1\Temp/ccWRXrEw.s:45     .text:0000002a NutUdpSetSockOpt
C:\DOCUME~1\Arlind\LOCALS~1\Temp/ccWRXrEw.s:79     .text:00000058 NutUdpGetSockOpt
C:\DOCUME~1\Arlind\LOCALS~1\Temp/ccWRXrEw.s:117    .text:0000008e NutUdpDestroySocket
C:\DOCUME~1\Arlind\LOCALS~1\Temp/ccWRXrEw.s:172    .text:000000e6 NutUdpSendTo
C:\DOCUME~1\Arlind\LOCALS~1\Temp/ccWRXrEw.s:244    .text:00000168 NutUdpCreateSocket
C:\DOCUME~1\Arlind\LOCALS~1\Temp/ccWRXrEw.s:436    .data:00000000 last_local_port
C:\DOCUME~1\Arlind\LOCALS~1\Temp/ccWRXrEw.s:317    .text:000001e6 NutUdpReceiveFrom

UNDEFINED SYMBOLS
__do_copy_data
__do_clear_bss
NutNetBufFree
NutHeapFree
NutNetBufAlloc
memcpy
NutUdpOutput
NutHeapAllocClear
NutEventWait
