GAS LISTING C:\DOCUME~1\Arlind\LOCALS~1\Temp/ccNaZZ8M.s 			page 1


   1               		.file	"eth0rtl.c"
   2               		.arch atmega2561
   3               	__SREG__ = 0x3f
   4               	__SP_H__ = 0x3e
   5               	__SP_L__ = 0x3d
   6               	__tmp_reg__ = 0
   7               	__zero_reg__ = 1
   8               		.global __do_copy_data
   9               		.global __do_clear_bss
  10               	.global	devEth0
  11               		.data
  12               		.type	devEth0, @object
  13               		.size	devEth0, 35
  14               	devEth0:
  15 0000 0000      		.word	0
  16 0002 65        		.byte	101
  17 0003 74        		.byte	116
  18 0004 68        		.byte	104
  19 0005 30        		.byte	48
  20 0006 00        		.byte	0
  21 0007 00        		.byte	0
  22 0008 00        		.byte	0
  23 0009 00        		.byte	0
  24 000a 00        		.byte	0
  25 000b 03        		.byte	3
  26 000c 0000      		.word	0
  27 000e 00        		.byte	0
  28 000f 0000      		.word	ifn_eth0
  29 0011 0000      		.word	dcb_eth0
  30 0013 0000      		.word	gs(NicInit)
  31 0015 0000      		.word	0
  32 0017 0000      		.word	0
  33 0019 0000      		.word	0
  34 001b 0000      		.word	0
  35 001d 0000      		.word	0
  36 001f 0000      		.word	0
  37 0021 0000      		.word	0
  38               		.type	ifn_eth0, @object
  39               		.size	ifn_eth0, 35
  40               	ifn_eth0:
  41 0023 06        		.byte	6
  42 0024 00        		.byte	0
  43 0025 00        		.byte	0
  44 0026 00        		.byte	0
  45 0027 00        		.byte	0
  46 0028 00        		.byte	0
  47 0029 00        		.byte	0
  48 002a 00        		.byte	0
  49 002b 00        		.byte	0
  50 002c 00        		.byte	0
  51 002d 00        		.byte	0
  52 002e 00        		.byte	0
  53 002f 00        		.byte	0
  54 0030 00        		.byte	0
  55 0031 00        		.byte	0
  56 0032 00        		.byte	0
  57 0033 00        		.byte	0
GAS LISTING C:\DOCUME~1\Arlind\LOCALS~1\Temp/ccNaZZ8M.s 			page 2


  58 0034 00        		.byte	0
  59 0035 00        		.byte	0
  60 0036 DC05      		.word	1500
  61 0038 0000      		.word	0
  62 003a 0000      		.word	0
  63 003c 0000      		.word	0
  64 003e 0000      		.word	gs(NutEtherInput)
  65 0040 0000      		.word	gs(NicOutput)
  66 0042 0000      		.word	gs(NutEtherOutput)
  67 0044 0000      		.skip 2,0
  68               		.lcomm dcb_eth0,38
  69               	/* File "C:/ethernut-4.3.3/nut/arch/avr/dev/eth0rtl.c": code    0 = 0x0000 (   0), prologues   0, e
GAS LISTING C:\DOCUME~1\Arlind\LOCALS~1\Temp/ccNaZZ8M.s 			page 3


DEFINED SYMBOLS
                            *ABS*:00000000 eth0rtl.c
C:\DOCUME~1\Arlind\LOCALS~1\Temp/ccNaZZ8M.s:3      *ABS*:0000003f __SREG__
C:\DOCUME~1\Arlind\LOCALS~1\Temp/ccNaZZ8M.s:4      *ABS*:0000003e __SP_H__
C:\DOCUME~1\Arlind\LOCALS~1\Temp/ccNaZZ8M.s:5      *ABS*:0000003d __SP_L__
C:\DOCUME~1\Arlind\LOCALS~1\Temp/ccNaZZ8M.s:6      *ABS*:00000000 __tmp_reg__
C:\DOCUME~1\Arlind\LOCALS~1\Temp/ccNaZZ8M.s:7      *ABS*:00000001 __zero_reg__
C:\DOCUME~1\Arlind\LOCALS~1\Temp/ccNaZZ8M.s:14     .data:00000000 devEth0
C:\DOCUME~1\Arlind\LOCALS~1\Temp/ccNaZZ8M.s:40     .data:00000023 ifn_eth0
                             .bss:00000000 dcb_eth0

UNDEFINED SYMBOLS
__do_copy_data
__do_clear_bss
NicInit
NutEtherInput
NicOutput
NutEtherOutput
