GAS LISTING C:\DOCUME~1\Arlind\LOCALS~1\Temp/ccYTi1QH.s 			page 1


   1               		.file	"ih_twi.c"
   2               		.arch atmega2561
   3               	__SREG__ = 0x3f
   4               	__SP_H__ = 0x3e
   5               	__SP_L__ = 0x3d
   6               	__tmp_reg__ = 0
   7               	__zero_reg__ = 1
   8               		.global __do_copy_data
   9               		.global __do_clear_bss
  10               		.text
  11               		.type	AvrTwiIrqCtl, @function
  12               	AvrTwiIrqCtl:
  13               	/* prologue: frame size=0 */
  14               	/* prologue end (size=0) */
  15 0000 9C01      		movw r18,r24
  16 0002 FB01      		movw r30,r22
  17 0004 8091 BC00 		lds r24,188
  18 0008 482F      		mov r20,r24
  19 000a 5527      		clr r21
  20 000c 4170      		andi r20,lo8(1)
  21 000e 5070      		andi r21,hi8(1)
  22 0010 8091 BC00 		lds r24,188
  23 0014 8E7F      		andi r24,lo8(-2)
  24 0016 8093 BC00 		sts 188,r24
  25 001a 2031      		cpi r18,16
  26 001c 3105      		cpc r19,__zero_reg__
  27 001e 01F0      		breq .L5
  28 0020 2131      		cpi r18,17
  29 0022 3105      		cpc r19,__zero_reg__
  30 0024 04F4      		brge .L9
  31 0026 2115      		cp r18,__zero_reg__
  32 0028 3105      		cpc r19,__zero_reg__
  33 002a 01F0      		breq .L3
  34 002c 2130      		cpi r18,1
  35 002e 3105      		cpc r19,__zero_reg__
  36 0030 01F4      		brne .L2
  37 0032 00C0      		rjmp .L4
  38               	.L9:
  39 0034 2231      		cpi r18,18
  40 0036 3105      		cpc r19,__zero_reg__
  41 0038 01F0      		breq .L7
  42 003a 2231      		cpi r18,18
  43 003c 3105      		cpc r19,__zero_reg__
  44 003e 04F0      		brlt .L21
  45 0040 2032      		cpi r18,32
  46 0042 3105      		cpc r19,__zero_reg__
  47 0044 01F0      		breq .L8
  48               	.L2:
  49 0046 2FEF      		ldi r18,lo8(-1)
  50 0048 3FEF      		ldi r19,hi8(-1)
  51 004a 00C0      		rjmp .L11
  52               	.L3:
  53 004c 40E0      		ldi r20,lo8(0)
  54 004e 50E0      		ldi r21,hi8(0)
  55               	.L4:
  56 0050 0DB4      		in __tmp_reg__,77-0x20
  57 0052 07FE      		sbrs __tmp_reg__,7
GAS LISTING C:\DOCUME~1\Arlind\LOCALS~1\Temp/ccYTi1QH.s 			page 2


  58 0054 00C0      		rjmp .L20
  59 0056 8EB5      		in r24,78-0x20
  60 0058 00C0      		rjmp .L20
  61               	.L5:
  62 005a 8091 BC00 		lds r24,188
  63 005e 87FF      		sbrs r24,7
  64 0060 00C0      		rjmp .L14
  65 0062 81E0      		ldi r24,lo8(1)
  66 0064 90E0      		ldi r25,hi8(1)
  67 0066 9183      		std Z+1,r25
  68 0068 8083      		st Z,r24
  69 006a 00C0      		rjmp .L16
  70               	.L14:
  71 006c 1182      		std Z+1,__zero_reg__
  72 006e 1082      		st Z,__zero_reg__
  73               	.L16:
  74 0070 452B      		or r20,r21
  75 0072 01F0      		breq .L7
  76 0074 8081      		ld r24,Z
  77 0076 9181      		ldd r25,Z+1
  78 0078 8068      		ori r24,lo8(128)
  79 007a 9183      		std Z+1,r25
  80 007c 8083      		st Z,r24
  81               	.L21:
  82 007e 20E0      		ldi r18,lo8(0)
  83 0080 30E0      		ldi r19,hi8(0)
  84 0082 00C0      		rjmp .L10
  85               	.L8:
  86 0084 80E1      		ldi r24,lo8(16)
  87 0086 90E0      		ldi r25,hi8(16)
  88 0088 9183      		std Z+1,r25
  89 008a 8083      		st Z,r24
  90               	.L20:
  91 008c 20E0      		ldi r18,lo8(0)
  92 008e 30E0      		ldi r19,hi8(0)
  93               	.L11:
  94 0090 452B      		or r20,r21
  95 0092 01F0      		breq .L18
  96               	.L10:
  97 0094 8091 BC00 		lds r24,188
  98 0098 8160      		ori r24,lo8(1)
  99 009a 8093 BC00 		sts 188,r24
 100 009e 00C0      		rjmp .L18
 101               	.L7:
 102 00a0 20E0      		ldi r18,lo8(0)
 103 00a2 30E0      		ldi r19,hi8(0)
 104               	.L18:
 105 00a4 C901      		movw r24,r18
 106               	/* epilogue: frame size=0 */
 107 00a6 0895      		ret
 108               	/* epilogue end (size=1) */
 109               	/* function AvrTwiIrqCtl size 84 (83) */
 110               		.size	AvrTwiIrqCtl, .-AvrTwiIrqCtl
 111               	.global	__vector_39
 112               		.type	__vector_39, @function
 113               	__vector_39:
 114               	/* prologue: frame size=0 */
GAS LISTING C:\DOCUME~1\Arlind\LOCALS~1\Temp/ccYTi1QH.s 			page 3


 115 00a8 1F92      		push __zero_reg__
 116 00aa 0F92      		push __tmp_reg__
 117 00ac 0FB6      		in __tmp_reg__,__SREG__
 118 00ae 0F92      		push __tmp_reg__
 119 00b0 1124      		clr __zero_reg__
 120 00b2 2F93      		push r18
 121 00b4 3F93      		push r19
 122 00b6 4F93      		push r20
 123 00b8 5F93      		push r21
 124 00ba 6F93      		push r22
 125 00bc 7F93      		push r23
 126 00be 8F93      		push r24
 127 00c0 9F93      		push r25
 128 00c2 AF93      		push r26
 129 00c4 BF93      		push r27
 130 00c6 EF93      		push r30
 131 00c8 FF93      		push r31
 132               	/* prologue end (size=17) */
 133 00ca 80E0      		ldi r24,lo8(sig_2WIRE_SERIAL)
 134 00cc 90E0      		ldi r25,hi8(sig_2WIRE_SERIAL)
 135 00ce 0E94 0000 		call CallHandler
 136               	/* epilogue: frame size=0 */
 137 00d2 FF91      		pop r31
 138 00d4 EF91      		pop r30
 139 00d6 BF91      		pop r27
 140 00d8 AF91      		pop r26
 141 00da 9F91      		pop r25
 142 00dc 8F91      		pop r24
 143 00de 7F91      		pop r23
 144 00e0 6F91      		pop r22
 145 00e2 5F91      		pop r21
 146 00e4 4F91      		pop r20
 147 00e6 3F91      		pop r19
 148 00e8 2F91      		pop r18
 149 00ea 0F90      		pop __tmp_reg__
 150 00ec 0FBE      		out __SREG__,__tmp_reg__
 151 00ee 0F90      		pop __tmp_reg__
 152 00f0 1F90      		pop __zero_reg__
 153 00f2 1895      		reti
 154               	/* epilogue end (size=17) */
 155               	/* function __vector_39 size 38 (4) */
 156               		.size	__vector_39, .-__vector_39
 157               	.global	sig_2WIRE_SERIAL
 158               		.data
 159               		.type	sig_2WIRE_SERIAL, @object
 160               		.size	sig_2WIRE_SERIAL, 6
 161               	sig_2WIRE_SERIAL:
 162 0000 0000      		.word	0
 163 0002 0000      		.word	0
 164 0004 0000      		.word	gs(AvrTwiIrqCtl)
 165               	/* File "C:/ethernut-4.3.3/nut/arch/avr/dev/ih_twi.c": code  122 = 0x007a (  87), prologues  17, ep
GAS LISTING C:\DOCUME~1\Arlind\LOCALS~1\Temp/ccYTi1QH.s 			page 4


DEFINED SYMBOLS
                            *ABS*:00000000 ih_twi.c
C:\DOCUME~1\Arlind\LOCALS~1\Temp/ccYTi1QH.s:3      *ABS*:0000003f __SREG__
C:\DOCUME~1\Arlind\LOCALS~1\Temp/ccYTi1QH.s:4      *ABS*:0000003e __SP_H__
C:\DOCUME~1\Arlind\LOCALS~1\Temp/ccYTi1QH.s:5      *ABS*:0000003d __SP_L__
C:\DOCUME~1\Arlind\LOCALS~1\Temp/ccYTi1QH.s:6      *ABS*:00000000 __tmp_reg__
C:\DOCUME~1\Arlind\LOCALS~1\Temp/ccYTi1QH.s:7      *ABS*:00000001 __zero_reg__
C:\DOCUME~1\Arlind\LOCALS~1\Temp/ccYTi1QH.s:12     .text:00000000 AvrTwiIrqCtl
C:\DOCUME~1\Arlind\LOCALS~1\Temp/ccYTi1QH.s:113    .text:000000a8 __vector_39
C:\DOCUME~1\Arlind\LOCALS~1\Temp/ccYTi1QH.s:161    .data:00000000 sig_2WIRE_SERIAL

UNDEFINED SYMBOLS
__do_copy_data
__do_clear_bss
CallHandler
