GAS LISTING C:\DOCUME~1\Arlind\LOCALS~1\Temp/ccqgmWg5.s 			page 1


   1               		.file	"ih_usart1_rx.c"
   2               		.arch atmega2561
   3               	__SREG__ = 0x3f
   4               	__SP_H__ = 0x3e
   5               	__SP_L__ = 0x3d
   6               	__tmp_reg__ = 0
   7               	__zero_reg__ = 1
   8               		.global __do_copy_data
   9               		.global __do_clear_bss
  10               		.text
  11               		.type	AvrUart1RxIrqCtl, @function
  12               	AvrUart1RxIrqCtl:
  13               	/* prologue: frame size=0 */
  14               	/* prologue end (size=0) */
  15 0000 9C01      		movw r18,r24
  16 0002 FB01      		movw r30,r22
  17 0004 8091 C900 		lds r24,201
  18 0008 482F      		mov r20,r24
  19 000a 5527      		clr r21
  20 000c 4078      		andi r20,lo8(128)
  21 000e 5070      		andi r21,hi8(128)
  22 0010 8091 C900 		lds r24,201
  23 0014 8F77      		andi r24,lo8(127)
  24 0016 8093 C900 		sts 201,r24
  25 001a 2031      		cpi r18,16
  26 001c 3105      		cpc r19,__zero_reg__
  27 001e 01F0      		breq .L5
  28 0020 2131      		cpi r18,17
  29 0022 3105      		cpc r19,__zero_reg__
  30 0024 04F4      		brge .L9
  31 0026 2115      		cp r18,__zero_reg__
  32 0028 3105      		cpc r19,__zero_reg__
  33 002a 01F0      		breq .L3
  34 002c 2130      		cpi r18,1
  35 002e 3105      		cpc r19,__zero_reg__
  36 0030 01F4      		brne .L2
  37 0032 00C0      		rjmp .L4
  38               	.L9:
  39 0034 2231      		cpi r18,18
  40 0036 3105      		cpc r19,__zero_reg__
  41 0038 01F0      		breq .L7
  42 003a 2231      		cpi r18,18
  43 003c 3105      		cpc r19,__zero_reg__
  44 003e 04F0      		brlt .L19
  45 0040 2032      		cpi r18,32
  46 0042 3105      		cpc r19,__zero_reg__
  47 0044 01F0      		breq .L8
  48               	.L2:
  49 0046 2FEF      		ldi r18,lo8(-1)
  50 0048 3FEF      		ldi r19,hi8(-1)
  51 004a 00C0      		rjmp .L11
  52               	.L3:
  53 004c 40E0      		ldi r20,lo8(0)
  54 004e 50E0      		ldi r21,hi8(0)
  55               	.L4:
  56 0050 8091 CE00 		lds r24,206
  57 0054 8091 CE00 		lds r24,206
GAS LISTING C:\DOCUME~1\Arlind\LOCALS~1\Temp/ccqgmWg5.s 			page 2


  58 0058 00C0      		rjmp .L18
  59               	.L5:
  60 005a 8091 C800 		lds r24,200
  61 005e 87FF      		sbrs r24,7
  62 0060 00C0      		rjmp .L12
  63 0062 81E0      		ldi r24,lo8(1)
  64 0064 90E0      		ldi r25,hi8(1)
  65 0066 9183      		std Z+1,r25
  66 0068 8083      		st Z,r24
  67 006a 00C0      		rjmp .L14
  68               	.L12:
  69 006c 1182      		std Z+1,__zero_reg__
  70 006e 1082      		st Z,__zero_reg__
  71               	.L14:
  72 0070 452B      		or r20,r21
  73 0072 01F0      		breq .L7
  74 0074 8081      		ld r24,Z
  75 0076 9181      		ldd r25,Z+1
  76 0078 8068      		ori r24,lo8(128)
  77 007a 9183      		std Z+1,r25
  78 007c 8083      		st Z,r24
  79               	.L19:
  80 007e 20E0      		ldi r18,lo8(0)
  81 0080 30E0      		ldi r19,hi8(0)
  82 0082 00C0      		rjmp .L10
  83               	.L8:
  84 0084 80E1      		ldi r24,lo8(16)
  85 0086 90E0      		ldi r25,hi8(16)
  86 0088 9183      		std Z+1,r25
  87 008a 8083      		st Z,r24
  88               	.L18:
  89 008c 20E0      		ldi r18,lo8(0)
  90 008e 30E0      		ldi r19,hi8(0)
  91               	.L11:
  92 0090 452B      		or r20,r21
  93 0092 01F0      		breq .L16
  94               	.L10:
  95 0094 8091 C900 		lds r24,201
  96 0098 8068      		ori r24,lo8(-128)
  97 009a 8093 C900 		sts 201,r24
  98 009e 00C0      		rjmp .L16
  99               	.L7:
 100 00a0 20E0      		ldi r18,lo8(0)
 101 00a2 30E0      		ldi r19,hi8(0)
 102               	.L16:
 103 00a4 C901      		movw r24,r18
 104               	/* epilogue: frame size=0 */
 105 00a6 0895      		ret
 106               	/* epilogue end (size=1) */
 107               	/* function AvrUart1RxIrqCtl size 84 (83) */
 108               		.size	AvrUart1RxIrqCtl, .-AvrUart1RxIrqCtl
 109               	.global	__vector_36
 110               		.type	__vector_36, @function
 111               	__vector_36:
 112               	/* prologue: frame size=0 */
 113 00a8 1F92      		push __zero_reg__
 114 00aa 0F92      		push __tmp_reg__
GAS LISTING C:\DOCUME~1\Arlind\LOCALS~1\Temp/ccqgmWg5.s 			page 3


 115 00ac 0FB6      		in __tmp_reg__,__SREG__
 116 00ae 0F92      		push __tmp_reg__
 117 00b0 1124      		clr __zero_reg__
 118 00b2 2F93      		push r18
 119 00b4 3F93      		push r19
 120 00b6 4F93      		push r20
 121 00b8 5F93      		push r21
 122 00ba 6F93      		push r22
 123 00bc 7F93      		push r23
 124 00be 8F93      		push r24
 125 00c0 9F93      		push r25
 126 00c2 AF93      		push r26
 127 00c4 BF93      		push r27
 128 00c6 EF93      		push r30
 129 00c8 FF93      		push r31
 130               	/* prologue end (size=17) */
 131 00ca 80E0      		ldi r24,lo8(sig_UART1_RECV)
 132 00cc 90E0      		ldi r25,hi8(sig_UART1_RECV)
 133 00ce 0E94 0000 		call CallHandler
 134               	/* epilogue: frame size=0 */
 135 00d2 FF91      		pop r31
 136 00d4 EF91      		pop r30
 137 00d6 BF91      		pop r27
 138 00d8 AF91      		pop r26
 139 00da 9F91      		pop r25
 140 00dc 8F91      		pop r24
 141 00de 7F91      		pop r23
 142 00e0 6F91      		pop r22
 143 00e2 5F91      		pop r21
 144 00e4 4F91      		pop r20
 145 00e6 3F91      		pop r19
 146 00e8 2F91      		pop r18
 147 00ea 0F90      		pop __tmp_reg__
 148 00ec 0FBE      		out __SREG__,__tmp_reg__
 149 00ee 0F90      		pop __tmp_reg__
 150 00f0 1F90      		pop __zero_reg__
 151 00f2 1895      		reti
 152               	/* epilogue end (size=17) */
 153               	/* function __vector_36 size 38 (4) */
 154               		.size	__vector_36, .-__vector_36
 155               	.global	sig_UART1_RECV
 156               		.data
 157               		.type	sig_UART1_RECV, @object
 158               		.size	sig_UART1_RECV, 6
 159               	sig_UART1_RECV:
 160 0000 0000      		.word	0
 161 0002 0000      		.word	0
 162 0004 0000      		.word	gs(AvrUart1RxIrqCtl)
 163               	/* File "C:/ethernut-4.3.3/nut/arch/avr/dev/ih_usart1_rx.c": code  122 = 0x007a (  87), prologues  
GAS LISTING C:\DOCUME~1\Arlind\LOCALS~1\Temp/ccqgmWg5.s 			page 4


DEFINED SYMBOLS
                            *ABS*:00000000 ih_usart1_rx.c
C:\DOCUME~1\Arlind\LOCALS~1\Temp/ccqgmWg5.s:3      *ABS*:0000003f __SREG__
C:\DOCUME~1\Arlind\LOCALS~1\Temp/ccqgmWg5.s:4      *ABS*:0000003e __SP_H__
C:\DOCUME~1\Arlind\LOCALS~1\Temp/ccqgmWg5.s:5      *ABS*:0000003d __SP_L__
C:\DOCUME~1\Arlind\LOCALS~1\Temp/ccqgmWg5.s:6      *ABS*:00000000 __tmp_reg__
C:\DOCUME~1\Arlind\LOCALS~1\Temp/ccqgmWg5.s:7      *ABS*:00000001 __zero_reg__
C:\DOCUME~1\Arlind\LOCALS~1\Temp/ccqgmWg5.s:12     .text:00000000 AvrUart1RxIrqCtl
C:\DOCUME~1\Arlind\LOCALS~1\Temp/ccqgmWg5.s:111    .text:000000a8 __vector_36
C:\DOCUME~1\Arlind\LOCALS~1\Temp/ccqgmWg5.s:159    .data:00000000 sig_UART1_RECV

UNDEFINED SYMBOLS
__do_copy_data
__do_clear_bss
CallHandler
