GAS LISTING C:\Users\Bart\AppData\Local\Temp/ccYFBbMo.s 			page 1


   1               		.file	"ih_usart0_tx.c"
   2               		.arch atmega2561
   3               	__SREG__ = 0x3f
   4               	__SP_H__ = 0x3e
   5               	__SP_L__ = 0x3d
   6               	__tmp_reg__ = 0
   7               	__zero_reg__ = 1
   8               		.global __do_copy_data
   9               		.global __do_clear_bss
  10               		.text
  11               		.type	AvrUart0TxIrqCtl, @function
  12               	AvrUart0TxIrqCtl:
  13               	/* prologue: frame size=0 */
  14               	/* prologue end (size=0) */
  15 0000 9C01      		movw r18,r24
  16 0002 FB01      		movw r30,r22
  17 0004 8091 C100 		lds r24,193
  18 0008 482F      		mov r20,r24
  19 000a 5527      		clr r21
  20 000c 4074      		andi r20,lo8(64)
  21 000e 5070      		andi r21,hi8(64)
  22 0010 8091 C100 		lds r24,193
  23 0014 8F7B      		andi r24,lo8(-65)
  24 0016 8093 C100 		sts 193,r24
  25 001a 2031      		cpi r18,16
  26 001c 3105      		cpc r19,__zero_reg__
  27 001e 01F0      		breq .L5
  28 0020 2131      		cpi r18,17
  29 0022 3105      		cpc r19,__zero_reg__
  30 0024 04F4      		brge .L9
  31 0026 2115      		cp r18,__zero_reg__
  32 0028 3105      		cpc r19,__zero_reg__
  33 002a 01F0      		breq .L3
  34 002c 2130      		cpi r18,1
  35 002e 3105      		cpc r19,__zero_reg__
  36 0030 01F4      		brne .L2
  37 0032 00C0      		rjmp .L4
  38               	.L9:
  39 0034 2231      		cpi r18,18
  40 0036 3105      		cpc r19,__zero_reg__
  41 0038 01F0      		breq .L7
  42 003a 2231      		cpi r18,18
  43 003c 3105      		cpc r19,__zero_reg__
  44 003e 04F0      		brlt .L19
  45 0040 2032      		cpi r18,32
  46 0042 3105      		cpc r19,__zero_reg__
  47 0044 01F0      		breq .L8
  48               	.L2:
  49 0046 2FEF      		ldi r18,lo8(-1)
  50 0048 3FEF      		ldi r19,hi8(-1)
  51 004a 00C0      		rjmp .L11
  52               	.L3:
  53 004c 40E0      		ldi r20,lo8(0)
  54 004e 50E0      		ldi r21,hi8(0)
  55               	.L4:
  56 0050 8091 C000 		lds r24,192
  57 0054 8064      		ori r24,lo8(64)
GAS LISTING C:\Users\Bart\AppData\Local\Temp/ccYFBbMo.s 			page 2


  58 0056 8093 C000 		sts 192,r24
  59 005a 00C0      		rjmp .L18
  60               	.L5:
  61 005c 8091 C000 		lds r24,192
  62 0060 86FF      		sbrs r24,6
  63 0062 00C0      		rjmp .L12
  64 0064 81E0      		ldi r24,lo8(1)
  65 0066 90E0      		ldi r25,hi8(1)
  66 0068 9183      		std Z+1,r25
  67 006a 8083      		st Z,r24
  68 006c 00C0      		rjmp .L14
  69               	.L12:
  70 006e 1182      		std Z+1,__zero_reg__
  71 0070 1082      		st Z,__zero_reg__
  72               	.L14:
  73 0072 452B      		or r20,r21
  74 0074 01F0      		breq .L7
  75 0076 8081      		ld r24,Z
  76 0078 9181      		ldd r25,Z+1
  77 007a 8068      		ori r24,lo8(128)
  78 007c 9183      		std Z+1,r25
  79 007e 8083      		st Z,r24
  80               	.L19:
  81 0080 20E0      		ldi r18,lo8(0)
  82 0082 30E0      		ldi r19,hi8(0)
  83 0084 00C0      		rjmp .L10
  84               	.L8:
  85 0086 80E1      		ldi r24,lo8(16)
  86 0088 90E0      		ldi r25,hi8(16)
  87 008a 9183      		std Z+1,r25
  88 008c 8083      		st Z,r24
  89               	.L18:
  90 008e 20E0      		ldi r18,lo8(0)
  91 0090 30E0      		ldi r19,hi8(0)
  92               	.L11:
  93 0092 452B      		or r20,r21
  94 0094 01F0      		breq .L16
  95               	.L10:
  96 0096 8091 C100 		lds r24,193
  97 009a 8064      		ori r24,lo8(64)
  98 009c 8093 C100 		sts 193,r24
  99 00a0 00C0      		rjmp .L16
 100               	.L7:
 101 00a2 20E0      		ldi r18,lo8(0)
 102 00a4 30E0      		ldi r19,hi8(0)
 103               	.L16:
 104 00a6 C901      		movw r24,r18
 105               	/* epilogue: frame size=0 */
 106 00a8 0895      		ret
 107               	/* epilogue end (size=1) */
 108               	/* function AvrUart0TxIrqCtl size 85 (84) */
 109               		.size	AvrUart0TxIrqCtl, .-AvrUart0TxIrqCtl
 110               	.global	__vector_27
 111               		.type	__vector_27, @function
 112               	__vector_27:
 113               	/* prologue: frame size=0 */
 114 00aa 1F92      		push __zero_reg__
GAS LISTING C:\Users\Bart\AppData\Local\Temp/ccYFBbMo.s 			page 3


 115 00ac 0F92      		push __tmp_reg__
 116 00ae 0FB6      		in __tmp_reg__,__SREG__
 117 00b0 0F92      		push __tmp_reg__
 118 00b2 1124      		clr __zero_reg__
 119 00b4 2F93      		push r18
 120 00b6 3F93      		push r19
 121 00b8 4F93      		push r20
 122 00ba 5F93      		push r21
 123 00bc 6F93      		push r22
 124 00be 7F93      		push r23
 125 00c0 8F93      		push r24
 126 00c2 9F93      		push r25
 127 00c4 AF93      		push r26
 128 00c6 BF93      		push r27
 129 00c8 EF93      		push r30
 130 00ca FF93      		push r31
 131               	/* prologue end (size=17) */
 132 00cc 80E0      		ldi r24,lo8(sig_UART0_TRANS)
 133 00ce 90E0      		ldi r25,hi8(sig_UART0_TRANS)
 134 00d0 0E94 0000 		call CallHandler
 135               	/* epilogue: frame size=0 */
 136 00d4 FF91      		pop r31
 137 00d6 EF91      		pop r30
 138 00d8 BF91      		pop r27
 139 00da AF91      		pop r26
 140 00dc 9F91      		pop r25
 141 00de 8F91      		pop r24
 142 00e0 7F91      		pop r23
 143 00e2 6F91      		pop r22
 144 00e4 5F91      		pop r21
 145 00e6 4F91      		pop r20
 146 00e8 3F91      		pop r19
 147 00ea 2F91      		pop r18
 148 00ec 0F90      		pop __tmp_reg__
 149 00ee 0FBE      		out __SREG__,__tmp_reg__
 150 00f0 0F90      		pop __tmp_reg__
 151 00f2 1F90      		pop __zero_reg__
 152 00f4 1895      		reti
 153               	/* epilogue end (size=17) */
 154               	/* function __vector_27 size 38 (4) */
 155               		.size	__vector_27, .-__vector_27
 156               	.global	sig_UART0_TRANS
 157               		.data
 158               		.type	sig_UART0_TRANS, @object
 159               		.size	sig_UART0_TRANS, 6
 160               	sig_UART0_TRANS:
 161 0000 0000      		.word	0
 162 0002 0000      		.word	0
 163 0004 0000      		.word	gs(AvrUart0TxIrqCtl)
 164               	/* File "D:/Git/TI-2A3-InternetMediaCenter/tools/ethernut-4.3.3/nut/arch/avr/dev/ih_usart0_tx.c": c
GAS LISTING C:\Users\Bart\AppData\Local\Temp/ccYFBbMo.s 			page 4


DEFINED SYMBOLS
                            *ABS*:00000000 ih_usart0_tx.c
C:\Users\Bart\AppData\Local\Temp/ccYFBbMo.s:3      *ABS*:0000003f __SREG__
C:\Users\Bart\AppData\Local\Temp/ccYFBbMo.s:4      *ABS*:0000003e __SP_H__
C:\Users\Bart\AppData\Local\Temp/ccYFBbMo.s:5      *ABS*:0000003d __SP_L__
C:\Users\Bart\AppData\Local\Temp/ccYFBbMo.s:6      *ABS*:00000000 __tmp_reg__
C:\Users\Bart\AppData\Local\Temp/ccYFBbMo.s:7      *ABS*:00000001 __zero_reg__
C:\Users\Bart\AppData\Local\Temp/ccYFBbMo.s:12     .text:00000000 AvrUart0TxIrqCtl
C:\Users\Bart\AppData\Local\Temp/ccYFBbMo.s:112    .text:000000aa __vector_27
C:\Users\Bart\AppData\Local\Temp/ccYFBbMo.s:160    .data:00000000 sig_UART0_TRANS

UNDEFINED SYMBOLS
__do_copy_data
__do_clear_bss
CallHandler
